S00F000031332D554152542E7372656348
S214400000A82540205D1140000D1240000D12400012
S2144000100D1240000D1240000D124000000000007E
S2144000200000000000000000000000000D1240002C
S2144000300D124000000000000D1240000D1240005E
S2144000400D1240000D1240000D1240000D124000EF
S2144000500D1240000D1240000D1240000D124000DF
S2144000600D12400000000000C1094000D9094000C0
S214400070F10940000D124000C11740000D1240002B
S214400080090A4000210A40000D1240000D124000AF
S2144000900D1240000D1240000D1240000D1240009F
S2144000A00D1240000D1240000D1240000D1240008F
S2144000B00D1240000D1240000D1240000D1240007F
S2144000C00D1240000D1240000D1240000D1240006F
S2144000D0000000000D124000000000000D1240001D
S2144000E00D1240000D1240000D1240000D1240004F
S2144000F00D1240000D1240000D1240000D1240003F
S2144001000D1240000D1240000D1240000D1240002E
S2144001100D1240000000000000000000000000003B
S2144001200D1240000D1240000D1240000D1240000E
S2144001300D124000000000000D1240000D1240005D
S21440014010B5054C237833B9044B13B10448AFF3CC
S21440015000800123237010BD4004402000000000B2
S214400160981F4000084B10B51BB108490848AFF32C
S21440017000800848036803B910BD074B002BFBD02E
S214400180BDE81040184700BF00000000440440206F
S214400190981F4000981F40000000000080B582B0C5
S2144001A000AF78607B68072B31D801A252F823F065
S2144001B00D024000D1014000D9014000E10140005D
S2144001C0E9014000F1014000F9014000030240000F
S2144001D00020114B98471AE001200F4B984716E035
S2144001E000200E4B984712E010200C4B98470EE02C
S2144001F020200A4B98470AE03E210020084B9847AB
S21440020005E03E210120064B984700E000BF00BFB6
S2144002100837BD4680BD00BF390B4000A50B4000E7
S214400220150C400080B582B000AF78607B68072B25
S21440023026D801A252F823F0590240005D02400041
S2144002405D0240006F0240006F0240006F024000B7
S2144002506F0240006F024000012312E00B4B9847AC
S2144002600346002B14BF01230023DBB209E0084BF2
S21440027098470346002B14BF01230023DBB200E05F
S214400280002318460837BD4680BD00BF710B4000AE
S2144002908D0C400080B483B000AF78607B68072B3D
S2144002A025D801A252F823F0C9024000CF024000F0
S2144002B0D5024000DB024000DF024000E30240007F
S2144002C0E7024000EB0240004FF4FA4310E04FF4E0
S2144002D000430DE04FF400430AE0084B08E0084BAB
S2144002E006E0084B04E0074B02E0064B00E0002324
S2144002F018460C37BD465DF8047B704700093D0044
S21440030000127A00001BB70080B582B000AF0346EB
S214400310FB7100BFFB791846054B9847034683F0B0
S2144003200103DBB2002BF5D100BF0837BD4680BDC8
S2144003302502400080B586B000AFF8607A603B602A
S2144003400B46FB727B68002B07D13B68002B04D121
S214400350FB684FF470021A6019E0FB7A18460E4BA1
S214400360984702467B68B2FBF3F37B617B693A6849
S21440037002FB03F37B613B68013B1A04074B1340C7
S2144003807A68D2B2134343F47C52FB681A6000BFCB
S2144003901837BD4680BD00BF950240000000FF07ED
S2144003A080B582B000AF786039603B68002B08D1DA
S2144003B0094B9847094A7B681B6843F00053936291
S2144003C005E0064A7B681B6843F48033D36100BF70
S2144003D00837BD4680BD00BFA90C400000060E4051
S2144003E080B582B000AF78607B68002B03D1054BA8
S2144003F09847034602E0044B98470346184608379A
S214400400BD4680BDC50C4000E10C400080B582B0C2
S21440041000AF0346FB71FB79033B042B08D8FB79FE
S2144004201846064B9847FB791846054B984700E018
S21440043000BF00BF0837BD4680BD00BF9D014000DD
S2144004400903400080B582B000AF786000BF78688E
S214400450044B98470346002BF9D00023184608372C
S214400460BD4680BDE103400080B500AF0620054B89
S2144004709847024613469B0013449A001344184676
S21440048080BD00BF9502400080B500AF024B984744
S2144004900346184680BD00BF6904400090B583B04F
S2144004A000AF1348134B98470620134B9847381D08
S2144004B0192301220621114CA0473B1D0021184656
S2144004C00F4B984700200F4B984702200E4B9847FB
S2144004D000200E4B98470E4B98470E4B98470346C6
S2144004E01846044B984700BF0C37BD4690BD00BF2A
S2144004F000A3E111811340000D0440003503400085
S214400500A103400045044000390A4000B50A4000B7
S214400510151240008904400080B485B000AFF860F2
S214400520B9607A607B68002B03D0FB68BA685A666D
S21440053002E0FB68BA681A6600BF1437BD465DF82D
S214400540047B704780B483B000AF786039607B68C6
S2144005503A681A6300BF0C37BD465DF8047B7047A7
S21440056080B483B000AF786039607B683A685A637D
S21440057000BF0C37BD465DF8047B704780B487B03B
S21440058000AFF860B9607A60FB687A685A64BB6806
S214400590B3F1C05F4AD0B3F1C05F08D8B3F1006F83
S2144005A016D0B3F1805F2CD0002B69D064E0B3F155
S2144005B0205F65D0B3F1205F03D8B3F1005F4AD027
S2144005C05AE0B3F1405F5BD0B3F1605F58D053E080
S2144005D0FB681B6F7B61FB681A6F7B68D9437B693E
S2144005E00B401A40FB681A67FB685B6F7B61FB68D1
S2144005F05A6F7B68D9437B690B401A40FB685A6741
S2144006003AE0FB681B6F7B617A687B691A43FB683C
S2144006101A67FB685B6F7B61FB685A6F7B68D943E0
S2144006207B690B401A40FB685A6725E0FB681B6FE6
S2144006307B61FB681A6F7B68D9437B690B401A4025
S214400640FB681A67FB685B6F7B617A687B691A4355
S214400650FB685A6710E0FB681B6F7B617A687B69B2
S2144006601A43FB681A67FB685B6F7B617A687B6935
S2144006701A43FB685A6700BFFB687A685A6000E016
S21440068000BF1C37BD465DF8047B704780B584B01C
S21440069000AFF860B9607A60B968F868194B984757
S2144006A07B6803F001031A46B968F868164B98470A
S2144006B07B6803F00A03002B03D0FB68BA681A6213
S2144006C002E0FB68BA685A627B6803F00203002BBC
S2144006D004D0FB68BA68C3F8802008E07B6803F063
S2144006E00803002B03D0FB68BA68C3F88420FB6875
S2144006F0BA685A61FB68BA681A6000BF1037BD46D0
S21440070080BD00BF210840001905400080B584B078
S21440071000AFF860B9607A603B60B968F868124B21
S2144007209847BA69B968F868104B98473B68002BF9
S21440073003D0FB68BA681A6502E0FB68BA685A6577
S2144007407B68002B03D0FB68BA681A6302E0FB683C
S214400750BA685A63FB68BA681A61FB68BA681A6076
S21440076000BF1037BD4680BD210840001905400037
S21440077080B483B000AF786039607B689A6B3B6822
S2144007801340002B01D1002300E0012318460C370C
S214400790BD465DF8047B704780B485B000AFF86016
S2144007A0B9607A607B6803F01003002B20D0FB68AA
S2144007B0BA68C3F8B0207B6803F02003002B04D04F
S2144007C0FB68BA68C3F8D42003E0FB68BA68C3F88D
S2144007D0D0207B6803F04003002B04D0FB68BA6847
S2144007E0C3F8C02008E0FB68BA68C3F8C42003E03A
S2144007F0FB68BA68C3F8B42000BF1437BD465DF83E
S214400800047B704780B483B000AF786039607B6803
S2144008103A681A6400BF0C37BD465DF8047B7047E3
S21440082080B483B000AF786039607B683A685A64B9
S21440083000BF0C37BD465DF8047B704780B483B07C
S21440084000AF78607B68DB6C18460C37BD465DF8B9
S214400850047B704780B483B000AF78607B689B6C45
S21440086018460C37BD465DF8047B704780B584B0AB
S21440087000AF786039607868264B9847F8607868AB
S214400880254B98470246FB681340FB60FB68002BED
S2144008903CD00023BB6034E0204ABB681B011344B5
S2144008A01A683B689A4226D11C4ABB681B0113440F
S2144008B004331A68FB681340002B1CD0174ABB68E9
S2144008C01B0113440C331B681449BA6812010A44CE
S2144008D010681249BA6812010A4404321268114676
S2144008E098470E4ABB681B01134404331B68DB431E
S2144008F0FA681340FB60BB680133BB60BB68062BDD
S21440090003D8FB68002BC7D100E000BF00BF1037FC
S214400910BD4680BD3D084000550840005C04402070
S21440092080B586B000AFF860B9607A603B60214B16
S2144009301B68062B01D9012338E00023FB7511E024
S214400940FB7D1B011C4A13443B613B691A68BB682C
S2144009509A4204D13B695A687B689A4208D0FB7D2C
S2144009600133FB75FA7D134B1B689A42E8D900E0C9
S21440097000BF3B69BA681A603B697A685A603B694F
S2144009803A689A603B693A6ADA60FA7D094B1B68B6
S21440099001339A4204D1074B1B680133054A136062
S2144009A03A687968F868054B984700231846183720
S2144009B0BD4680BDCC0440205C04402099074000E2
S2144009C080B500AF0A210248024B984700BF80BD61
S2144009D0000E0E406D08400080B500AF0B21024867
S2144009E0024B984700BF80BD00100E406D08400087
S2144009F080B500AF0C210248024B984700BF80BD2F
S214400A0000120E406D08400080B500AF102102482D
S214400A10024B984700BF80BD00140E406D08400052
S214400A2080B500AF11210248024B984700BF80BDF9
S214400A3000160E406D08400080B483B000AF78606A
S214400A407B68013B032B1AD801A252F823F000BF63
S214400A50610A4000670A40006F0A4000770A40007B
S214400A6000237B600EE04FF480737B600AE04FF417
S214400A7040737B6006E04FF400737B6002E0002327
S214400A807B6000BF0A490A4B1B6B23F440727B68AD
S214400A9013430B6300BF064B9B6E03F00803002B0B
S214400AA0F9D000BF0C37BD465DF8047B704700BFE9
S214400AB000060E4080B485B000AF78601D491D4BDF
S214400AC01B6B23F070027B6813430B634FF4805319
S214400AD0FB6007E0FB68002B01D1012323E0FB68A5
S214400AE0013BFB60134B9B6E03F00803002BF1D0D9
S214400AF0104A104B1B6B23F0030343F002031363AF
S214400B004FF48053FB6007E0FB68002B01D10123C4
S214400B1009E0FB68013BFB60064B9B6E03F0080355
S214400B20002BF1D0002318461437BD465DF8047BF1
S214400B30704700BF00060E4080B483B000AF7860B8
S214400B407B68012B05D10749064B9A68064B134331
S214400B508B60044B054A1A6000BF0C37BD465DF8F3
S214400B60047B704710180E40000010A5080000A532
S214400B7080B400AF094B5B6903F08003002B07D0BD
S214400B80074B9B6E03F08003002B01D0012300E04F
S214400B9000231846BD465DF8047B704710180E408B
S214400BA000060E4080B483B000AF78601549154B00
S214400BB01A6A154B13430B6200BF124B9B6E03F42D
S214400BC00033002BF9D00F490E4B1A6A0F4B1340D7
S214400BD07A68134343F45C130B6200BF094B9B6E69
S214400BE003F40033002BF9D00649064B1A6A084B2B
S214400BF0134043F45C130B6200BF0C37BD465DF8F0
S214400C00047B704700060E40080037008FFFC8FF81
S214400C10FFFFC8FE80B483B000AF786039607B6861
S214400C20002B08D01349134B1B6A134A1A40134B28
S214400C3013430B6218E00F490E4B1A6A104B1340D1
S214400C403A68120292B21A430E4B13430B6200BF2D
S214400C50084B9B6E03F00103002BF9D00549054B6A
S214400C601A6A094B13430B6200BF0C37BD465DF84A
S214400C70047B704700060E40FCFFC8FE02003701AA
S214400C80FCFFC8FF010037000000370180B400AF0A
S214400C90044B9B6E03F480331846BD465DF8047BD8
S214400CA0704700BF00060E4080B400AF044B4FF0C4
S214400CB000529A6200BFBD465DF8047B704700BF95
S214400CC000060E4080B400AF044B9B6E03F0020358
S214400CD01846BD465DF8047B704700BF00060E40D0
S214400CE080B400AF044B9B6E03F040031846BD46ED
S214400CF05DF8047B704700BF00060E4080B483B0AA
S214400D0000AF78607B683F2B01D901232FE07B68DA
S214400D101F2B13D8194B9A6901217B6801FA03F3FC
S214400D201A4001217B6801FA03F39A421ED0134A07
S214400D3001217B6801FA03F3136117E07B68203BCF
S214400D407B600E4BD3F8082101217B6801FA03F340
S214400D501A4001217B6801FA03F39A4206D0074AFB
S214400D6001217B6801FA03F3C2F8003100231846DC
S214400D700C37BD465DF8047B704700BF00060E404A
S214400D8080B483B000AF78607B685B6903F400731F
S214400D90002B14BF01230023DBB218460C37BD4698
S214400DA05DF8047B704700BF80B483B000AF7860C6
S214400DB00B46FB707B685B6903F00203002B01D196
S214400DC0012303E0FA787B68DA61002318460C3783
S214400DD0BD465DF8047B704780B483B000AF786052
S214400DE039607B685B6903F00103002B01D1012366
S214400DF005E07B689B69DAB23B681A7000231846A8
S214400E000C37BD465DF8047B704700BF80B489B0A0
S214400E1000AFF860B9607A60BB681A017B689A4296
S214400E2002D81023FB6101E00823FB617B68DA00EF
S214400E30FB69B96801FB03F35B081A44FB69B968B0
S214400E4001FB03F3B2FBF3F3BB61BB69DB087B61D9
S214400E50BB6903F007033B617B69002B03D07B69CA
S214400E60B3F5803F01D301230FE0FB69082B05D182
S214400E70FB685B6843F40022FB685A603B691A04CF
S214400E807B691A43FB681A62002318462437BD461E
S214400E905DF8047B704700BF80B582B000AF7860D5
S214400EA078680D4B98477B6800225A607B68002222
S214400EB05A627B6800229A627868084B984778683E
S214400EC0074B98477868074B98477868064B98478B
S214400ED000BF0837BD4680BDB51040008D0F4000AE
S214400EE0C50F4000151040003110400080B584B05A
S214400EF000AFF860B9607A60F8681A4B98471A4BAA
S214400F0000221A60BB68002B09D0BB681B687A6851
S214400F101946F868154B98470346002B01D0012325
S214400F201BE0BB685A68BB689B681A43BB681B6972
S214400F301A43BB68DB681A430B4B1B6813430A4AC9
S214400F401360094B1B68084A1360FB685A68064BD7
S214400F501B681A43FB685A60002318461037BD4684
S214400F6080BD00BF990E4000D00440200D0E4000CA
S214400F7080B483B000AF78607B6840221A6000BFC0
S214400F800C37BD465DF8047B704700BF80B483B025
S214400F9000AF78607B6888221A6000BF0C37BD4679
S214400FA05DF8047B704700BF80B483B000AF7860C4
S214400FB07B6810221A6000BF0C37BD465DF8047B84
S214400FC0704700BF80B483B000AF78607B6824224F
S214400FD01A6000BF0C37BD465DF8047B704700BF03
S214400FE080B483B000AF786039607B683A689A60B6
S214400FF000BF0C37BD465DF8047B704780B483B0B5
S21440100000AF78607B685B6918460C37BD465DF874
S214401010047B704780B483B000AF78607B684FF441
S21440102080721A6000BF0C37BD465DF8047B70477F
S21440103080B483B000AF78607B684FF400221A60BB
S21440104000BF0C37BD465DF8047B704780B483B064
S21440105000AF786039607B685B6903F00203002B61
S21440106001D1012305E03B68C3F308027B68DA61DF
S214401070002318460C37BD465DF8047B704700BF1A
S21440108080B483B000AF786039607B685B6903F0FA
S2144010900103002B01D1012306E07B689B69C3F363
S2144010A008023B681A60002318460C37BD465DF8B8
S2144010B0047B704780B483B000AF78607B68044A96
S2144010C0C3F8E42000BF0C37BD465DF8047B70478C
S2144010D00041535580B483B000AFEFF310837B607C
S2144010E07B68002B0CBF01230023DBB23B6072B64B
S2144010F0BFF35F8F044B00221A703B6818460C37CC
S214401100BD465DF8047B70470C00402080B483B039
S21440111000AF78607B68002B14BF01230023DBB24E
S21440112018460C37BD465DF8047B704780B582B0E4
S21440113000AF78607868074B98470346002B05D089
S214401140054B01221A70BFF35F8F62B600BF0837A7
S214401150BD4680BD0D1140000C00402080B584B0D7
S21440116000AF1E4BFB601E4BBB60FA68BB689A42E2
S2144011700CD007E0BB681A1DBA60FA68111DF9600A
S21440118012681A60BB68174A9342F3D3164BBB608B
S21440119004E0BB681A1DBA6000221A60BB68134A96
S2144011A09342F6D3124BFB60124AFB6823F07F0350
S2144011B09360114B98477860104A104B1B6843F475
S2144011C070031360BFF34F8FBFF36F8F78680C4B7D
S2144011D098470C4B98470C4B9847FEE7981F4000A3
S2144011E0000040204004402040044020A805402005
S2144011F00000400000ED00E0D510400088ED00E023
S2144012002D114000291E4000411A400080B400AF16
S214401210FEE700BF80B400AF524B1B6B03F00303E6
S214401220012B14D0012B02D3022B38D07AE04E4B40
S2144012305B6903F08003002B04D04C4B4FF4004214
S2144012401A606FE0494B4FF4FA421A606AE0454B29
S2144012501B6A03F08073002B03D0444B444A1A6049
S21440126060E0424B434A1A603E4B1B6A03F07003F1
S214401270102B04D0202B08D0002B0ED00EE03B4B7A
S2144012801B685B00394A136008E0384B1A681346FF
S2144012905B001344354A136000E000BF42E0314B28
S2144012A01B6A03F08073002B03D0304B304A1A6021
S2144012B01CE02E4B2F4A1A602A4B1B6A03F0700321
S2144012C0102B04D0202B08D0002B0ED00EE0274B3E
S2144012D01B685B00254A136008E0244B1A681346D7
S2144012E05B001344214A136000E000BF1D4B1B6B9C
S2144012F003F00303022B14D11A4B9A6A1E4B134079
S2144013001B0C0133194A126802FB03F3174A136099
S214401310144B9B6ADBB2154A1268B2FBF3F3134ACE
S214401320136000BF0F4B1B6B03F07003702B08D18C
S2144013300E4B1B68114AA2FB03235B080B4A136043
S2144013400AE0084B1B6B03F070031B09074A126840
S21440135022FA03F3054A136000BFBD465DF8047BDE
S214401360704700BF00060E4010180E401000402088
S214401370001BB70000093D000000FF07ABAAAAAA61
S21440138080B483B000AF78607B68194A934204D833
S214401390184B4FF080621A6023E07B68164A9342EF
S2144013A003D8144B154A1A601BE07B68144A9342D4
S2144013B003D8104B134A1A6013E07B68124A9342D4
S2144013C003D80C4B114A1A600BE07B68104A9342D4
S2144013D004D8084B4FF004221A6002E0054B0D4A31
S2144013E01A6000BF0C37BD465DF8047B704700BFEF
S2144013F0FF2C3101000C0E40FF5962020001000430
S214401400FF86930300020004FFB3C40400030004F5
S214401410FFE0F5050005000480B483B000AF034646
S214401420FB71094997F907305B09FA7902F01F0208
S214401430012000FA02F241F8232000BF0C37BD46D7
S2144014405DF8047B704700BF00E100E080B483B0E5
S21440145000AF03463960FB7197F90730002B0BDA73
S2144014600D49FB7903F00F03043B3A68D2B25201B0
S214401470D2B20B441A7609E0084997F907303A6821
S214401480D2B25201D2B20B4483F8002300BF0C37CD
S214401490BD465DF8047B704700ED00E000E100E0EB
S2144014A080B483B000AF78607B68072B25D801A254
S2144014B052F823F0D5144000DB144000E1144000FD
S2144014C0E7144000EB144000EF144000F3144000D3
S2144014D0F71440004FF4FA4310E04FF400430DE099
S2144014E04FF400430AE0084B08E0084B06E0084B80
S2144014F004E0074B02E0064B00E0002318460C379A
S214401500BD465DF8047B704700093D0000127A0036
S214401510001BB70080B500AF0620054B9847024633
S21440152013469B0013449A001344184680BD00BFE0
S214401530A114400080B500AF024B984703461846BA
S21440154080BD00BF1515400080B500AF024B9847E0
S21440155003465B08184680BD1515400080B582B02E
S21440156000AF78607868034B984700BF0837BD46A1
S21440157080BD00BFFD0C400080B582B000AF7860F3
S2144015800B46FB707B68364A93420AD100BFFB7815
S21440159019467868334B98470346002BF7D101230A
S2144015A05AE07B68304A93420AD100BFFB7819461E
S2144015B078682C4B98470346002BF7D101234BE025
S2144015C07B682A4A93420AD100BFFB78194678685E
S2144015D0244B98470346002BF7D101233CE07B6819
S2144015E0234A93420AD100BFFB78194678681D4BC0
S2144015F098470346002BF7D101232DE07B681D4A10
S21440160093420AD100BFFB78194678681A4B984730
S2144016100346002BF7D101231EE07B68174A93420E
S2144016200AD100BFFB7819467868134B98470346A3
S214401630002BF7D101230FE07B68114A93420AD171
S21440164000BFFB78194678680B4B98470346002B3B
S214401650F7D1012300E0002318460837BD4680BD79
S21440166000080E40A90D4000000A0E40001A0E4029
S214401670001C0E40004002404D10400000800240DA
S21440168000C0024080B584B000AF78603960002367
S214401690FB607B68344A934207D100BF396878685C
S2144016A0324B98470346002BF8D17B68304A93422A
S2144016B007D100BF396878682C4B98470346002B03
S2144016C0F8D17B682B4A934207D100BF39687868C7
S2144016D0264B98470346002BF8D17B68264A934210
S2144016E007D100BF39687868204B98470346002BDF
S2144016F0F8D17B68214A93420DD100BF07F10C0315
S214401700194678681E4B98470346002BF6D1FB686F
S214401710DAB23B681A707B681A4A93420DD100BF12
S21440172007F10C0319467868154B98470346002B7B
S214401730F6D1FB68DAB23B681A707B68124A93426D
S2144017400DD100BF07F10C03194678680C4B98473B
S2144017500346002BF6D1FB68DAB23B681A7000BF2E
S2144017601037BD4680BD00BF00080E40D90D400072
S214401770000A0E40001A0E40001C0E400040024078
S214401780811040000080024000C0024080B582B018
S21440179000AF786039604FF080510648064B984756
S2144017A04FF480710548044B984700BF0837BD4644
S2144017B080BD00BF00140E403D18400000120E4091
S2144017C080B582B000AF1648164B984778607B6865
S2144017D003F00103002B1ED0134B1B68002B1AD1BD
S2144017E0FB1C19460E48114B9847FB7819460C4887
S2144017F00F4B9847FB780A2B0AD00E4B1A680E4BB5
S2144018001B68591C0C4801601344FA781A7002E0B1
S214401810054B01221A6000BF0837BD4680BD00BF99
S21440182000800240FD0F4000D40440208516400052
S21440183079154000DC044020D804402080B582B0B2
S21440184000AF7860396039687868094B9847034636
S214401850002B04D039687868064B984703E039680F
S2144018607868054B984700BF0837BD4680BD00BF27
S21440187071074000610540004505400090B583B0C3
S21440188002AF0A20104B984709224FF400610F48D8
S2144018900F4B98474FF400610C480E4B98470E4B41
S2144018A0009350234FF400620A2108480B4CA0478F
S2144018B00A200B4B984701210A200A4B984700BF45
S2144018C00437BD4690BD00BFFD0C4000000E0E40E4
S2144018D08D064000050840008D1740002109400055
S2144018E0191440004D14400090B585B002AF7860A2
S2144018F00C20074B98477A680023009300234FF448
S21440190080710448044CA04700BF0C37BD4690BDCC
S214401910FD0C400000120E400D07400080B586B01A
S21440192000AF0B20224B98470A20214B98471022A5
S2144019304FF000511F48204B98474FF400124FF08D
S21440194000611E481C4B98471D4A1D4BD3F8143166
S21440195043F01003C2F814313B4600221A605A6026
S2144019609A60DA601A615A614FF4E1333B60C023F3
S2144019707B604FF40063BB600E200D4B9847114BC5
S214401980984702463B4619460F48104B98470E4824
S2144019900F4B98470C480F4B984701210A480E4B6F
S2144019A098470E200D4B984700BF1837BD4680BD60
S2144019B05D15400000100E407D054000000E0E40B4
S2144019C0008008404915400000800240ED0E40006F
S2144019D0710F4000A90F4000E10F4000191440006D
S2144019E080B584B000AF78600023FB601148124B8E
S2144019F098470346012B18D111E0FB687A681344D8
S214401A001B7819460B480D4B9847FB680133FB6023
S214401A1000BF0848084B98470346002BF9D0FB68A0
S214401A207A6813441B78002BE7D1002318461037FA
S214401A30BD4680BD00800240810D400079154000C3
S214401A402DE9F84F00AF274B9847274B4FF40042FD
S214401A505A600120254B9847254B9847254B984779
S214401A60254B1B68012B02D12448254B9847234819
S214401A70234B9847234B9847034618464FF00001A0
S214401A8002460B464FEA830B4BEA927B4FEA820AAA
S214401A9052465B465D0145EAD2655401A41A65EBA1
S214401AA00305241845EB01054FEAC50949EA547970
S214401AB04FEAC40844464D462046294641F22B721A
S214401AC04FF00003801841EB03010F4E41F22C7299
S214401AD04FF00003B04702460B46134618460B4BE2
S214401AE09847BDE79D04400050180E40E918400056
S214401AF07D1840001D194000D4044020E0044020DA
S214401B00E119400035154000111B400001004020FF
S214401B1053B94AB9002908BF00281CBF4FF0FF310F
S214401B204FF0FF3000F07EB9ADF1080C6DE904CE01
S214401B3000F006F8DDF804E0DDE9022304B0704763
S214401B402DE9F0478C460E460446089D002B50D1A2
S214401B508A4217466CD9B2FA82FEBEF1000F0BD00D
S214401B60CEF1200420FA04F401FA0EF644EA060CFC
S214401B7002FA0EF700FA0EF44FEA1749220CBCFBA5
S214401B80F9F01FFA87F809FB10C642EA064600FB42
S214401B9008F3B34209D9F61900F1FF3280F02281EA
S214401BA0B34240F21F8102383E44F61AA2B2B6FB58
S214401BB0F9F309FB136642EA064403FB08F8A0451E
S214401BC009D9E41903F1FF3280F00A81A04540F2BA
S214401BD00781023B3C44C8EB040443EA0040002132
S214401BE0002D62D024FA0EF400232C606B60BDE812
S214401BF0F0878B4207D9002D55D0002185E841005B
S214401C000846BDE8F087B3FA83F1002940F090809B
S214401C10B34202D3824200F2F880841A66EB03068F
S214401C200120B446002D40D085E81010BDE8F0876E
S214401C3012B90127B7FBF2F7B7FA87FEBEF1000FDD
S214401C4035D1F31B4FEA17481FFA87FC0121B3FB37
S214401C50F8F0220C08FB103642EA06460CFB00F36E
S214401C60B34207D9F61900F1FF3202D2B34200F26E
S214401C70CE801046F61AA2B2B6FBF8F308FB1366FF
S214401C8042EA06440CFB03FCA44507D9E41903F1D9
S214401C90FF3202D2A44500F2B5801346CCEB0404D2
S214401CA043EA00409CE729462846BDE8F087CEF147
S214401CB0200106FA0EF307FA0EF720FA01F94FEA6A
S214401CC01748CE4049EA0309B6FBF8FA4FEA1944EA
S214401CD008FB1A661FFA87FC44EA06430AFB0CF226
S214401CE09A4200FA0EF40AD9DB190AF1FF3180F065
S214401CF087809A4240F28480AAF1020A3B449B1AAB
S214401D001FFA89F9B3FBF8F108FB113349EA03439C
S214401D1001FB0CF69E4207D9DB1901F1FF326BD26C
S214401D209E4269D902393B449B1B41EA0A418EE7F1
S214401D30C1F1200E22FA0EF48B40234320FA0EF710
S214401D4006FA01F44FEA134C26FA0EF63C43B6FB6D
S214401D50FCF9270C0CFB19661FFA83F847EA06467F
S214401D6009FB08F7B74202FA01F200FA01FA08D96D
S214401D70F61809F1FF3041D2B7423FD9A9F102091E
S214401D801E44F61BA0B2B6FBFCF40CFB146640EAFD
S214401D90064704FB08F8B84507D9FF1804F1FF309A
S214401DA028D2B84526D9023C1F4444EA0940C8EB2D
S214401DB00707A0FB02894F4544464E4614D329D018
S214401DC065B3BAEB040367EB060707FA0EFECB4093
S214401DD0CF404EEA030385E888000021BDE8F0873F
S214401DE01346F8E61046E0E6B8EB020469EB030655
S214401DF00138E5E70446D8E7114695E78146C0E74F
S214401E008A467CE7023B3C4448E708460AE70238F5
S214401E103E442FE7C245E7D33E46D1E72946BDE8D4
S214401E20F08700BF704700BF70B50F4E0F4D761B52
S214401E30B61018BF002405D0013455F8043B984727
S214401E40A642F9D10A4E0B4D761B00F08FF8B6101D
S214401E5018BF002406D0013455F8043B9847A642E4
S214401E60F9D170BD70BD00BF781F4000781F40009C
S214401E70801F4000781F4000024B13B1024800F01C
S214401E8005B8704700000000991E40000023014638
S214401E901A46184600F014B838B5074D074C2C1BA8
S214401EA0A41005D0013C55F8043D9847002CF9D1C4
S214401EB0BDE8384000F064B8901F40008C1F4000DA
S214401EC02DE9F047254C2568D5F848410646884612
S214401ED092469946C4B360681F2817DC431C76B107
S214401EE004EB80050122C5F888A0D4F8881182400A
S214401EF01143022EC4F88811C5F808911ED002304E
S214401F00636044F820800020BDE8F087144B03B39C
S214401F104FF4C870AFF300800446D0B1D5F84831CE
S214401F20002780E88800C5F8484138460123C4F8B1
S214401F308871C4F88C71002EE1D0D1E7D4F88C11AA
S214401F400A43C4F88C21DAE705F5A674C5F848417B
S214401F50C1E74FF0FF30BDE8F08700BF681F400084
S214401F60000000004300000018004020F8B500BF05
S214401F70F8BC08BC9E467047791E4000650140008C
S214401F80F8B500BFF8BC08BC9E467047410140000B
S20C401F90B0FBFF7F01000000DA
S214401F98BFF35F8F0138FBD1704700BF01000000D8
S214401FA800093D0000000000000000000403402037
S214401FB86C034020D40340200000000000000000CE
S214401FC800000000000000000000000000000000C4
S214401FD8000000000000000000000000641F4000F1
S214401FE800000000000000000000000000000000A4
S214401FF80000000000000000000000000000000094
S2144020080000000000000000000000000000000083
S2144020180000000000000000000000000000000073
S2144020280000000000000000000000000000000063
S2144020380000000000000000000000000000000053
S2144020480000000000000000000000000000000043
S21440205801000000000000000E33CDAB34126DE6E0
S214402068ECDE05000B000000000000000000000049
S2144020780000000000000000000000000000000013
S2144020880000000000000000000000000000000003
S21440209800000000000000000000000000000000F3
S2144020A800000000000000000000000000000000E3
S80440115D4D
