:020000040040BA
:10000000F02F4020113740000D3740000D374000E1
:100010000D3740000D3740000D3740000000000054
:100020000000000000000000000000000D3740004C
:100030000D374000000000000D3740000D37400034
:100040000D3740000D3740000D3740000D374000A0
:100050000D3740000D3740000D3740000D37400090
:100060000D37400000000000FD314000113240001B
:10007000253240000D3740000D3740000D3740005D
:10008000393240004D3240000D3740000D374000FE
:100090000D3740000D3740000D3740000D37400050
:1000A0000D3740000D3740000D3740000D37400040
:1000B0000D3740000D3740000D3740000D37400030
:1000C0000D3740000D3740000D3740000D37400020
:1000D000000000000D374000000000000D37400018
:1000E0000D3740000D3740000D3740000D37400000
:1000F0000D3740000D3740000D3740000D374000F0
:100100000D3740000D3740000D3740000D374000DF
:100110000D3740000000000000000000000000005B
:100120000D3740000D3740000D3740000D374000BF
:100130000D374000000000000D3740000D37400033
:1001400010B5054C237833B9044B13B10448AFF311
:1001500000800123237010BD8808402000000000AB
:1001600014844000084B10B51BB108490848AFF390
:1001700000800848036803B910BD074B002BFBD073
:10018000BDE81040184700BF000000008C08402068
:10019000148440001484400000000000102808D19E
:1001A000B1F1805F05D108B5024B1B6803B19847D8
:1001B00008BD7047A408402040B170B50446044E05
:1001C000044D3046A847013CFBD170BD704700BFCD
:1001D00035160300010040202DE9F041094F4FF48E
:1001E0000038C7F83480084D08266E636420074C39
:1001F000A047C7F830806420A0472E636420A04742
:10020000BDE8F08100120E4000100E40B901400020
:1002100010B50022144B1A600A20144CA0470B2082
:10022000A0470C20A0471020A0471120A047104B4A
:1002300008221A61C3F8A0201A630E4A4FF4003155
:100240001161C2F8A010116304221A61C3F8A02042
:100250001A63094B1B6813F0010F01D0064B1B6892
:10026000064B9847002010BDA40840200D344000E4
:1002700000100E4000120E4010E000E0D9014000D6
:1002800030B583B0144B18601020144B98474FF0D2
:1002900020517C20124B9847124C01224FF0805184
:1002A0002046114B9847114B009351234FF0805239
:1002B000102120460E4DA8474FF0805120460D4B8F
:1002C00098474FF480320C4B1A60002210212046D0
:1002D0000A4B984703B030BDA40840200D344000BD
:1002E0000D30400000140E40C92E40009D0140001A
:1002F00091314000FD2F400000E100E061324000FC
:1003000008B528B14FF080510448054B984708BD07
:100310004FF080510148034B984708BD00140E4030
:10032000FD2F400001304000F8B5394C4FF48011EA
:100330002166C4F8901061656162C4F88010236F73
:100340000B432367636F23F4801363674FF400123A
:100350002266C4F8902062656262C4F88020236F30
:1003600013432367636F23F4001363674FF4800321
:100370002366C4F8903063656362C4F88030206FF0
:1003800018432067606F20F48000606761606260DE
:1003900063604FF0007666602660266126631D4D1F
:1003A00028461D4B984702232B6080232B606B68E7
:1003B00043F001036B606B6843F010036B60012135
:1003C0002846164B9847002201212846144B98478F
:1003D000012211462846134B984700220121284646
:1003E000114B984711491248124B9847C2B201214C
:1003F0002846114B984700231A46012128460F4FE3
:10040000B84701232B6026630D4B98470020F8BDA9
:1004100000140E4000800040613440008D344000E4
:1004200011354000313540005135400000A3E11145
:10043000006CDC02653540007D354000A935400088
:10044000D90140002DE9F04F83B0032841D10E6857
:100450004D680C8900238DF80430ADF8063036B1B4
:10046000002D33D14FF00108994601AD04E04FF063
:1004700000084FF0010901AE4FF000721C4B5A63A7
:10048000F4B11C4FDFF884B0DFF884A000231A46D3
:1004900031783846D8470DF105020DF1060138468E
:1004A000D047BDF806302B70013CA4B2B8F1000F64
:1004B00000D10135B9F1000F00D10136002CE5D192
:1004C0004FF000720A4B1A6300200EE06FF0050037
:1004D0000BE040F21F1208490848094CA0470948A0
:1004E000A0470948A0474FF0FF3003B0BDE8F08FA8
:1004F00000140E4000800040C07140009071400028
:1005000041404000A4714000BC714000D93440001B
:10051000A534400002220E4B1A6003F5592303F55F
:1005200080634FF400125A61C3F8A0204FF4801288
:100530005A61C3F8A0204FF480025A61C3F8A0208A
:100540004FF000725A61C3F8A0200020704700BF2E
:10055000008000403AB10139821811F8013F00F8DB
:10056000013B9042F9D1704722B1821800F8011B7B
:100570009042FBD1704700BF034602783AB1002099
:10058000013080B213F8012F002AF9D17047002002
:10059000704700BF024A13780133DBB21370704713
:1005A000B0084020704700BF00B583B001200B4B5E
:1005B000984701A941F27000094B9847034640B99A
:1005C000019941F00201019141F27000054B9847F9
:1005D0000346184603B05DF804FB00BF010340006A
:1005E000711840007D18400008B5114B1B7813F0BE
:1005F000FF0F15D10F4B1B78DBB2032B04D00D4B33
:100600001B78DBB2042B0BD10B4B9847034668B920
:1006100045F2786141F27400084B9847034628B9C7
:10062000034A13780133DBB213700023184608BD68
:10063000CC084020BC084020E11340007D18400059
:1006400000B583B01D4B1B7813F0FF0F04D01B4A7D
:100650001378013BDBB21370184B1B7813F0FF0FBC
:1006600025D1174B1B78DBB2032B04D0144B1B781E
:10067000DBB2042B1DD10023019344F2213141F25E
:100680007400104B98470346A0B901A901200E4BF6
:100690009847034670B9019911F0020F0AD021F072
:1006A000020101910120074B9847034602E0002315
:1006B00000E00023184603B05DF804FBCC0840209E
:1006C000BC0840207D184000711840002DE9F04F13
:1006D00087B080460F4692469946109CBDF844600C
:1006E000BDF8485001F07F038DF815308DF81400E7
:1006F0000823ADF8163044B1BDF8163016FA83F36E
:100700002B449BB2ADF8163006E0BDF8163019FA4E
:1007100083F39BB2ADF81630574B984783460028B9
:1007200040F0958000230393ADF806300293029BBE
:1007300048EA03030293029B43EA07270297BDF8A6
:100740001620029B43EA02430293029941F28C0075
:100750004A4B98478346002840F08A800023029342
:10076000029B43F002030293029941F27800434B4B
:100770009847834600287BD100230393ADF80630C9
:10078000BDF806309BB2B3F57A7F1ED241F27808ED
:100790003B4F02A94046B847B8B9029B13F0020F7D
:1007A00007D103A93748364B984770B1002303930C
:1007B0000BE0BDF8063001339BB2ADF80630BDF852
:1007C00006309BB2B3F57A7FE3D3039B002B4DD069
:1007D000039B0493BDF816309BB2ADF81630049815
:1007E000082205A9284B98478346002840D1049B3E
:1007F00008330493BAF1000F0AD004984A465146D0
:10080000214B98478346002832D1049B4B440493E4
:1008100074B1049BC9EB05051D4404950498324648
:100820002146194B9847834610BB049B1E440496EF
:10083000039B9B000293029B43F0020302930299E5
:1008400041F26C000D4B9847834688B90AE040F2AC
:100850009F120E490E480F4CA0470F48A0470F4863
:10086000A04705E00E4B9847834601E06FF0020B6E
:10087000584607B0BDE8F08FE90540007D184000FC
:100880007118400000041500E91840002874400069
:100890009071400041404000E4714000BC71400054
:1008A000410640002DE9F04387B0DFF8FC92A34FEA
:1008B000DFF8F882A24E7BE199F80030013BDBB211
:1008C00089F80030B8470446002840F01A8103A98F
:1008D00041F270009B4B98470446002840F0068187
:1008E000039B13F0010F00F0F580974B9847039995
:1008F00021F00101039141F27000944B98470446A6
:10090000002840F00E810022914B1A70039DC5F320
:100910008B05002D00F0D18006A941F8042D41F28D
:100920008400884B9847044668B14FF4E77241460B
:100930003046884DA8478848A8478848A8470120DE
:10094000814B9847EBE0042204A90598844B984713
:10095000BDF812309BB2ADF81230044668B14FF4C6
:10096000EB72414630467B4DA8477E48A8477B48FE
:10097000A8470120744B9847D1E0BDF812309BB2D4
:100980009D421ED0BDF812309BB2EB1A042B18DD2D
:1009900040F2DF12414630466E4CA047BDF81220AF
:1009A0009DF810309DF81110009192B229466E48C2
:1009B000A0476A48A0470120634B98476FF00504A1
:1009C000ADE09DF81030DBB2012B0DD1674B1B68F9
:1009D000002B60D09DF81100BDF812100839059A5F
:1009E000083289B2984756E09DF81030DBB2022BEE
:1009F0000DD15F4B1B68002B4DD09DF81100BDF849
:100A000012100839059A083289B2984743E09DF8D8
:100A10001030DBB2042B0DD1564B1B68002B3AD0A3
:100A20009DF81100BDF812100839059A083289B2F4
:100A3000984730E09DF81030DBB2062B0CD14E4BBE
:100A40001B6843B39DF81100BDF812100839059AD0
:100A5000083289B298471EE09DF81030DBB2072BB0
:100A60000CD1464B1B68B3B19DF81100BDF81210B4
:100A70000839059A083289B298470CE040F2022200
:100A800041463046334CA0473D48A0473348A04735
:100A90006FF0050443E02E4B1B7813F0FF0F3BD1A2
:100AA00040F20922414630462A4CA0473548A0472B
:100AB0002A48A047344B98472EE040F21122414685
:100AC0003046244CA0473148A0472448A0476FF047
:100AD000010426E04FF40672414630461D4CA04703
:100AE00003992B48A0471D48A04715E040F21E225D
:100AF00041463046174DA8472648A8471748A847FB
:100B00000FE04FF4097241463046124DA847224883
:100B1000A8471248A84704E0204B98470446002CF9
:100B200046D040F243221E4930460A4DA84721468E
:100B30001C48A8470948A847C4E600BFE90540008B
:100B40009071400071184000010340007D18400082
:100B5000C40840204140400004724000BC71400085
:100B6000891840002C72400044724000AC084020BC
:100B7000C0084020C8084020A8084020B8084020ED
:100B8000847240009C724000A9054000C072400081
:100B9000D4724000F07240001473400041064000DF
:100BA0003474400034734000B0084020D0714000DD
:100BB00099F8003013F0FF0F7FF47EAE002007B0ED
:100BC000BDE8F0832DE9F04383B01C46002A18BF2E
:100BD000002903D005460F461646A0B934B10122BC
:100BE000314B1A70314B9847034658E040F2692266
:100BF0002F493048304CA0473048A0473048A047E4
:100C00006FF00B034BE0694641F270002D4B9847A3
:100C10000346002843D1DDF8008001A941F2840099
:100C2000284B98470346002839D1C8F38B0846451E
:100C30000ED940F27A221E491E481F4CA047424658
:100C400031462148A0471E48A0476FF00B0326E01D
:100C5000019B9D4204D305EB0609434499450CD9F9
:100C60004FF4207212491348134CA0471748A0476D
:100C70001348A0476FF00B0311E03246394628466F
:100C8000134B9847034650B9019A42444A4500D055
:100C90002CB10122044B1A70044B984703461846A6
:100CA00003B0BDE8F08300BFC4084020A9054000A0
:100CB000D871400090714000414040006473400092
:100CC000BC7140007118400084734000C87340003C
:100CD0008918400038B5431E062B1DD8DFE803F005
:100CE0000804100C1C141800134B1960002038BDA8
:100CF000124B1960002038BD114B1960002038BD1F
:100D0000104B1960002038BD0F4B1960002038BD12
:100D10000E4B1960002038BD044640F2B9220C4940
:100D20000C480D4DA84721460C48A8470C48A84739
:100D30006FF00B0038BD00BFC0084020AC08402059
:100D4000C8084020B4084020A8084020B808402027
:100D50001874400090714000414040000C74400005
:100D6000BC71400010B50024094B1C60094B1C608D
:100D7000094B1C70094B1C70094B1C7009480A4B2D
:100D800098470A4903200A4B9847204610BD00BFE8
:100D9000AC084020C0084020CC084020BC084020BF
:100DA000B00840209505400081024000A5054000A4
:100DB000D50C400030B59FB015462C2811D100232A
:100DC000042203A92846904CA047002840F019812E
:100DD0008E4B1B68002B00F0148103A92C20984730
:100DE0000FE104461B2811D10023082203A928463D
:100DF000854CA047002840F00481844B1B68002BE1
:100E000000F0FF8003A91B209847FAE0062811D1C3
:100E10000123302203A928467B4CA047002840F03C
:100E2000F0807A4B1B68002B00F0EB8003A90620B2
:100E30009847E6E00E2800F0E480322811D1002324
:100E4000102203A92846704CA047002840F0D98002
:100E50006E4B1B68002B00F0D48003A9322098470A
:100E6000CFE02F2816D16422002103A8684B9847B1
:100E70000023642203A92846634CA047002840F0C1
:100E8000C080624B1B68002B00F0BB8003A92F20A1
:100E90009847B6E0342820D10023042203A928462D
:100EA000594CA047002840F0AC805A485A4CA04703
:100EB00003990B0E0093C1F30743C1F30722C9B294
:100EC0005648A0475648A047504B1B68002B00F0DF
:100ED000988000213420984793E0112816D10023F0
:100EE000504A1370042203A92846474CA047002803
:100EF00040F087809DF80C204B4B1A70434B1B68C9
:100F0000002B7ED003A9112098477AE013280FD137
:100F100000232C2203A928463B4CA047002870D16F
:100F20003A4B1B68002B6CD003A91320984768E04C
:100F300004280FD1002304221CA92846324CA047C4
:100F400000285ED1314B1B68002B5AD01CA904200D
:100F5000984756E065280FD1002304221CA9284693
:100F6000294CA04700284CD1284B1B68002B48D0A7
:100F70001CA96520984744E009280FD10123642269
:100F800003A92846204CA04700283AD11F4B1B68D4
:100F9000002B36D003A90920984732E02A280DD12A
:100FA0000123042203A92846174CA04748BB174B2E
:100FB0001B6833B303A92A20984722E0202815D1C3
:100FC0000023082203A928460F4CA047C8B90123D3
:100FD000BDF81020039905F10800A04788B90B4B14
:100FE0001B6873B103A9202098470AE04FF495725B
:100FF0000E490F48084DA84721460E48A847084803
:10100000A8471FB030BD00BFC50B4000D00840202E
:101010006905400064744000414040007074400025
:10102000BC714000D4084020D508402058744000CE
:101030009071400090744000F0B58BB001238DF8A2
:10104000073000284ED00268294B1A600022294B35
:101050001A700DF10700284B98470446002843D129
:10106000264B98470446002838D125490120254BB6
:10107000984702A8244B98470446244F3846244DED
:10108000A8479DF80E309DF80D209DF80C102148C2
:10109000A847214E3046A8473846A8479DF811304A
:1010A0009DF810209DF80F101C48A8473046A8470F
:1010B0003846A8470023032213211948A847304681
:1010C000A84714F10D0F0FD140F2D512154916485B
:1010D000A8471648A8473046A84705E00020144B0B
:1010E000984701E06FF00B0420460BB0F0BD00BF45
:1010F000D0084020D4084020F5194000650D40007C
:10110000B50D4000D50C4000491940006474400002
:101110004140400048754000BC714000647540008B
:10112000807540008C774000907140009C754000B5
:10113000BD1A400008B5014B984708BDA5084000FE
:101140002DE9F041A0B080460D4614461E46BDF87C
:101150009870012A45D063B940F203227A497B484E
:101160007B4CA0477B48A0477B48A0476FF00B0013
:10117000E7E0022A35D11846784B9847402830D10D
:101180003378A3F13002D2B2362A1BD8A3F13A0247
:10119000D2B2062A16D9473BDBB2192B12D93146F7
:1011A00006F13F0011F8013FA3F13A02D2B2062A3C
:1011B00008D9A3F13002D2B2362A03D8473BDBB2BA
:1011C000192B0CD840F20F225F496048604CA047B1
:1011D0006348A0476048A0476FF00B00B1E0884229
:1011E000E0D16B1EDBB21F2B0CD940F219225649FD
:1011F0005648574CA0475B48A0475748A0476FF058
:101200000B009EE0FF2F0ED00D2F0CD940F22222B2
:101210004D494E484E4CA0475348A0474E48A04722
:101220006FF00B008DE02A4641460DF15A004F4BFE
:10123000984720AB1D44002305F8263CADF85870B4
:101240009DF89C30003318BF01238DF87B308DF85A
:101250005540032C38D13378013BDBB28DF8143084
:10126000032B0ED940F2392237493848384CA04771
:101270009DF814103E48A0473748A0476FF00B0078
:101280005FE07278531E8DF8153002F0EF030B2BE0
:101290000ED04FF410722C492C482D4CA0479DF8CD
:1012A00015103448A0472C48A0476FF00B0048E0C9
:1012B000B11C0DF116002D4B9847737820AA1344EA
:1012C000002203F86A2C32E0022C19D13046234B5D
:1012D0009847431E9BB23F2B0CD940F24F221A492C
:1012E0001A481B4CA0472448A0471B48A0476FF052
:1012F0000B0026E0421C314605A81C4B984716E01F
:10130000042C05D13E22314605A8184B98470EE023
:10131000012C0CD040F25F220B490C480C4CA0472A
:101320001648A0470C48A0476FF00B0009E00023C7
:101330000293019300936C2305AA28210120104CED
:10134000A04720B0BDE8F081447440009071400097
:1013500041404000B8754000BC7140007905400034
:10136000CC754000DC754000F0754000550540002C
:10137000FC754000187640003476400050764000FE
:10138000CD06400010B582B000240194BDF8104095
:101390000094024CA04702B010BD00BF41114000B4
:1013A00000207047F0B583B004464FF4A5550A4EAF
:1013B0000A4F21462846B04754B102A9002341F8FC
:1013C000043D2846B8470028F3D1019B9C42F0D148
:1013D000002003B0F0BD00BF7D1840007118400030
:1013E0002DE9F04F83B001203D4B984701A9012022
:1013F0003C4B9847824648B172223B493B483C4CA3
:10140000A0473C48A0473C48A04764E000244FF078
:101410000108DFF8F890324D384F019941F0020190
:101420004046C8474046A8476946354B18682D4B8B
:10143000984718B9009B0BB1314E37E0304E0E2360
:1014400033604046A84769463068264B984710B934
:10145000009B002BF0D12A4E132333604046A8474F
:10146000694630681F4B984706460028E4D096220C
:101470001D491E481E4CA0472248A0471E48A047B1
:10148000B24628E00220A84769463068154B9847C5
:10149000009B13F0040F09D1AA2213491348DFF867
:1014A00050B0D8471848D8471348D847009B13F086
:1014B000040F10D10134A7FB04235B0803EB4303A3
:1014C0009C42DFD0019941F002014046C847009B91
:1014D00013F0040FA1D0504603B0BDE8F08F00BF59
:1014E000B901400071184000A87740009071400099
:1014F00041404000B8774000BC714000ABAAAAAAA6
:1015000010004020D8774000F87740007D18400058
:1015100000B583B001A941F20840154B9847E0B9E6
:10152000019941F48071019141F20840114B9847B3
:10153000B0B901A94FF4D0500D4B984798B9019913
:1015400041F4803101914FF4D0500A4B9847002864
:1015500014BF6FF00500002007E06FF0050004E005
:101560006FF0050001E06FF0050003B05DF804FBCB
:10157000711840007D18400010B582B0244B1C68E3
:10158000002C40D119464FF48050224B984718B197
:1015900000221F4B1A6038E001A941F2F4301D4BC4
:1015A000984718B100221A4B1A602EE0184B1B689E
:1015B000194A934206D1019B012B1DD00132144BD5
:1015C0001A6019E0154A934209D1019B032B13D0ED
:1015D000042B0CBF0132124A0D4B1A600CE0114A69
:1015E000934209D10A494FF46C100A4B984718B13D
:1015F0000022074B1A6008E0054A136823F47023A1
:1016000043F4A0231360024B1C68204602B010BDB7
:10161000D808402071184000A0021000B00210004D
:10162000B2021000F00010002DE9F041074641F22F
:101630001405284C284E2846A047002802DB01202C
:10164000B047F8E72548234B984710F0010F10D119
:10165000DFF884801F4E224D0120C0474FF00C1050
:10166000B04704462A4601461E481F4B9847AC42E5
:10167000F2D1022F0AD11D491D481E4CA0474FF43C
:10168000801141F28C00A04700240FE0032F09D104
:1016900016491748174CA047002141F28C00A0477B
:1016A000002403E0042F14BF00248024124B984729
:1016B000C0F30B00B0F5687F0CBF44F00200204679
:1016C0000E4B98470E494FF00C100A4B98470020DC
:1016D000BDE8F08165184000B9014000BC07020078
:1016E0009ED0AD1044784000414040007DD51C3C68
:1016F000AC0702007D18400079154000A51340009A
:10170000612F52EFF0B583B041F28C030193184B77
:1017100000930238C0B2012810D8164B0193A3F1F0
:101720002253A3F51113A3F2E953009306E03846C0
:10173000B0470198A847013C06D113E04FF0FF34B1
:10174000002002270C4E0D4D009B9842EFD1009ACD
:10175000074B9A4209D1002141F28C00084B98476F
:10176000002003E06FF0040000E0002003B0F0BDB3
:1017700036265302AC070200B9014000651840004C
:101780007D184000F0B583B002A9002341F8043D64
:101790004FF4A050244B984748B140F231222349DE
:1017A0002348244CA0472448A0472448A047019937
:1017B00021F4806101914FF4A050214B98470546D8
:1017C00058B140F23722194919481A4CA0471D4810
:1017D000A0471A48A047284624E00A24124E184F72
:1017E00001A94FF4A050B047054658B140F23E223F
:1017F0000E490F480F4CA0471348A0470F48A04779
:1018000028460FE0019911F4806F0AD021F480611D
:1018100001914FF4A050B847631E13F0FF04DFD1CD
:1018200000E0002003B0F0BD711840009C7740003C
:10183000907140004140400054784000BC7140002D
:101840007D184000707840008C78400008B5014B4E
:10185000984708BD2903400008B5014B984708BDCB
:101860001505400008B5014B984708BDB52040005C
:1018700008B5014B984708BDCD20400008B5014B85
:10188000984708BDE52040002DE9F0470746894606
:101890001546134BB3F80080A8F108081FFA88F822
:1018A000424508D80026AAB209EB060138460D4B7E
:1018B0009847034610E044460026DFF828A0424639
:1018C00009EB06013846D047034628B92D1B2644AC
:1018D0002744A542F3D8E6E71846BDE8F08700BFE5
:1018E0000C004020092240002DE9F04707468946B8
:1018F0001546134BB3F80080A8F108081FFA88F8C2
:10190000424508D80026AAB209EB060138460D4B1D
:101910009847034610E044460026DFF828A04246D8
:1019200009EB06013846D047034628B92D1B26444B
:101930002744A542F3D8E6E71846BDE8F08700BF84
:101940000C004020D522400030B583B0044602A9E7
:10195000002341F8043D2348234B98470546019A4C
:10196000224B9A4205D101A941F248001E4B9847EB
:101970000546019B1A0C1112E171C2F30311217289
:1019800002F00F0262721A122271C3F30312627123
:1019900003F00F03A371164B984720602279A379B7
:1019A00003F00F0343EA022263791B01DBB2134306
:1019B000E179627A02F00F0242EA0121227A1201F1
:1019C000D2B20A4341F230318A4288BF6FF00C052F
:1019D00041F22F3293428CBF28466FF00C0003B0C7
:1019E00030BD00BFAC07020071184000C3C15DD715
:1019F0007915400038B530B10478631EDBB2042B92
:101A000028BF012400E0012400201D4B9847054613
:101A100050B14FF492721B491B481C4CA0471C4804
:101A2000A0471C48A04729E01B48184DA8471B4B5E
:101A3000984701461A48A8471648A847194B98479F
:101A40002046194B98470546B0B92046174B984792
:101A5000054688B9023CE4B2012C0FD9144B9847D3
:101A6000054658B14FF4AE7206490748074CA047E7
:101A70001048A0470748A0470F4B9847284638BD55
:101A80004D18400094794000907140004140400062
:101A9000E8784000BC714000647440007915400053
:101AA00004794000FD204000291640000517400041
:101AB00011154000147940005918400038B5194BF1
:101AC000984758B104464FF4BA7217491748184D51
:101AD000A8471848A8471848A84720E00020174BF7
:101AE0009847044650B140F27B120F490F48104D01
:101AF000A8471348A8471048A84710E0114B98473B
:101B0000044650B140F2811207490848084DA847E1
:101B10000D48A8470848A84701E00C4B98472046C5
:101B200038BD00BF85174000A0794000907140008B
:101B30004140400034794000BC714000652B4000BA
:101B4000547940005918400078794000A92040009D
:101B500000B585B0002301930290ADF80C1001A9E7
:101B60000320024B984705B05DF804FB4504400094
:101B7000F0B583B0054600F13B03DBB2012B01D980
:101B8000CF2806D101210DF10700224B98470028EC
:101B90003AD10B2401271F4E39460DF10700B047FB
:101BA00058B140F227121C491C481D4CA0471D4843
:101BB000A0471D48A047002029E09DF80730AB4210
:101BC00005D0631E13F0FF04E6D10B2400E00B24C4
:101BD0000126104D31460DF10700A84758B140F2DB
:101BE00035120D490D480E4CA0470E48A0470E482F
:101BF000A04700200BE09DF807303BB1631E13F0B7
:101C0000FF04E7D1012002E0002000E0012003B042
:101C1000F0BD00BF511B4000C47F400090714000E8
:101C200041404000E87A4000BC7140002DE9F04F8F
:101C300083B08246894693464FF00008354DB9F58A
:101C4000005F94BF0FFA89F74FF400570A2401266A
:101C500031460DF10300A84758B140F257122E4902
:101C60002E482F4CA0472F48A0472F48A0470020C0
:101C70004DE09DF803301B090F2B05D0013C24B229
:101C8000B4F1FF3FE4D101E0002C0DDC40F263121F
:101C900021492248224CA0479DF803102348A04721
:101CA0002148A047002032E0BFB239460AEB0800C5
:101CB000A84758B14FF4B67217491848184CA047B6
:101CC0001B48A0471848A047002020E0BBF1000FA8
:101CD00012D1184B1B787BB9022101A8A84758B133
:101CE00040F277120C490D480D4CA0471248A0470E
:101CF0000D48A04700200AE0B8440FFA88F8C7EB67
:101D000009071FFA87F9B9F1000F98D1012003B034
:101D1000BDE8F08F511B4000B07940009071400049
:101D2000414040001C7B4000BC714000507B4000A3
:101D3000807B4000DC084020B47B400000B585B0CB
:101D4000019000230293ADF80C1001A90320024B6F
:101D5000984705B05DF804FB4504400070B584B0B9
:101D60009DF820408DF80400C1380E2800F2AE80A6
:101D7000DFE800F03E3E5F12232C4D4D7808ACACFE
:101D8000ACAC35000B0C8DF805300B0A8DF8063025
:101D90008DF807100521A4E0C1F3072314B98DF8CD
:101DA000053003E063F07F038DF805308DF80610F1
:101DB00000238DF80730052193E000238DF80530CE
:101DC0008DF806308DF8073005218AE000238DF864
:101DD00005308DF806308DF80730052181E0FF23AE
:101DE0008DF805308DF806308DF80730052178E044
:101DF0000A0C8DF805200A0A8DF806208DF80710C8
:101E00001A0A8DF808208DF80930072169E00A0CBC
:101E10008DF805200A0A8DF806208DF807101A0C97
:101E20008DF808201A0A8DF809208DF80A3008214B
:101E300057E0C1F3072314B98DF8053003E063F0D0
:101E40007F038DF805308DF80610130E8DF80730DE
:101E5000130C8DF80830130A8DF809308DF80A201C
:101E600008213EE00B0C8DF805300B0A8DF806308A
:101E70008DF80710130E8DF80830130C8DF809300B
:101E8000130A8DF80A308DF80B20092129E012F889
:101E9000013B83EA4003E05C9542F8D104AB1E4469
:101EA000430006F80C3C01E00139C9B201A8104B0F
:101EB000984768B14FF484720E490F480F4CA04701
:101EC0000F48A0470F48A04700200FE000200DE07A
:101ED00001200BE04E1E01AB9D197F201A460A4CD3
:101EE000D5E70A4B1B78002BDED1F3E704B070BDB9
:101EF0003D1D4000AC7F40009071400041404000DB
:101F0000EC7B4000BC714000C0794000DC08402000
:101F100070B582B00446312835BF01230023C325A4
:101F2000C925009304230A4601462846164EB047A9
:101F300001280CD040F2EB1214491548154DA84762
:101F400021461548A8471548A84700201AE028460A
:101F5000134B9847012814D040F2F1120B490C485A
:101F60000C4DA84721460F48A8470C48A847002415
:101F70000094234622462146CF20034DA847204601
:101F800000E0012002B070BD5D1D40009C7F40005C
:101F90009071400041404000187C4000BC714000FE
:101FA000711B4000447C40002DE9F04184B00446A0
:101FB0008846B0F5807F35BF01260026C425CA2596
:101FC000009604230022014628462D4FB8470128D9
:101FD0000CD040F245222B492B482C4DA8472146D6
:101FE0002B48A8472B48A847002045E028462A4B05
:101FF0009847012814D040F24B2222492248234D11
:10200000A84721462548A8472248A847002400940D
:10201000234622462146CF20194DA84720462BE0D3
:102020003246042103A81E4B9847012813D040F2E2
:10203000532214491448154CA0471A48A047154884
:10204000A04700240094234622462146CF200C4D71
:10205000A847204610E09DF80D109DF80E201304AF
:1020600043EA01229DF80C3013439DF80F2043EA08
:102070000263C8F80030012004B0BDE8F08100BF61
:102080005D1D4000D07F4000907140004140400005
:102090007C7C4000BC714000711B4000A87C40006B
:1020A0002D1C4000DC7C40000020014B1870704764
:1020B000DC08402000B583B001A9034B9847019884
:1020C00003B05DF804FB00BFA91F400008B5044B36
:1020D000984701280CBF00206FF0050008BD00BF25
:1020E000A91F400008B5044B984701280CBF0020E9
:1020F0006FF0050008BD00BF111F400030B583B070
:10210000002302A941F8083D324A13704EF624001C
:10211000314B9847F0B901222E4B1A7040F2C5227C
:102120002E492F482F4CA0472F48A0472F48A047A3
:1021300069464EF62400284B9847044650B94FF4A0
:10214000327226492648274DA8472948A8472748DC
:10215000A8473CE01F4B1B78CBB9009921F07C01CC
:1021600041F0500100914EF62400224B984704465E
:1021700050B940F2D222194919481A4DA8471E48B1
:10218000A8471A48A84722E00122124B1A7001A959
:102190004FF48050104B984760B94FF437720F4995
:1021A0000F48104CA0471548A0471048A0476FF0B3
:1021B00005040CE04EF62400114B984720F0700106
:1021C00041F050014EF624000E4B98470024204663
:1021D00003B030BDDC084020A91F4000C07A400099
:1021E0009071400041404000FC7C4000BC714000C8
:1021F0004C7D4000111F40007C7D4000B07D4000C0
:10220000B5204000E5204000F0B583B004460F46FD
:102210001546002200922B460146C820234EB047A7
:1022200001280BD04FF41D7221492248224DA847A6
:1022300021462248A8472248A84732E0C820214B1F
:102240009847012812D040F27A22194919481A4DAC
:10225000A84721461C48A8471948A84700210091D3
:102260000B460A46CF20114CA0471AE0002229460F
:102270003846164B9847012811D04FF421720C496B
:102280000C480D4CA0471248A0470D48A04700211C
:1022900000910B460A46CF20044CA04701E00020E5
:1022A00001E06FF0050003B0F0BD00BF5D1D400010
:1022B000DC7A40009071400041404000D87D4000F1
:1022C000BC714000711B4000087E40002D1C400086
:1022D000407E40002DE9F04385B00446884615460F
:1022E000002200922B460146C7204C4EB0470128E1
:1022F0000BD040F20F224A494A484B4DA84721468D
:102300004A48A8474A48A84782E0C720494B98470F
:10231000012812D040F2152241494248424DA847B7
:1023200021464548A8474248A847002100910B464E
:102330000A46CF20394CA0476AE00024ADF80C4093
:102340003E4FDFF810912E46B5F5005F28BF4FF4E1
:1023500000562CB9B5F5005F94BF0323012304E0B8
:10236000B5F5005F94BF0323022363F00F038DF8DC
:102370000B3001210DF10B00B84750B14FF4D4726E
:102380002F492848284CA0472E48A0472848A04756
:1023900028E0314608EB0400B84750B140F2B112D2
:1023A00027492048204CA0472748A0472048A0475D
:1023B00018E099F8003073B9022103A8B84750B16A
:1023C00040F2BB121E491748174CA0471F48A047B0
:1023D0001748A04706E0344424B2AD1BADB2002D2F
:1023E000B1D113E040F226220D490E480E4CA04711
:1023F0001748A0470E48A0470024009423462246D1
:102400002146CF20054DA847204603E0002001E0EB
:102410006FF0050005B0BDE8F08300BF5D1D400012
:10242000B47F40009071400041404000687E400011
:10243000BC714000711B4000987E40003D1D400073
:10244000CC7A4000D07E4000087F40003C7F4000B6
:10245000747F4000DC0840202DE9F84FBDF828408B
:10246000002C47D081460E469246984603012249E9
:10247000CB58002B3ED001EB00139B889BB2002B66
:1024800038D001EB00139B7ADBB2012B32D1F48000
:1024900001EB0017DFF878B0BB88E31A1BB2002B02
:1024A00003DDBD88ADB2002301E025460123396874
:1024B0002A464046D847A8B93B683360B580F388C0
:1024C0005B1BF3800D4B1B682BB10C4B1B6832461A
:1024D000514648469847641BA4B2A844002CDBD15F
:1024E000BDE8F88F0648074DA84721460648A8478B
:1024F0000648A847BDE8F88F180F4020C80F4020B5
:102500006474400041404000E07F4000BC714000E6
:10251000C50B4000F0B599B01446412819D10023ED
:10252000042207A92046A44CA047002840F041817E
:102530009DF81D308DF80C30A04B1B68002B00F06F
:1025400038819E4B1B6803AA01219DF91C00984706
:102550002FE10D46422819D10023042207A9204665
:10256000954CA047002840F024819DF81D308DF83F
:102570000C30924B1B68002B00F01B818F4B1B68AB
:1025800003AA02219DF91C00984712E143283FD17C
:1025900000230C220DEB02012046874CA0470028A7
:1025A00040F007819DF91530002B19DB844A02EBBE
:1025B00003120021D1720121917282490A880132ED
:1025C00092B20A800A8892B21AB90A88013292B28B
:1025D0000A807C4A118889B2794A02EB0312D180C1
:1025E0008DF81C300223ADF82030BDF80E30ADF868
:1025F0002230049B0993714B1B68002B00F0D9809B
:102600006E4B1B6807AA04219DF914009847D0E07F
:10261000442801D04B2824D10023042207A92046B6
:10262000654CA047002840F0C4809DF91C008DF83F
:102630000C009DF91D308DF80D303BB9BDF81E30F2
:10264000083B9BB25E4A02EB001213815B4B1B6896
:10265000002B00F0AE80594B1B6803AA0521984758
:10266000A7E04A2813D10023442207A92046524C50
:10267000A047002840F09D80534B1B68002B00F0C2
:102680009880514B1B68179907A8984791E0A0F1D3
:102690004603DBB2072B4DD8852222FA03F313F051
:1026A000010F47D0482814BF06270927002310220E
:1026B00003A92046404EB04700287AD19DF9180062
:1026C000BDF81A103E4A02EB001200231373BDF945
:1026D00014E0BDF81630BDF80E60ADF82660049E1B
:1026E0000A96D28892B291421BD1BEF1000F0ADD48
:1026F000AE4508DA1FFA8EF2009223443A4607A943
:10270000324CA04755E0ADF820E0002307932B4B57
:102710001B68002B4DD0294B1B6807AA39469847E8
:1027200047E0102D45D90123002211461046224CC6
:10273000A0473EE000F0FD03452B01D04C2823D1FB
:10274000472814BF072508250023082207A920468B
:10275000194CA04700282CD19DF91C00BDF8202061
:10276000BDF81E30ADF80C30154B03EB0013DB88C1
:102770009BB29A421DD1114B1B68D3B10F4B1B6802
:1027800003AA2946984714E0522812D101231422A3
:1027900007A92046084CA04758B90D4B089A1A6063
:1027A0001B6833B10A4B1B689DF82C2009990798C8
:1027B000984719B0F0BD00BFC50B4000C80F4020BE
:1027C000180F4020DE084020D00F40205924400040
:1027D000CC0F402008B50A4B1B7813F0FF0F0ED129
:1027E000B02200210748084B984708490220084BAF
:1027F00098470122024B1A700022064B1A8008BD2E
:10280000DD084020180F40206905400015254000D4
:10281000D50C4000DE084020024B1860024B1960C6
:10282000704700BFC80F4020D00F402070B586B061
:1028300002284BD101294CD002294DD04FF0FF3452
:1028400058E0254600EB04139B7A13F0FF0F36D1B6
:102850002A4800EB0410164610220021284B984706
:10286000264B03EB051301229A72264A1388013383
:102870009BB2138013889BB21BB9138801339BB2A0
:102880001380204B1A8892B21C4B03EB0513DA809D
:1028900064B216F0010F2DD006AA02F8044D174BB2
:1028A00003EB05152123EB720023029301930093A0
:1028B000042350210220144DA8471BE00F48013487
:1028C000E4B28C42BDD34FF0FF3413E04FF0FF343D
:1028D00010E00721002401E00B2107242546074BC7
:1028E00003EB04139B7A13F0FF0FE7D1034800EBCF
:1028F0000410B0E7204606B070BD00BF180F40209E
:1029000069054000DE084020CD064000002838DB85
:10291000002936D01F4B03EB00139B7ADBB2002A51
:1029200032D0012B30D130B589B01A4B03EB0013F4
:10293000DB7A13F0010F07D0164B03EB0013DB7AA1
:102940008DF81D304B2500E0442504468DF81C0011
:10295000082205A8104B98470E4800EB0410C388C6
:10296000ADF81E3000230293019300930C2305AAB7
:1029700029460220094CA047002818BF6FF0080024
:1029800005E06FF0050070476FF00500704709B073
:1029900030BD00BF180F402055054000CD06400057
:1029A00030B589B00C46003118BF0121B2F5AF6FC8
:1029B00088BF0021002936D0002834DB1D4B03EBF3
:1029C00000139B7ADBB2012B30D18DF81000ADF8EB
:1029D0001220184B03EB0013DB88ADF81C300728DE
:1029E000B4BF50254425134B03EB0013DB7A13F0DF
:1029F000010F06D00F4B03EB00100589ADB24C213F
:102A000000E0452102950192009410230DEB030292
:102A100041F080010220084CA04700280CBF002094
:102A20006FF00D0004E06FF0050001E06FF00500AD
:102A300009B030BD180F4020CD064000002918BF56
:102A4000002A45D070B586B00E461546002836DB04
:102A5000214A02EB0012927AD2B2012A32D11E4CE4
:102A60000101621866509580127B12F0FF0F2CD185
:102A700004EB001201211173D27A0A40002A0CBF24
:102A800046214D211BB94FF0FF33049300E004931E
:102A90008DF81400104B03EB0010C388ADF816300E
:102AA0000023029301930093082304AA02200B4CF5
:102AB000A04700280CBF00206FF00D0006E06FF06B
:102AC000050003E06FF0050000E0002006B070BDD7
:102AD0006FF00500704700BF180F4020CD06400082
:102AE00030B587B000282EDB1B4B03EB00139B7A1D
:102AF000DBB2012B2AD104468DF81400164B03EBF0
:102B00000013DA88ADF8162000229A72DA80DB7A98
:102B100003F0010393420292019200924FF00403EA
:102B200005AA0CBF49214E2102200C4DA847051EC5
:102B300018BF6FF0080510220021074800EB0410B1
:102B4000074B984704E06FF0050501E06FF00505BD
:102B5000284607B030BD00BF180F4020CD0640000A
:102B60006905400070B582B005462B4B9847C0F30D
:102B70000B00B0F5687F4AD301A941F21040274B02
:102B800098470446002843D1254B019A1340254914
:102B90001943019141F21040234B9847B5B10021F0
:102BA0002248214DA847AB212148A84701212148AF
:102BB000A84700212048A84781212048A847204E47
:102BC000204D3046A8470128FBD115E000211748C9
:102BD000154DA847B9211648A84701211548A8470F
:102BE00000211548A84781211448A847144E154DC7
:102BF0003046A8470128FBD10949019B194041F4FF
:102C00008031019141F21040074B984700E00024C9
:102C1000204602B070BD00BF791540007118400019
:102C2000FF8F88F8001011017D1840000802010094
:102C30000C020100140201001C0201000402010048
:102C4000180201006518400010B51048104B984755
:102C50003E2100200F4B98470F4CA0470028FCD086
:102C60000E4B98470E4A0F4B9A620F4CA047002814
:102C7000FCD002200D4B984700200D4B98470D4B80
:102C800098470248024B984710BD00BF00A3E111CE
:102C9000FD38400089334000DD334000ED33400013
:102CA000013F182000060E40FD334000E532400091
:102CB00021334000ED37400090B92DE9F0410C463A
:102CC0009046002A0FDD8F18084E094D30682146C6
:102CD0002B6898470134A742F8D14046BDE8F081FF
:102CE0004FF0FF3070470020BDE8F081DC0F40203E
:102CF000D40F40200138022815D82DE9F0410E46A6
:102D000014469AB10D46DFF838800C4FD8F8000011
:102D100015F8011B3B68984700280ADBA81B013CFB
:102D2000F4D1BDE8F0814FF0FF3070470020BDE8DE
:102D3000F0814FF0FF30BDE8F08100BFD80F402098
:102D4000DC0F4020F8B54FF40042574B5A60BFF3F8
:102D50004F8FBFF36F8F554B0022C3F850225A6933
:102D600042F400325A61BFF34F8FBFF36F8FD3F835
:102D70008060C6F34E3506F007070437C6F3C90670
:102D8000B6FA86F000F01F00BFF34F8F1C463346A3
:102D900005FA07F103FA00F20A43C4F86022013B86
:102DA000B3F1FF3FF6D1013DB5F1FF3FEFD1BFF3E6
:102DB0004F8F3E4B5A6942F480325A61BFF34F8FB6
:102DC000BFF36F8F3A4A3B495160A1F58071516062
:102DD000BFF34F8FBFF36F8FD3F8902222F0010221
:102DE000C3F89022D3F8942222F00102C3F894226F
:102DF000BFF34F8FBFF36F8F0A202F4CA0470B20DC
:102E0000A0470C20A0471020A0471120A0472B4B23
:102E10004FF480721A61C3F8A0201A63A3F580638F
:102E20004FF400625A61C3F8A0205A66C3F890209C
:102E30005A651A62C3F88420196F21F4006119677A
:102E4000596F21F400615967C3F8C020C3F8D4203A
:102E5000C3F8B0204FF400121A66C3F890205A65E8
:102E60005A62C3F88020196F21F400111967596F55
:102E700021F4001159675A60114AD2F8143143F015
:102E80001003C2F814310F4B10221A66C3F89020B9
:102E90005A655A62C3F88020196F11431967596F38
:102EA000114359675A60F8BD50180E4000ED00E01C
:102EB000000C0E400C08005A0D34400000120E4069
:102EC0000080084000100E400AB14166704701665C
:102ED000704700BF4264B1F1C05F2FD007D8B1F195
:102EE000006F14D0B1F1805F1ED039B97047B1F1D5
:102EF000205F37D004D8B1F1005F29D0426070471D
:102F0000B1F1405F2ED0B1F1605F2BD0F6E710B485
:102F1000046F016FD343214019400167446F416F33
:102F200021400B4043671AE0036F13430367416F6F
:102F3000436F0B4023EA02034367DFE7016F036F30
:102F40000B4023EA02030367436F13434367D5E74C
:102F5000036F13430367436F13434367CEE7426036
:102F60005DF8044B704700BF416412F0010F01D0BF
:102F7000416600E0016612F00A0F01D0016200E034
:102F8000416212F0020F02D0C0F8801004E012F08B
:102F9000080F01D0C0F8841041610160704700BF84
:102FA00010B44164019C0CB1416600E001660BB1B4
:102FB000016500E041650AB1016300E04163016120
:102FC00001605DF8044B704712F0100F12D0C0F88A
:102FD000B01012F0200F02D0C0F8D41001E0C0F8F9
:102FE000D01012F0400F02D0C0F8C0107047C0F8E7
:102FF000C4107047C0F8B410704700BF0164704738
:1030000041647047C06C7047806C704770B582B087
:103010000D46474C04EB5014640201F0F043B3F149
:10302000005F4DD009D8B3F1805F23D0B3F1C05F0A
:1030300033D0B3F1006F77D109E0B3F1405F5DD0D9
:10304000B3F1605F5AD0B3F1205F4CD06CE000F078
:103050001F000126864032464FF000612046354B66
:10306000984715F0010F02D0666601205DE02666E4
:1030700001205AE000F01F000126864032464FF042
:10308000805120462B4B984715F0010F02D0666601
:1030900001204AE02666012047E000F01F000126DB
:1030A000864032464FF0C0512046224B984715F0DB
:1030B000010F02D06666012037E02666012034E069
:1030C00000F01F000126864032464FF00051204696
:1030D000184B984715F0010F02D06666012024E0D6
:1030E0002666012021E000F01F0101262A4606FA8B
:1030F00001F12046104B9847304616E005F060522B
:1031000000F01F01012605EA06030093C5F38003C2
:10311000B2F1605F14BF0022012206FA01F12046DD
:10312000064CA047304600E0002002B070BD00BF52
:1031300007072000D52E4000692F4000A12F400036
:103140002DE9F041044688460E4B98470546204637
:103150000D4B9847054013D00C4C04F160062368D2
:10316000434508D16168294205D0E3684046984745
:10317000636825EA0305B44202D01034002DEED175
:10318000BDE8F0810530400009304000E4084020EF
:10319000F8B5174C2668062E28D84FF0000C644668
:1031A000144FA64625017D598D4204D107EB041525
:1031B0006D68954204D00134E4B2A446A642F0D230
:1031C0000C4D4FEA0E1E05EB0E0445F80E10626022
:1031D000A3600699E1600136664501D104490E609D
:1031E00011461A46044B98470020F8BD0120F8BD4F
:1031F000E0084020E4084020C92F400008B50A211B
:103200000148024B984708BD000E0E404131400076
:1032100008B50B210148024B984708BD00100E402D
:103220004131400008B50C210148024B984708BDC8
:1032300000120E404131400008B510210148024BF8
:10324000984708BD00140E404131400008B51121D7
:103250000148024B984708BD00160E40413140001E
:10326000F8B506460D461446174B984707464FF0EB
:10327000FF313046154B98473046154B98475FFA5B
:1032800085FE0EF01F03012202FA03F368091149BB
:1032900001EB8002C2F88030C2F88031002D07DADD
:1032A0000EF00F0E6401E4B20B4A02F80E4003E088
:1032B0006401E4B2094A545541F820303946304699
:1032C000074B9847F8BD00BF09304000013040006F
:1032D0000530400000E100E014ED00E000E400E013
:1032E000FD2F4000032807D0042808D002280CBF77
:1032F0004FF48072002204E04FF4407201E04FF47A
:10330000007206490B6B23F4407313430B630A46A8
:10331000936E13F0080FFBD0704700BF00060E40FD
:10332000184A136B23F0700318431063936E13F065
:10333000080F03D009E0013B03D11EE04FF4805396
:1033400010498A6E12F0080FF5D00E4A136B23F065
:10335000030343F002031363906E10F0080004D0DF
:1033600000207047013B03D109E04FF48053054929
:103370008A6E12F0080FF5D07047012070470120C7
:10338000704700BF00060E4038B10E490B6A0E4A66
:103390001A400E4B13430B6270470A48036A090236
:1033A00089B20B4A1A400B4B134319430162024680
:1033B000936E13F0010FFBD0024A116A064B0B43C8
:1033C0001362704700060E40FCFFC8FE0200370182
:1033D000FCFFC8FF0100370000003701024B986E68
:1033E00000F48030704700BF00060E404FF00052DE
:1033F000014B9A62704700BF00060E40024B986E68
:1034000000F00200704700BF00060E403F281ED8A3
:103410001F280CD8114B9A6901238340934318D07D
:10342000012303FA00F00D4B18610020704720388B
:103430000A4BD3F808210123834093430BD0012387
:1034400003FA00F0054BC3F800010020704701208B
:103450007047002070470020704700BF00060E40F4
:1034600008B5074B984203D11520064B984708BD75
:10347000054B984202D12A20024B984708BD00BF55
:10348000008000400D34400000800540436823F474
:10349000702343604368090401F470210B434360C7
:1034A000704700BF10B443F6992301E0013B0ED0F2
:1034B000046914F0010FF9D08368406810F0020F1E
:1034C00002D0C3F3034010700B80002000E0012005
:1034D0005DF8044B704700BF30B443F6992401E017
:1034E000013C11D0056915F0020FF9D0446814F0C1
:1034F000020F06D0120402F4702211430BB141F006
:103500008071C160002000E0012030BC704700BF26
:1035100032B100EB8100036B43F00103036370479A
:1035200000EB8100036B23F001030363704700BFCE
:1035300032B100EB8100036B43F002030363704779
:1035400000EB8100036B23F002030363704700BFAD
:1035500000EB81010B6B23F0F0030B630B6B1A4341
:103560000A637047431E1944B1FBF0F0431EFE2B63
:1035700094BF00B24FF0FF30704700BF6AB110B483
:10358000144600EB81010B6B23F47F430B630A6B42
:1035900042EA04220A63002002E04FF0FF30704745
:1035A0005DF8044B704700BF10B400EB8101086B5D
:1035B00080B208630C6B44EA036343EA02420A6385
:1035C0005DF8044B704700BF436913F0020F02D04F
:1035D000C161002070470120704700BF436913F0AC
:1035E000010F03D083690B700020704701207047E2
:1035F00010B40C0194420FD91AE0416841F4002143
:103600004160120402F4E0221A43026200201CE02E
:1036100001201AE0012018E0630803EBC202B2FBAC
:10362000F4F2D3085C1E4FF6FE718C42E9D9EFE745
:10363000C9004B0803EBC202B2FBF1F2D3085C1ED7
:103640004FF6FE718C42E5D8D7E75DF8044B704722
:10365000084BC0F8E4300023436043628362882350
:103660000360242303604FF4807303604FF400234E
:10367000036070470041535570B505460C46164629
:103680000F4B984700220F4B1A609CB132462168BD
:1036900028460D4B9847024670B96168A3681943E4
:1036A00023691943E3680B4306490B6069680B43C0
:1036B0006B6002E0012200E00122104670BD00BFF5
:1036C0005136400054094020F1354000402303604A
:1036D000704700BF10230360704700BF436913F0B9
:1036E000020F04D0C1F30801C1610020704701201E
:1036F000704700BF436913F0010F05D08369C3F31E
:1037000008030B600020704701207047FEE700BFF0
:1037100000B583B0274B284A9A4203D0274B254A4D
:103720009A4204D3264B274A9A420FD31AE02149E2
:10373000254B5B1A23F0030304331F4A134452F84A
:10374000040B41F8040B9A42F9D1EBE71F4B204AD6
:10375000D21A22F003021A44043B002143F8041B4E
:103760009342FBD11B4A1C4B23F07F039360EFF382
:103770001083B3FA83F35B09019372B6BFF35F8FD3
:103780000022164B1A700199154A136843F470030E
:103790001360BFF34F8FBFF36F8F29B101220F4B1F
:1037A0001A70BFF35F8F62B60E4B98470E4B984767
:1037B000FEE700BF0000402014844000880840203D
:1037C000EC0F402088084020870840208C084020CB
:1037D000EF0F402000ED00E000004000140040200A
:1037E00088ED00E0F13F4000293E40003C4B1B6B60
:1037F00003F00303012B0FD013B1022B29D057E0A4
:10380000384B5B6913F0800F14BF4FF400424FF444
:10381000FA42354B1A604BE0314B1B6A13F0807F44
:1038200003D0324A304B1A6042E0314A2E4B1A60C4
:103830002B4B1B6A03F07003102B02D0202B04D0FB
:1038400036E02C4A284B1A6032E0284A264B1A6090
:103850002EE0234B1B6A13F0807F03D0234A224BB8
:103860001A6012E0224A204B1A601D4B1B6A03F0BB
:103870007003102B02D0202B04D006E01D4A1A4BF7
:103880001A6002E0194A184B1A60154B1B6B03F0C3
:103890000303022B0CD1124A936A926A1248C3F3B3
:1038A0000A41036801FB0333D2B2B3FBF2F30360B6
:1038B0000B4B1B6B03F07003702B07D10A4A136884
:1038C0000D49A1FB03135B0813607047044B1B6B8E
:1038D0000549C3F302120B68D3400B60704700BF69
:1038E00000060E4010180E4018004020001BB700C4
:1038F00000093D0000127A00ABAAAAAA124B984216
:1039000004D84FF08062114B1A607047104B9842F8
:1039100003D8104A0D4B1A6070470F4B984203D8DA
:103920000E4A0A4B1A6070470D4B984203D80D4A55
:10393000064B1A6070470C4B984294BF4FF004221C
:103940000A4A024B1A607047FF2C3101000C0E40EE
:10395000FF59620200010004FF8693030002000485
:10396000FFB3C40400030004FFE0F50500050004F4
:10397000094B1B6813B9094A074B1A60064B1B68B1
:103980001A180749914204DB1046034A1060184692
:1039900070474FF0FF30704758094020F031402009
:1039A000FCFF45204FF0FF30704700BF4FF400533D
:1039B0004B600020704700BF012070470020704717
:1039C00010B582B0074B19600B0E0193C1F307438A
:1039D0000093C1F30723CAB201460348034CA04732
:1039E00002B010BDDC0E40203C8040004140400051
:1039F0002DE9F843554B93F90030834240F0A38002
:103A00001446052903D006294ED0BDE8F883504B53
:103A10001B78002B00F097804E4D4FF4AF620021D1
:103A200028464D4B98474D4E0FCE0FC50FCE0FC5B4
:103A300096E8030045F8040B297034B394F901307B
:103A4000002B22DB434C21464548464DA8472046E3
:103A5000454B98473D4E002382B2214696F900001F
:103A6000424FB8474FF4AF673A46002120463A4BE1
:103A7000984700233A46214696F900003C4EB0474D
:103A800021463C48A847BDE8F8833B48354B98475A
:103A900000222F4B1A702D4C94F90000374B984799
:103AA000FF232370BDE8F883002A42D0B2F9043026
:103AB000002B3EDD10682B4B9847B4F90430002BE7
:103AC00021DD00252E4EDFF8D0802E4F23685A5D71
:103AD000242A13D12B445B79337023682B449B79C0
:103AE00073700023B3703046C047387031462648A3
:103AF000DFF87090C84739782448C8470135B4F9D1
:103B00000430AB42E2DC224B1B7853B94FF4AF6276
:103B100010490E4890F90000154CA04701221C4B9B
:103B20001A704FF4AF6200210A480B4B9847BDE86A
:103B3000F88318480B4B9847044C94F900000F4B3E
:103B40009847FF232370BDE8F88300BF1C00402086
:103B5000D80E402060094020694040006C80400041
:103B6000948040004140400081424000A129400033
:103B70003D2A4000A0804000A4804000E12A40008F
:103B8000E00F4020E70F4020C0804000D080400080
:103B90005C094020E0804000E93F400010B582B061
:103BA0002C2802D0322811D01CE00B78012B05D133
:103BB0000D480E4B98470E4B984713E093B90D48AC
:103BC0000A4B984700220C4B1A700BE08B784A780E
:103BD0000878C978009101460848044CA0470122A2
:103BE000054B1A7002B010BDFC80400041404000FF
:103BF000A11340001C814000D90E402040814000AC
:103C0000F0B583B005460C4600230193294B98423A
:103C100007D11F46284E21463846B0470028FAD122
:103C200015E0264B984207D11F46234E21463846C1
:103C3000B0470028FAD115E0214B984207D11F4622
:103C40001D4E21463846B0470028FAD117E01D4BDB
:103C50009D4207D11F46184E21463846B0470028DE
:103C6000FAD119E0184B9D4209D11E46174D01A902
:103C70003046A8470028FAD1019B237018E0144B66
:103C80009D4209D11E46114D01A93046A847002882
:103C9000FAD1019B23700BE00E4B9D4208D11E46CA
:103CA0000A4D01A93046A8470028FAD1019B23708C
:103CB00003B0F0BD00080E40DD354000000A0E40A4
:103CC000001A0E40001C0E4000400240F536400035
:103CD0000080024000C0024070B50C462A4B98425A
:103CE00008D11E46294D21463046A8470028FAD162
:103CF000012070BD264B984208D11E46234D214617
:103D00003046A8470028FAD1012070BD214B9842C7
:103D100008D11E461D4D21463046A8470028FAD13D
:103D2000012070BD1C4B984208D11E46174D2146FC
:103D30003046A8470028FAD1012070BD174B9842A1
:103D400008D11E46164D21463046A8470028FAD114
:103D5000012070BD134B984208D11E46104D2146DC
:103D60003046A8470028FAD1012070BD0E4B98427A
:103D700008D11E460A4D21463046A8470028FAD1F0
:103D8000012070BD002070BD00080E40C935400004
:103D9000000A0E40001A0E40001C0E400040024077
:103DA000DD3640000080024000C00240F0B401381F
:103DB000002422462546264610F8013F2E2B0BD024
:103DC00001D863B127E0A3F13007092F23D802EB14
:103DD000820207EB420207E00135032D1DDCFF2ABA
:103DE0001DD842EA04243246002BE5D1022D03DC23
:103DF000C5F10303DB009C4099B1220E42EA046244
:103E0000230203F47F031A43230A03F47F4313437B
:103E10000B60012006E0002004E0002002E000200A
:103E200000E00120F0BC704770B592B0474B984756
:103E3000474B98470E20474EB047474D474B1D60B4
:103E4000474A484B1A60484A484B1A604FF4E133DE
:103E50000293C02303934FF400630493002405945A
:103E600006940E20B047424A02A92846414B984783
:103E70002846414B98472846404B9847404E336868
:103E8000214698683F4DA847336821465868A8479F
:103E90003D483E4B98473E4B98470D940E940F94E7
:103EA000109411943B4B0C930CA83B4B984720B1BA
:103EB00001463A48354B9847FEE7394B9847394910
:103EC00039483A4B9847FF230093394B02220A2185
:103ED0003848394CA047394D394C3A4E0020A84754
:103EE0002378002BFAD03378002BF7D1364B93F997
:103EF0000030002B0CDA002201210220334B9847BE
:103F0000314B1870002803DA3148204B9847E5E719
:103F100009A93048304B9847099930481B4B9847BE
:103F20000223ADF8203048F61303ADF822301022FA
:103F300008A9254B93F90000294B984718B1294847
:103F4000124B9847CAE701233370C7E7492C40005A
:103F5000452D40000D34400000800240DC0F402021
:103F6000D93C4000D80F4020013C4000D40F4020F5
:103F700080D1F00879364000CD364000D53640007B
:103F80004804402005414000688140004140400015
:103F9000110240009D3B400039104000CC814000A0
:103FA000D5274000C1394000F139400019284000B0
:103FB000F48140000082400085134000351140002C
:103FC000D90E4020D80E40201C0040202D28400053
:103FD0000C82400040824000AD3D400050824000D5
:103FE0000D294000648240000A22002100F04ABAF4
:103FF00070B50F4E0F4D761BB61018BF002405D0BC
:10400000013455F8043B9847A642F9D10A4E0B4DAE
:10401000761B04F0E9F9B61018BF002406D001346D
:1040200055F8043B9847A642F9D170BD70BD00BF5A
:10403000F4834000F4834000FC834000F48340009C
:104040000FB400B5074983B004AB086853F8042BDC
:104050008168019300F05EFA03B05DF804EB04B0F0
:10406000704700BF4804402070B4840746D0541EF7
:10407000002A41D0CDB2034602E0621EE4B31446EA
:1040800003F8015B9A07F8D1032C2ED9CDB245EA8B
:1040900005250F2C45EA054519D903F110022646DE
:1040A000103E0F2E42F8105C42F80C5C42F8085C9F
:1040B00042F8045C02F11002F2D8A4F1100222F0DE
:1040C0000F0204F00F041032032C13440DD91E46C6
:1040D0002246043A032A46F8045BFAD8221F22F04B
:1040E00003020432134404F003042CB1C9B21C448B
:1040F00003F8011BA342FBD170BC70471446034672
:10410000C2E700BF00290CBF022200224FF48063E7
:1041100000F000B82DE9F043514C256883B0044607
:104120000F4690461E4615B1AB6B002B79D0B8F107
:10413000020F04D0B8F1010F7FD8002E7DDB21469D
:10414000284601F033FA216B41B104F14003994252
:1041500002D0284601F088FB00232363B4F90C3019
:104160000022A26162601A0654D423F44A6323F049
:104170000303B8F1020FA38139D001AB6A4621468F
:10418000284601F00FFEA3891843A08126B327B368
:10419000AB6B002B4DD0009BB4F90C0027609E4206
:1041A0001CBF40F40060A081B8F1010F08BF40F0CF
:1041B000010083B208BFA08103F0080080B227612C
:1041C000666118B313F001002FD000207642A6617B
:1041D000A06003B0BDE8F083009E304601F056FEBB
:1041E000074668B3A38943F08003A381D0E700208A
:1041F00004F1430243F0020300250121A381A560DD
:1042000022602261616103B0BDE8F083A06003B069
:10421000BDE8F0832169284601F026FBB4F90C3093
:10422000A3E7284601F056FA81E7A66003B0BDE88F
:10423000F083284601F04EFAADE74FF0FF30E2E799
:10424000DDF80090B14506D0484601F01FFE074654
:1042500008B14E46C6E7B4F90C304FF0FF30C7E75F
:1042600048044020000000000000000000000000A2
:10427000000000000000000000000000000000003E
:1042800090F800F06DE9024520F007016FF0000C96
:1042900010F0070491F820F040F049804FF000043E
:1042A0006FF00700D1E9002391F840F000F1080019
:1042B00082FA4CF2A4FA8CF283FA4CF3A2FA8CF351
:1042C0004BBBD1E9022382FA4CF200F10800A4FAB8
:1042D0008CF283FA4CF3A2FA8CF3E3B9D1E904230C
:1042E00082FA4CF200F10800A4FA8CF283FA4CF343
:1042F000A2FA8CF37BB9D1E9062301F1200182FAFD
:104300004CF200F10800A4FA8CF283FA4CF3A2FA02
:104310008CF3002BC6D0002A04BF04301A4612BA10
:10432000B2FA82F2FDE8024500EBD2007047D1E913
:10433000002304F00305C4F100004FEAC50514F0A2
:10434000040F91F840F00CFA05F562EA05021CBF73
:1043500063EA050362464FF00004A9E72DE9F04F38
:10436000474C83460E46D4F800E000E0264634462B
:1043700014F8015B0EEB0500407800F0080000F037
:10438000FF080028F2D12D2D5CD02B2D04BF7578AD
:10439000B41C002B3ED0102B60D09A46B8F1000F11
:1043A0000CBF6FF000404FF000400027B0FBFAF95F
:1043B000BC460AFB19000CE0303DAB4219DD7E1C07
:1043C00005D0CC4523D820D00AFB0C5C012714F87B
:1043D000015B0EEB0506767816F0040FECD116F0B3
:1043E000030606D0012E14BF57263726AD1BAB425D
:1043F000E5DC7B1C16D0B8F1000F10D16046002A16
:1044000039D0DFB91160BDE8F08F8542DCDD4FF0B7
:10441000FF37DCE7302D1AD00A239A46BEE7CCF1ED
:10442000000CEBE7B8F1000F4FF022030CBF6FF068
:1044300000404FF00040CBF80030F2B1611E116037
:10444000BDE8F08FB41C75784FF00108A1E7237820
:1044500003F0DF03582B08D008239EE7302D9CD1B2
:10446000207800F0DF00582897D14FF0100A6578C7
:104470005346023492E7BDE8F08FBDE8F08F00BFED
:104480004C04402010B4044C13460A4601462068F0
:1044900010BCFFF763BF00BF480440204B6E2DE9FE
:1044A000F0479C0492462CD5936812683BB30F46A4
:1044B000804602F1080919E96000B60817D0043DEA
:1044C000002401E0A64210D03A4655F8041F4046A9
:1044D00001F06AF9431C04F10104F3D10023CAF886
:1044E0000830CAF80430BDE8F087DAF80830A3EBEA
:1044F0008603CAF8083009F10809002BDBD1002037
:10450000ECE701F099FA0023CAF80830CAF8043041
:10451000BDE8F0872DE9F04FABB01C460091904606
:104520000493059018B1836B002B00F0DE80009897
:10453000B0F90C108AB2950407D4436E41F40052CE
:1045400023F400538281436692B2110740F1B18097
:10455000009B1B69002B00F0AC8002F01A020A2AB3
:1045600000F0B58000230DF1680B02930F930E93BA
:10457000CDF834B0DA4698F800304446FBB1252B2C
:1045800002D11CE0252B03D014F8013F002BF9D1F8
:10459000C8EB04059DB10E9B0F9ACAF80080013349
:1045A0002A44072BCAF804500F920E937BDD002A91
:1045B00040F02885029B0E922B44DA460293237822
:1045C000002B00F03E8400214FF000034FF0FF323B
:1045D0008DF82F3004F101086378019208460E46E9
:1045E0000C4608F10108A3F12002582A00F2938337
:1045F000DFE812F04603910391034E039103910308
:104600009103910391039103890267029103800052
:104610006C029103C601590259025902590259020A
:1046200059025902590259029103910391039103CE
:10463000910391039103910391039103CB019103A2
:1046400091039103910391039103910391039103CA
:104650009103140291039103910391039103EE02DC
:10466000910391031103910391039103910391032A
:104670009103910391039103910334038A039103FE
:104680009103910367038A03910391036C039103E0
:10469000790395028500E90291039B029103BA0216
:1046A0009103910353030AF1080A029B2B440293DE
:1046B00085E70099059800F061FE002840F05885D4
:1046C000009B9A8902F01A020A2A7FF44BAF0099E4
:1046D000B1F90E30002BFFF645AF23464246059850
:1046E00000F016FE2BB0BDE8F08F00F0F3FF1EE7E0
:1046F0006442049346F0040698F8003071E73021D4
:1047000004988DF83010019906944FF00003782238
:104710008DF82F30002903468DF83120046803F10D
:1047200004034FF0000546F00202C0F2258526F092
:10473000800654EA050246F00206049340F0BF8466
:10474000B348019B002B40F01C8499460023019341
:1047500003935F46019B039A9342B8BF13461D46DD
:10476000B9F1000F00D0013516F00203079318BF0E
:10477000023516F08403089340F0F182069B5C1B1F
:10478000002C40F3EC82102C40F35685DFF8849225
:10479000DDF838E00F9AD4461023C2467046A8468A
:1047A0004D46DDF8149007E000F1020E0CF1080C04
:1047B0000846103C102C13DD411C103207290F92C3
:1047C000CCF80050CCF804300E91EDDD002A40F01A
:1047D000B782103C102C10464FF0010EDC46EBDC8B
:1047E000A94670464546D046E246224407280F9225
:1047F000CAF80090CAF804400E9000F375839DF843
:104800002F300AF1080A00F1010E002B40F0B082AF
:10481000079B002B00F0C38202320CA90223BEF1D9
:10482000070F0F92CDF838E08AE80A0040F378834A
:10483000002A40F00A84089B802B4FF0010E10469E
:10484000DA4640F0B082069B5C1B002C40F3AB8242
:10485000102CDFF8C49140F30B85D6461023C246D6
:10486000A8464D46DDF8149007E000F1020C0EF169
:10487000080E0846103C102C13DD411C103207298D
:104880000F92CEF80050CEF804300E91EDDD002AE4
:1048900040F01583103C102C4FF0010C1046DE4602
:1048A000EBDCA9464546D046F2462244BCF1070F50
:1048B0000F92CAF80090CAF80440CDF838C000F34F
:1048C000D283019B03995C1A002C0AF1080A0CF1AF
:1048D000010E604600F36D820399CAF800700A4425
:1048E000BEF1070F0F92CAF80410CDF838E040F37C
:1048F000CE82002A40F03A8370070E9238D5069B8C
:104900005C1B002C34DDDA46102C40F3AB84DFF85E
:1049100004910E994F461026DDF8149006E0881C8D
:104920000AF1080A1946103C102C13DD4B1C1032FA
:10493000072B0F92CAF80070CAF804600E93EEDDE0
:10494000002A40F08E82103C102C4FF001001146DE
:10495000DA46EBDCB946224407280F92CAF80090E9
:10496000CAF804400E9040F39B82002A40F0258450
:10497000029B069AAA42ACBF9B185B19029399E26C
:1049800046F0800698F800302BE60694002940F0A7
:10499000AF8446F01006B30640F112830499073144
:1049A00021F00701D1E900230831049114461D4686
:1049B000002A73F10003C0F28683019B9DF82F90BB
:1049C000002BC0F21A8354EA050326F0800600F09B
:1049D000ED80002D08BF0A2CC0F0ED805F46204618
:1049E00029460A22002302F047FA303207F8012D47
:1049F0002046294600230A2202F03EFA04460D46CC
:104A000054EA0503EBD1C7EB0B030393A2E600BF07
:104A1000B8824000D482400094824000069400296D
:104A200040F0628446F0100616F0200300F0AE82DB
:104A3000049B073323F007034FF000028DF82F206B
:104A4000D3E9004503F10802019B0492002BC0F258
:104A5000748154EA050326F0800640F06E81019BC4
:104A6000002B00F030844FF00009002400255F4641
:104A7000E20842EA4572E90804F007030D461446CD
:104A8000303354EA050207F8013DF1D1F407BAD5F5
:104A9000302BB8D030227B1E07F8012CC3EB0B0261
:104AA00003921F4656E6A3F13002002418F8013B9A
:104AB00004EB840402EB4404A3F13002092AF5D983
:104AC00091E598F8003001212B208AE598F8003014
:104AD0002A2B08F1010500F0DD83A3F13002092A39
:104AE000A84698BF002500F2CE8318F8013B05EBDD
:104AF000850502EB4505A3F13002092AF5D945EAFF
:104B0000E57201926FE5049A14681346002C03F1D4
:104B10000403FFF6EDAD049398F8003061E50694C8
:104B2000002981D08DF82F007EE7049A069417683B
:104B30004FF000038DF82F30141D019B002F00F063
:104B40008683002BC0F25F831A460021384601F0AD
:104B50005FFC002800F08F83C31B039300230494A1
:104B60009DF82F900193F5E50694002940F0B98354
:104B700016F0200935D116F0100303D116F04009C4
:104B800040F02A83049A13461468019A8DF82F90F6
:104B9000002A03F104034FF00005C0F2328354EA07
:104BA000050226F0800604937FF413AF019B002BCF
:104BB0003FF4CCAD00242AAF303407F8414DC7EBA9
:104BC0000B030393C6E546F0200698F8003008E58D
:104BD0000694002940F06E8346F0100616F0200976
:104BE000C9D0049B073323F007034FF000028DF870
:104BF0002F20D3E9004503F10802019B0492002B0A
:104C0000C0F2F98154EA050326F080064FF000094E
:104C10007FF4DFAECAE70694002940F05183B20664
:104C2000AE4841D5049A073222F00702D2E9004586
:104C300002F10801049116F0010900F0778154EAAD
:104C4000050240F026824FF000038DF82F30019BC3
:104C5000002BC0F2968126F0800672E5049A069435
:104C600013688DF8403013464FF0000101250433DE
:104C70008DF82F100493039510AF0023019373E573
:104C800098F8003000287FF4ACAC01212020A8E483
:104C900046F0010698F80030A3E40694002940F09D
:104CA0000C83B2068E48BDD40499F7060A4600F17B
:104CB0009D81750640F19A8104320C88049200258A
:104CC000B9E746F0400698F800308AE498F80030DA
:104CD0006C2B03BF98F8013046F0200608F101085C
:104CE00046F010067DE4002940F00983B40640F147
:104CF0001C82049A02991368CD170846043229468B
:104D00000492C3E9000136E4069400293FF443AE5F
:104D10008DF82F003FE60694002940F0ED82002B2D
:104D200000F08F8001258DF840304FF000038DF8A2
:104D30002F30039510AFA0E704934FF0000996E6DB
:104D40000DAA009909934846FFF7A8FB00287FD1D8
:104D50000E980F9A099B00F1010EDC4629E50E988A
:104D60000F9A00F1010E9DF82F30002B3FF450AD4B
:104D700001320DF12F010123BEF1070F0F92CDF883
:104D800038E08AE80A0040F3BF80002A40F04E81F4
:104D90000799002940F0BE809E461046DA46089BDF
:104DA000802B3FF450AD019B03995C1A002C7FF7D8
:104DB00093AD102CDFF82C9125DDD4461023C2468C
:104DC000A8464D46DDF8149007E000F1020E0CF104
:104DD000080C0846103C102C11DD411C103207292C
:104DE0000F92CCF80050CCF804300E91EDDDD2B922
:104DF000103C102C4FF0010E1046DC46EDDCA946AD
:104E00004546D046E2462244BEF1070F0F92CAF84B
:104E10000090CAF80440CDF838E02EDC0AF1080A08
:104E20000EF1010E58E50DAA009901934846FFF7CF
:104E300035FB68B90E980F9A019B00F1010EDC4614
:104E4000C8E70F9B23B1059800990DAAFFF726FB31
:104E5000009B9B895A0600F18B8102982BB0BDE81C
:104E6000F08F0DAA00994846FFF718FB0028EFD1F4
:104E70000E990F9A481CDA4655E5002A40F0FB804F
:104E8000039A1B9201230F921A970E93DA460AF1A6
:104E9000080A710704D5069B5C1B002C3FF734AD54
:104EA000029B0699A942ACBF5B185B190293002ACA
:104EB00040F0B38000230E93DA46FFF75CBB0DAAE7
:104EC000009907934846FFF7E9FA0028C0D10E98E9
:104ED0000F9A079B00F1010CDE46CBE4A482400050
:104EE000B882400094824000002A40F033819DF84F
:104EF0002F30002B00F0F58001230DF12F011A4611
:104F00001B939E461A91DA4670460AF1080A0EF182
:104F1000010E7DE40CA902229E461A911B92DA46EC
:104F200070460AF1080A0EF1010E38E7019B8DF870
:104F30002F90002BC0F22A8154EA050326F0800648
:104F40003FF4FFAB5F46230904F00F0143EA05730A
:104F50002A091C461546435C07F8013D54EA05033F
:104F6000F1D1C7EB0B030393FFF7F4BB0DAA009934
:104F70000598FFF793FA00287FF46AAF0F9ADA4694
:104F800087E74FF0000900240025DBE716F0100248
:104F900000F0B28004998DF82F300A460C68019910
:104FA000002902F104024FF00005C0F2598154EAD1
:104FB000050126F0800604923FF451AD994656E56E
:104FC000F7060AD4750608D50499B1F900400431F2
:104FD000E51722462B460491EAE4049A1468134626
:104FE0000433E517049322462B46E1E414680432A7
:104FF000049200251FE64FF0000954EA05037FF4F0
:10500000E8ACD8E50DAA00990598FFF747FA002803
:105010007FF41EAFDA46FFF748BB0DAA009905984A
:10502000FFF73CFA00283FF445AF11E70DAA0099BD
:105030000598FFF733FA00287FF40AAF0E980F9A0D
:1050400000F1010EDA46FFF7E3BB0DAA00990598BF
:10505000FFF724FA00287FF4FBAE0E980F9A00F1B8
:10506000010EDA469BE6002A40F0D8804FF0010E90
:105070001046DA4697E60DAA00990598FFF70EFA52
:1050800000287FF4E5AE0E9B0F9A03F1010EDA467D
:1050900022E430228DF83020019A8DF83130002A38
:1050A0004FF000038DF82F3046F00203C0F2CB80A2
:1050B00026F0800646F002064FF0000942E74FF066
:1050C000000990483EE7019B64424FF02D0965EBD3
:1050D0004505002B8DF82F90FFF67BAC26F080065F
:1050E00077E4079B002B72D00CAB02221A931B9221
:1050F0004FF0010EDA4613E716F0400948D0049944
:105100008DF82F200B460C880199002903F1040328
:105110004FF00005FFF610AE54EA050126F08006B8
:1051200004933FF49CAC9146A1E4F0060AD47106C6
:1051300008D5049A136804320492BDF808201A8036
:10514000FFF719BA049A136804320492029A1A609B
:10515000FFF711BA0DAA00990598FFF79FF90028EB
:105160007FF476AE0E980F9A00F1010EDA46FAE55A
:105170004FF0FF30FFF7B6BA6248164654EA050210
:1051800004934FF000097FF4DDAEFCE6049BF5E7E5
:10519000049A8DF82F9013461468019A002A03F19F
:1051A00004034FF00005FFF6C7AD54EA050226F0F0
:1051B000800604937FF45BAC51E40DAA0099059836
:1051C000FFF76CF900287FF443AE0F9A68E61046AB
:1051D0004FF0010EDA46E6E504998DF82F300A46C5
:1051E0000C880199002902F104024FF000054EDB02
:1051F00054EA050126F08006049299467FF4E9AB53
:10520000D4E40493F9E638460494FFF739F8002310
:1052100003909DF82F900193FFF79CBA0DAA009977
:105220000598FFF73BF900287FF412AE0E980F9A0D
:1052300000F1010EDA46B6E50E980F9ADFF8CC9031
:105240000130FFF7D2BA1E464FF000097AE6062B6E
:1052500028BF06230393049423EAE3752A4F0CE541
:1052600004926AE50E98DFF8A4900130FFF773BB53
:10527000F446FFF71ABB019B9DF82F90039304940B
:105280000190FFF767BA00220192FFF7ACB90492D0
:105290009946B2E6049A136801930432002B0492F3
:1052A00098F80130A846BFF69CA94FF0FF32019252
:1052B000FFF797B98DF82F008EE48DF82F00F0E4FA
:1052C0008DF82F00ABE49946F30705D52AAF3023BC
:1052D00007F8413DFFF797BB019B03935F46FFF73C
:1052E00039BA8DF82F0043E48DF82F00FFF79ABBF1
:1052F0008DF82F00FFF74DBB8DF82F000FE58DF8CF
:105300002F00F3E4B8824000CC824000D4824000F9
:10531000F0B50C46ADF26C4D8989666EE58919963B
:1053200021F00201666AADF80E500025E769ADF87C
:105330000C10099606951AAE4FF4806569460096E2
:1053400004960295059507970646FFF7E3F8051EB4
:1053500007DB3046694600F029F9002818BF4FF0F6
:10536000FF35BDF80C305B0603D5A38943F040033D
:10537000A38128460DF26C4DF0BD00BF38B5304B0F
:105380001B6805460C4613B19A6B002A38D0B4F955
:105390000C2093B218070CD52069A8B113F00102B4
:1053A0001ED0636900225B42A361A260F0B10020BD
:1053B00038BDD9063CD5580726D4206942F00803E9
:1053C000A3819BB20028E9D103F42072B2F5007FDB
:1053D000E4D02846214600F015FDA3892069DDE7C9
:1053E000990758BF6269A2600028E0D1B4F90C3077
:1053F0001A06DDD543F04003A3814FF0FF3038BDDE
:10540000184600F067F9C2E7216B51B104F140037F
:10541000994204D0284600F027FAB4F90C20002362
:10542000236300232069636022F024022060C5E723
:1054300042F0400209232B604FF0FF30A28138BDBB
:1054400048044020024B13B1024800F005B87047F1
:1054500000000000E9564000002301461A461846A5
:1054600001F012BCB1F90C309AB22DE9F0410D46B1
:10547000110780463CD46A6843F40063002AAB817C
:1054800073DDAC6A002C4BD09BB203F48052002138
:1054900092B2D8F80060C8F80010002A69D02A6DCE
:1054A0005F0705D569682B6B521A0BB1EB6BD21AEB
:1054B0000023E9694046A047441C3CD0B5F90C30B4
:1054C0002A692A6023F400630022AB81DB046A604E
:1054D00049D4296BC8F8006011B305F14003994223
:1054E00002D0404600F0C0F900202863BDE8F081FA
:1054F0002E69AEB12C682E6090070CBF6B6900233B
:10550000A41BAB600AE0234632466F6AE969404655
:10551000B8470028A4EB0004064404DD002CF2DCAC
:105520000020BDE8F081AB8943F04003AB814FF030
:10553000FF30BDE8F081D8F800201D2AF3D81A4BBF
:10554000D34003F0010383F00104002BEBD0B5F945
:105550000C302969296023F40063D9046C60AB81A5
:10556000B7D5002AB5D12865B3E7EA6B002A88DCF5
:10557000D6E70123E9694046A047431C024602D012
:10558000AB89AC6A8CE7D8F80030002BF8D01D2B23
:1055900001D0162B02D1C8F80060C1E7AB8943F0F7
:1055A0004003AB81BDE8F0810100402010B5044606
:1055B00082B008B1836B53B1B1F90C0008B902B0E5
:1055C00010BD204602B0BDE81040FFF74BBF01916F
:1055D00000F080F80199EFE7014900F0AFBB00BF90
:1055E000516D40002DE9F04F354B4568C3630024F1
:1055F000074600F53B7204230321C0F8E412C0F80B
:10560000E822C0F8E04283B02C606C60AC606C664D
:10561000EC812C616C61AC61AB81214605F15C00D1
:105620000822FEF721FDBE68DFF898B0DFF898A0E9
:10563000DFF89890DFF89880C5F820B001230922A0
:10564000C5F824A0C5F82890C5F82C80ED61214646
:10565000F381B28106F15C0034607460B4607466FA
:1056600034617461B46108220193FEF7FDFCFD68AA
:10567000F66112200222C6F820B0C6F824A0C6F8AF
:105680002890C6F82C802146A881EA812C606C60A5
:10569000AC606C662C616C61AC6105F15C00082249
:1056A000FEF7E2FC019BED61C5F820B0C5F824A02F
:1056B000C5F82890C5F82C80BB6303B0BDE8F08F17
:1056C000D9554000B96A4000DD6A4000196B4000BE
:1056D000396B4000836B03B17047FFF783BF00BF96
:1056E000704700BF704700BF38B5074D074C2C1BF3
:1056F000A41005D0013C55F8043D9847002CF9D181
:10570000BDE8384002F07ABE0C84400008844000B6
:105710002DE9F04782B080468946144600F03CFBF4
:10572000012833D004F15C034A4601A9404601F048
:105730005DFAB0F1FF3F824621D088B39DF8046046
:10574000002508E023685A1C22601E70013555456B
:1057500026D201AB5E5DA368013B002BA360F1DAAA
:10576000A769BB4231462246404601DB0A2EE9D1F9
:1057700001F0E6F9431CE9D102B0BDE8F087A38946
:1057800043F04003A38102B0BDE8F08709F1FF3385
:10579000FE2BC7D85FFA89F682468DF80460CFE702
:1057A000484602B0BDE8F087B2F90C3013F4005F50
:1057B0000AD110B4546E43F4005344F400545466B8
:1057C000938110BCFFF7A4BFFFF7A2BFF8B5234F2A
:1057D0000C46064600F06AFFBB685D6825F00305CD
:1057E000291B01F6EF7121F47F6121F00F01A1F572
:1057F0008054B4F5805F07DB0021304601F04AF9A0
:10580000BB682B44984204D0304600F051FF002082
:10581000F8BD6142304601F03DF901300DD0104B2A
:10582000BA6819682D1B45F001053046091B556003
:10583000196000F03DFF0120F8BD0021304601F065
:1058400029F9BA68831A0F2BDEDD064C0449246857
:1058500043F00103001B53600860D5E77404402047
:10586000EC0E402080084020002945D02DE9F04171
:105870000D46804600F01AFF55F8047C6A4927F06F
:105880000103A5F10804E2188E685068B24220F0C6
:10589000030062D0FE0750600BD455F8087CE41B6F
:1058A00001F1080EA56875453B446FD0E768EF60CD
:1058B000BD6015186D68ED0742D543F001026260C6
:1058C000E350B3F5007F18D2DB085A1C4D6851F83D
:1058D0003270A76001209B1000FA03F301EBC200B5
:1058E0001D430838E0604D6041F83240FC6040469E
:1058F000BDE8F04100F0DCBE70475A0A042A53D8D4
:105900009A0902F139077F0002F1380501EB87009F
:1059100051F827204449083890424DD0516821F071
:1059200003018B4202D292689042F7D1D068E060C6
:10593000A2608460D4604046BDE8F04100F0B8BE8B
:1059400095683A4FBD4203443FD0D068E86043F0C9
:10595000010285606260E350B3E7FF07034407D4A8
:1059600055F8082CA41A1344A068E268C26090603D
:105970002F4A126843F00100934260608C60B6D3F6
:105980002C4B40461968FFF721FFB0E71118496812
:10599000C90744D49168D268CA60034443F0010047
:1059A00091606060E350A2E7142A17D802F15C0707
:1059B0007F0002F15B05A9E7AA104B68012505FAF3
:1059C00002F213434B600246B1E743F001024C611F
:1059D0000C61E560A5606260E35088E7542A06D850
:1059E0001A0B02F16F077F0002F16E058EE7B2F528
:1059F000AA7F06D8DA0B02F178077F0002F177055B
:105A000084E740F25450824206D89A0C02F17D0796
:105A10007F0002F17C0579E7FE277E2576E743F0DB
:105A200001026260E35062E7740440207C0440207D
:105A30007C084020E80E40209368002B76D02DE9AA
:105A4000F04F8B8985B00C4619070190164629D571
:105A500022693AB303F002081FFA88F0356800287B
:105A60002FD04FF00009B44FC846B246B845434660
:105A70004A4628BF3B460198B8F1000F50D0E16973
:105A8000666AB047002871DDDAF808301B1A8144D5
:105A9000C0EB0808CAF80830002BE7D1002005B099
:105AA000BDE8F08F21460198FFF768FC002840F020
:105AB0003A81A389356803F002081FFA88F00028AC
:105AC000CFD113F001095BD14F4602961FB39A055F
:105AD000D4F808802CD54745C246C0F0A48013F402
