S01B0000574946492D73696D706C654765742D455854312E73726563B4
S214400000B0304020113A40000D3A40000D3A4000D2
S2144000100D3A40000D3A40000D3A40000000000006
S2144000200000000000000000000000000D3A400004
S2144000300D3A4000000000000D3A40000D3A4000E6
S2144000400D3A40000D3A40000D3A40000D3A40004F
S2144000500D3A40000D3A40000D3A40000D3A40003F
S2144000600D3A400000000000F534400009354000DD
S2144000701D3540000D3A40000D3A40000D3A400014
S21440008031354000453540000D3A40000D3A4000BD
S2144000900D3A40000D3A40000D3A40000D3A4000FF
S2144000A0BD4140000D3A40000D3A40000D3A400038
S2144000B00D3A4000090440000D3A40000D3A400019
S2144000C00D3A40000D3A40000D3A40000D3A4000CF
S2144000D0000000000D3A4000000000000D3A4000CD
S2144000E01D0440000D3A40000D3A40000D3A4000D5
S2144000F00D3A40000D3A40000D3A40000D3A40009F
S2144001000D3A40000D3A40000D3A40000D3A40008E
S2144001100D3A400000000000000000000000000013
S2144001200D3A40000D3A40000D3A40000D3A40006E
S2144001300D3A4000000000000D3A40000D3A4000E5
S21440014010B5054C237833B9044B13B10448AFF3CC
S21440015000800123237010BDC0084020000000002E
S214400160C8C74000084B10B51BB108490848AFF354
S21440017000800848036803B910BD074B002BFBD02E
S214400180BDE81040184700BF00000000C4084020EB
S214400190C8C74000C8C740000000000070B582B025
S2144001A0026BC36A1340019300241A4E1A4DA842AC
S2144001B014BF0020012005010B2C0AD8019A012308
S2144001C0A340134220D02B1956F82330E3B198476A
S2144001D01AE00E2C0CD8019A04F10C0101238B4036
S2144001E0134211D02B1956F823306BB198470BE0C9
S2144001F0019A04F10F0101238B40134204D02B19BE
S21440020056F8233003B198470134102CD4D102B0AD
S21440021070BD00BF5C0F40200040064030B4046E06
S21440022001238B4024EA03041578002D08BF0023E1
S21440023023430366446D4D000321A94024EA01038D
S2144002405178A9401943416530BC70474A780B78CD
S214400250134303678A884B8843EA024343677047E1
S21440026000220260084B4360084B83604FF48023B3
S214400270C36002230374012343748374C2740375FA
S21440028043758375704700BF00A3E111808D5B0006
S2144002900023037001234370704700BF00230370A0
S2144002A020234370FF23438040F6FF7383807047CC
S2144002B0036B13F0807350D110B401220260CA7CE5
S2144002C0002A18BF4FF000434A688C68B2FBF4F22D
S2144002D0013A120292B2CC6844F4000422430C7CE9
S2144002E0240604F0706422434C7C240704F04054F7
S2144002F02243134343600B7D002B14BF4FF08072A4
S21440030000220B681A434B7D002B14BF4FF000733E
S2144003100023134383608B7D1B0203F4407343F03A
S2144003200C03C0F89430104B984209D10F4B03F1A0
S2144003304001002243F8042F8B42FBD100200FE0FF
S2144003400B4B98420BD10B4B03F14001002243F874
S214400350042F8B42FBD1002002E01920704700207A
S2144003605DF8044B704700BF00C00340580F402064
S21440037000400640980F40200C4B994201D1436202
S21440038070470B2909D803D14FF400634362704786
S214400390012303FA01F1416270470E2994BF0C31E4
S2144003A00F31012303FA01F141627047FF0F004706
S2144003B038B5114CA0420CBF102400240C440F4DFD
S2144003C045F824200AD00E4A4FF00054C2F8804127
S2144003D05B01DBB282F81D33146009E0084A4FF433
S2144003E08074C2F884415B01DBB282F828335460E3
S2144003F0044B984738BD00BF004006405C0F402085
S21440040000E100E07903400008B50248024B9847F7
S21440041008BD00BF00C003409D01400008B502482B
S214400420024B984708BD00BF004006409D01400073
S21440043000B583B0134B98420CBF28201D20124BAA
S2144004409847124B9B78FF2B00D1FEE7EFF31083C3
S214400450B3FA83F35B09019372B6BFF35F8F002252
S2144004600B4B1A700199094A93780133937029B15E
S2144004700122074B1A70BFF35F8F62B603B05DF878
S21440048004FB00BF0040064005374000540F4020A4
S21440049014004020102808D1B1F1805F05D108B57E
S2144004A0024B1B6803B1984708BD7047DC084020E4
S2144004B040B170B50446044E044D3046A847013C52
S2144004C0FBD170BD704700BF3516030001004020C9
S2144004D02DE9F041094F4FF40038C7F83480084DF5
S2144004E008266E636420074CA047C7F83080642017
S2144004F0A0472E636420A047BDE8F08100120E405E
S21440050000100E40B104400010B50022144B1A6093
S2144005100A20144CA0470B20A0470C20A0471020D0
S214400520A0471120A047104B08221A61C3F8A0200C
S2144005301A630E4A4FF400311161C2F8A0101163DD
S21440054004221A61C3F8A0201A63094B1B6813F0F3
S214400550010F01D0064B1B68064B9847002010BD84
S214400560DC0840200537400000100E4000120E40C8
S21440057010E000E0D104400030B583B0144B186062
S2144005801020144B98474FF020517C20124B984730
S214400590124C01224FF080512046114B9847114B88
S2144005A0009351234FF08052102120460E4DA8470D
S2144005B04FF0805120460D4B98474FF480320C4BFD
S2144005C01A600022102120460A4B984703B030BDDF
S2144005D0DC084020053740000533400000140E403C
S2144005E0C13140009504400089344000F532400057
S2144005F000E100E05935400008B528B14FF0805181
S2144006000448054B984708BD4FF080510148034BBE
S214400610984708BD00140E40F5324000F9324000BD
S214400620F8B5394C4FF480112166C4F890106165D6
S2144006306162C4F88010236F0B432367636F23F413
S214400640801363674FF400122266C4F890206265F8
S2144006506262C4F88020236F13432367636F23F4DA
S214400660001363674FF480032366C4F890306365D5
S2144006706362C4F88030206F18432067606F20F4B0
S214400680800060676160626063604FF0007666601D
S2144006902660266126631D4D28461D4B984702233B
S2144006A02B6080232B606B6843F001036B606B68A4
S2144006B043F010036B6001212846164B98470022F2
S2144006C001212846144B9847012211462846134BD1
S2144006D09847002201212846114B98471149124855
S2144006E0124B9847C2B201212846114B9847002327
S2144006F01A46012128460F4FB84701232B60266330
S2144007000D4B98470020F8BD00140E400080004076
S21440071059374000853740000938400029384000A6
S2144007204938400000A3E111006CDC025D3840000F
S21440073075384000A1384000D10440002DE9F04F04
S21440074083B0032841D10E684D680C8900238DF88C
S2144007500430ADF8063036B1002D33D14FF00108E5
S214400760994601AD04E04FF000084FF0010901AE94
S2144007704FF000721C4B5A63F4B11C4FDFF884B044
S214400780DFF884A000231A4631783846D8470DF162
S21440079005020DF106013846D047BDF806302B70ED
S2144007A0013CA4B2B8F1000F00D10135B9F1000FF9
S2144007B000D10136002CE5D14FF000720A4B1A6387
S2144007C000200EE06FF005000BE040F21F120849D3
S2144007D00848094CA0470948A0470948A0474FF099
S2144007E0FF3003B0BDE8F08F00140E40008000409C
S2144007F0A0B34000B0B3400045454000C4B34000FD
S214400800DCB34000D13740009D37400002220E4BFB
S2144008101A6003F5592303F580634FF400125A61BA
S214400820C3F8A0204FF480125A61C3F8A0204FF4BA
S21440083080025A61C3F8A0204FF000725A61C3F894
S214400840A0200020704700BF008000403AB1013928
S214400850821811F8013F00F8013B9042F9D17047E9
S21440086022B1821800F8011B9042FBD1704700BFAE
S214400870034602783AB10020013080B213F8012FC7
S214400880002AF9D170470020704700BF024A13780B
S2144008900133DBB213707047E8084020704700BF52
S2144008A000B583B001200B4B984701A941F2700078
S2144008B0094B9847034640B9019941F0020101911E
S2144008C041F27000054B98470346184603B05DF862
S2144008D004FB00BFF9054000691B4000751B400043
S2144008E008B5114B1B7813F0FF0F15D10F4B1B7833
S2144008F0DBB2032B04D00D4B1B78DBB2042B0BD1A1
S2144009000B4B9847034668B945F2786141F274004C
S214400910084B9847034628B9034A13780133DBB29D
S21440092013700023184608BD04094020F4084020F0
S214400930D9164000751B400000B583B01D4B1B7890
S21440094013F0FF0F04D01B4A1378013BDBB2137041
S214400950184B1B7813F0FF0F25D1174B1B78DBB2D3
S214400960032B04D0144B1B78DBB2042B1DD1002381
S214400970019344F2213141F27400104B98470346EC
S214400980A0B901A901200E4B9847034670B90199BA
S21440099011F0020F0AD021F0020101910120074B0D
S2144009A09847034602E0002300E00023184603B0C1
S2144009B05DF804FB04094020F4084020751B400005
S2144009C0691B40002DE9F04F87B080460F4692469F
S2144009D09946109CBDF84460BDF8485001F07F032E
S2144009E08DF815308DF814000823ADF8163044B154
S2144009F0BDF8163016FA83F32B449BB2ADF816308A
S214400A0006E0BDF8163019FA83F39BB2ADF81630FF
S214400A10574B98478346002840F095800023039321
S214400A20ADF806300293029B48EA03030293029B0A
S214400A3043EA07270297BDF81620029B43EA024383
S214400A400293029941F28C004A4B9847834600280D
S214400A5040F08A8000230293029B43F002030293F5
S214400A60029941F27800434B9847834600287BD151
S214400A7000230393ADF80630BDF806309BB2B3F5BD
S214400A807A7F1ED241F278083B4F02A94046B847CB
S214400A90B8B9029B13F0020F07D103A93748364B6B
S214400AA0984770B1002303930BE0BDF8063001333E
S214400AB09BB2ADF80630BDF806309BB2B3F57A7FF0
S214400AC0E3D3039B002B4DD0039B0493BDF8163015
S214400AD09BB2ADF816300498082205A9284B9847D3
S214400AE08346002840D1049B08330493BAF1000F94
S214400AF00AD004984A465146214B984783460028D8
S214400B0032D1049B4B44049374B1049BC9EB050556
S214400B101D440495049832462146194B984783460F
S214400B2010BB049B1E440496039B9B000293029BAF
S214400B3043F002030293029941F26C000D4B984732
S214400B40834688B90AE040F29F120E490E480F4C81
S214400B50A0470F48A0470F48A04705E00E4B9847D0
S214400B60834601E06FF0020B584607B0BDE8F08FB1
S214400B70E1084000751B4000691B4000000415005A
S214400B80E11B400038B64000B0B340004545400049
S214400B90F4B34000DCB34000390940002DE9F0438F
S214400BA087B0DFF8FC92A34FDFF8F882A24E7BE1D5
S214400BB099F80030013BDBB289F80030B84704466C
S214400BC0002840F01A8103A941F270009B4B9847D9
S214400BD00446002840F00681039B13F0010F00F006
S214400BE0F580974B9847039921F00101039141F214
S214400BF07000944B98470446002840F00E8100222F
S214400C00914B1A70039DC5F38B05002D00F0D180E3
S214400C1006A941F8042D41F28400884B98470446C3
S214400C2068B14FF4E77241463046884DA847884839
S214400C30A8478848A8470120814B9847EBE0042204
S214400C4004A90598844B9847BDF812309BB2ADF87E
S214400C501230044668B14FF4EB72414630467B4D45
S214400C60A8477E48A8477B48A8470120744B98472A
S214400C70D1E0BDF812309BB29D421ED0BDF8123076
S214400C809BB2EB1A042B18DD40F2DF124146304689
S214400C906E4CA047BDF812209DF810309DF81110FC
S214400CA0009192B229466E48A0476A48A047012064
S214400CB0634B98476FF00504ADE09DF81030DBB20B
S214400CC0012B0DD1674B1B68002B60D09DF811009F
S214400CD0BDF812100839059A083289B2984756E08E
S214400CE09DF81030DBB2022B0DD15F4B1B68002BFA
S214400CF04DD09DF81100BDF812100839059A0832FB
S214400D0089B2984743E09DF81030DBB2042B0DD1F2
S214400D10564B1B68002B3AD09DF81100BDF81210B8
S214400D200839059A083289B2984730E09DF8103065
S214400D30DBB2062B0CD14E4B1B6843B39DF811001B
S214400D40BDF812100839059A083289B298471EE055
S214400D509DF81030DBB2072B0CD1464B1B68B3B165
S214400D609DF81100BDF812100839059A083289B26C
S214400D7098470CE040F2022241463046334CA047AA
S214400D803D48A0473348A0476FF0050443E02E4B4C
S214400D901B7813F0FF0F3BD140F209224146304604
S214400DA02A4CA0473548A0472A48A047344B984786
S214400DB02EE040F2112241463046244CA0473148AE
S214400DC0A0472448A0476FF0010426E04FF406727F
S214400DD0414630461D4CA04703992B48A0471D4826
S214400DE0A04715E040F21E2241463046174DA84720
S214400DF02648A8471748A8470FE04FF409724146CF
S214400E003046124DA8472248A8471248A84704E053
S214400E10204B98470446002C46D040F243221E49B9
S214400E2030460A4DA84721461C48A8470948A847C7
S214400E30C4E600BFE1084000B0B34000691B400074
S214400E40F9054000751B4000FC0840204545400021
S214400E5014B44000DCB34000811B40003CB440006A
S214400E6054B44000E4084020F808402000094020E0
S214400E70E0084020F008402094B44000ACB4400065
S214400E80A1084000D0B44000E4B4400000B54000A3
S214400E9024B540003909400044B6400044B54000FF
S214400EA0E8084020E0B3400099F8003013F0FF0F08
S214400EB07FF47EAE002007B0BDE8F0832DE9F04316
S214400EC083B01C46002A18BF002903D005460F46AB
S214400ED01646A0B934B10122314B1A70314B9847AF
S214400EE0034658E040F269222F493048304CA0472C
S214400EF03048A0473048A0476FF00B034BE06946A8
S214400F0041F270002D4B98470346002843D1DDF848
S214400F10008001A941F28400284B984703460028E8
S214400F2039D1C8F38B0846450ED940F27A221E497D
S214400F301E481F4CA047424631462148A0471E48FF
S214400F40A0476FF00B0326E0019B9D4204D305EBC0
S214400F500609434499450CD94FF420721249134868
S214400F60134CA0471748A0471348A0476FF00B0301
S214400F7011E0324639462846134B9847034650B947
S214400F80019A42444A4500D02CB10122044B1A70C3
S214400F90044B98470346184603B0BDE8F08300BFAD
S214400FA0FC084020A1084000E8B34000B0B3400031
S214400FB04545400074B54000DCB34000691B400026
S214400FC094B54000D8B54000811B400038B5431E5C
S214400FD0062B1DD8DFE803F00804100C1C1418007C
S214400FE0134B1960002038BD124B1960002038BDE5
S214400FF0114B1960002038BD104B1960002038BDD9
S2144010000F4B1960002038BD0E4B1960002038BDCC
S214401010044640F2B9220C490C480D4DA8472146DB
S2144010200C48A8470C48A8476FF00B0038BD00BFD7
S214401030F8084020E408402000094020EC08402002
S214401040E0084020F008402028B64000B0B34000FA
S214401050454540001CB64000DCB3400010B50024B7
S214401060094B1C60094B1C60094B1C70094B1C70DB
S214401070094B1C7009480A4B98470A4903200A4BFB
S2144010809847204610BD00BFE4084020F80840209E
S21440109004094020F4084020E80840208D0840001D
S2144010A0790540009D084000CD0F400030B59FB008
S2144010B015462C2811D10023042203A92846904C1B
S2144010C0A047002840F019818E4B1B68002B00F08B
S2144010D0148103A92C2098470FE104461B2811D100
S2144010E00023082203A92846854CA047002840F044
S2144010F00481844B1B68002B00F0FF8003A91B2053
S2144011009847FAE0062811D10123302203A9284641
S2144011107B4CA047002840F0F0807A4B1B68002BA1
S21440112000F0EB8003A906209847E6E00E2800F082
S214401130E480322811D10023102203A92846704C9F
S214401140A047002840F0D9806E4B1B68002B00F06B
S214401150D48003A932209847CFE02F2816D16422A6
S214401160002103A8684B98470023642203A9284619
S214401170634CA047002840F0C080624B1B68002BA1
S21440118000F0BB8003A92F209847B6E0342820D132
S2144011900023042203A92846594CA047002840F0C3
S2144011A0AC805A485A4CA04703990B0E0093C1F3A3
S2144011B00743C1F30722C9B25648A0475648A0473E
S2144011C0504B1B68002B00F0988000213420984735
S2144011D093E0112816D10023504A1370042203A925
S2144011E02846474CA047002840F087809DF80C20B2
S2144011F04B4B1A70434B1B68002B7ED003A9112023
S21440120098477AE013280FD100232C2203A92846BA
S2144012103B4CA047002870D13A4B1B68002B6CD043
S21440122003A91320984768E004280FD1002304221E
S2144012301CA92846324CA04700285ED1314B1B687B
S214401240002B5AD01CA90420984756E065280FD199
S214401250002304221CA92846294CA04700284CD12C
S214401260284B1B68002B48D01CA96520984744E0B3
S21440127009280FD10123642203A92846204CA04701
S21440128000283AD11F4B1B68002B36D003A90920F3
S214401290984732E02A280DD10123042203A9284684
S2144012A0174CA04748BB174B1B6833B303A92A20EB
S2144012B0984722E0202815D10023082203A9284673
S2144012C00F4CA047C8B90123BDF81020039905F17B
S2144012D00800A04788B90B4B1B6873B103A92020B0
S2144012E098470AE04FF495720E490F48084DA847B4
S2144012F021460E48A8470848A8471FB030BD00BF43
S214401300BD0E4000080940206108400074B6400009
S2144013104545400080B64000DCB340000C09402004
S2144013200D09402068B64000B0B34000A0B640006B
S214401330F0B58BB001238DF8073000284ED00268F8
S214401340294B1A600022294B1A700DF10700284BD2
S21440135098470446002843D1264B98470446002821
S21440136038D125490120254B984702A8244B984759
S2144013700446244F3846244DA8479DF80E309DF825
S2144013800D209DF80C102148A847214E3046A8470E
S2144013903846A8479DF811309DF810209DF80F104C
S2144013A01C48A8473046A8473846A847002303228B
S2144013B013211948A8473046A84714F10D0F0FD1FE
S2144013C040F2D51215491648A8471648A847304651
S2144013D0A84705E00020144B984701E06FF00B0447
S2144013E020460BB0F0BD00BF080940200C09402045
S2144013F0ED1C40005D104000AD104000CD0F400099
S214401400411C400074B640004545400058B7400077
S214401410DCB3400074B7400090B740009CB9400031
S214401420B0B34000ACB74000B51D400008B5014B16
S214401430984708BD9D0B40002DE9F041A0B080467E
S2144014400D4614461E46BDF89870012A45D063B92D
S21440145040F203227A497B487B4CA0477B48A04712
S2144014607B48A0476FF00B00E7E0022A35D11846CC
S214401470784B9847402830D13378A3F13002D2B227
S214401480362A1BD8A3F13A02D2B2062A16D9473BCF
S214401490DBB2192B12D9314606F13F0011F8013F55
S2144014A0A3F13A02D2B2062A08D9A3F13002D2B248
S2144014B0362A03D8473BDBB2192B0CD840F20F2212
S2144014C05F496048604CA0476348A0476048A047D3
S2144014D06FF00B00B1E08842E0D16B1EDBB21F2BF1
S2144014E00CD940F2192256495648574CA0475B48FB
S2144014F0A0475748A0476FF00B009EE0FF2F0ED046
S2144015000D2F0CD940F222224D494E484E4CA04752
S2144015105348A0474E48A0476FF00B008DE02A4640
S21440152041460DF15A004F4B984720AB1D440023CF
S21440153005F8263CADF858709DF89C30003318BF2F
S21440154001238DF87B308DF85540032C38D1337805
S214401550013BDBB28DF81430032B0ED940F2392212
S21440156037493848384CA0479DF814103E48A047A5
S2144015703748A0476FF00B005FE07278531E8DF837
S214401580153002F0EF030B2B0ED04FF410722C499F
S2144015902C482D4CA0479DF815103448A0472C48A1
S2144015A0A0476FF00B0048E0B11C0DF116002D4B24
S2144015B09847737820AA1344002203F86A2C32E036
S2144015C0022C19D13046234B9847431E9BB23F2BE3
S2144015D00CD940F24F221A491A481B4CA0472448BF
S2144015E0A0471B48A0476FF00B0026E0421C314640
S2144015F005A81C4B984716E0042C05D13E223146E0
S21440160005A8184B98470EE0012C0CD040F25F22FC
S2144016100B490C480C4CA0471648A0470C48A0471E
S2144016206FF00B0009E000230293019300936C23B4
S21440163005AA28210120104CA04720B0BDE8F08123
S21440164054B64000B0B3400045454000C8B74000DF
S214401650DCB3400071084000DCB74000ECB7400007
S21440166000B840004D0840000CB8400028B8400084
S21440167044B8400060B84000C509400010B582B08C
S21440168000240194BDF810400094024CA04702B0DC
S21440169010BD00BF3914400000207047F0B583B03D
S2144016A004464FF4A5550A4E0A4F21462846B047F1
S2144016B054B102A9002341F8043D2846B847002803
S2144016C0F3D1019B9C42F0D1002003B0F0BD00BF97
S2144016D0751B4000691B40002DE9F04F83B0012088
S2144016E03D4B984701A901203C4B9847824648B15C
S2144016F072223B493B483C4CA0473C48A0473C48AC
S214401700A04764E000244FF00108DFF8F890324D1F
S214401710384F019941F002014046C8474046A84725
S2144017206946354B18682D4B984718B9009B0BB146
S214401730314E37E0304E0E2333604046A847694668
S2144017403068264B984710B9009B002BF0D12A4EA4
S214401750132333604046A847694630681F4B984776
S21440176006460028E4D096221D491E481E4CA04737
S2144017702248A0471E48A047B24628E00220A84775
S21440178069463068154B9847009B13F0040F09D103
S214401790AA2213491348DFF850B0D8471848D8470C
S2144017A01348D847009B13F0040F10D10134A7FB11
S2144017B004235B0803EB43039C42DFD0019941F0CE
S2144017C002014046C847009B13F0040FA1D0504684
S2144017D003B0BDE8F08F00BFB1044000691B400075
S2144017E0B8B94000B0B3400045454000C8B94000D5
S2144017F0DCB34000ABAAAAAA10004020E8B94000DB
S21440180008BA4000751B400000B583B001A941F2FC
S2144018100840154B9847E0B9019941F48071019111
S21440182041F20840114B9847B0B901A94FF4D05047
S2144018300D4B984798B9019941F4803101914FF486
S214401840D0500A4B9847002814BF6FF00500002080
S21440185007E06FF0050004E06FF0050001E06FF070
S214401860050003B05DF804FB691B4000751B400093
S21440187010B582B0244B1C68002C40D119464FF45A
S2144018808050224B984718B100221F4B1A6038E010
S21440189001A941F2F4301D4B984718B100221A4B6B
S2144018A01A602EE0184B1B68194A934206D1019BDA
S2144018B0012B1DD00132144B1A6019E0154A934291
S2144018C009D1019B032B13D0042B0CBF0132124AC3
S2144018D00D4B1A600CE0114A934209D10A494FF465
S2144018E06C100A4B984718B10022074B1A6008E064
S2144018F0054A136823F4702343F4A0231360024B75
S2144019001C68204602B010BD10094020691B4000EC
S214401910A0021000B0021000B2021000F00010004A
S2144019202DE9F041074641F21405284C284E28463A
S214401930A047002802DB0120B047F8E72548234BA4
S214401940984710F0010F10D1DFF884801F4E224DCB
S2144019500120C0474FF00C10B04704462A460146C7
S2144019601E481F4B9847AC42F2D1022F0AD11D4960
S2144019701D481E4CA0474FF4801141F28C00A047F2
S21440198000240FE0032F09D116491748174CA047EB
S214401990002141F28C00A047002403E0042F14BF2E
S2144019A000248024124B9847C0F30B00B0F5687FA4
S2144019B00CBF44F0020020460E4B98470E494FF0AD
S2144019C00C100A4B98470020BDE8F0815D1B400094
S2144019D0B1044000BC0702009ED0AD1054BA40008F
S2144019E0454540007DD51C3CAC070200751B4000B9
S2144019F0711840009D164000612F52EFF0B583B03D
S214401A0041F28C030193184B00930238C0B2012870
S214401A1010D8164B0193A3F12253A3F51113A3F24A
S214401A20E953009306E03846B0470198A847013C82
S214401A3006D113E04FF0FF34002002270C4E0D4D28
S214401A40009B9842EFD1009A074B9A4209D1002159
S214401A5041F28C00084B9847002003E06FF00400EA
S214401A6000E0002003B0F0BD36265302AC0702006B
S214401A70B10440005D1B4000751B4000F0B583B0CC
S214401A8002A9002341F8043D4FF4A050244B984748
S214401A9048B140F2312223492348244CA0472448E9
S214401AA0A0472448A047019921F4806101914FF452
S214401AB0A050214B9847054658B140F23722194965
S214401AC019481A4CA0471D48A0471A48A047284620
S214401AD024E00A24124E184F01A94FF4A050B047F4
S214401AE0054658B140F23E220E490F480F4CA047DB
S214401AF01348A0470F48A04728460FE0019911F425
S214401B00806F0AD021F4806101914FF4A050B8470D
S214401B10631E13F0FF04DFD100E0002003B0F0BDE9
S214401B20691B4000ACB94000B0B34000454540009A
S214401B3064BA4000DCB34000751B400080BA4000E9
S214401B409CBA400008B5014B984708BD21064000A6
S214401B5008B5014B984708BD0D08400008B5014B35
S214401B60984708BDAD23400008B5014B984708BDCF
S214401B70C523400008B5014B984708BDDD2340000B
S214401B802DE9F047074689461546134BB3F80080C3
S214401B90A8F108081FFA88F8424508D80026AAB2D5
S214401BA009EB060138460D4B9847034610E044467D
S214401BB00026DFF828A0424609EB06013846D04703
S214401BC0034628B92D1B26442744A542F3D8E6E70A
S214401BD01846BDE8F08700BF0C00402001254000B5
S214401BE02DE9F047074689461546134BB3F8008063
S214401BF0A8F108081FFA88F8424508D80026AAB275
S214401C0009EB060138460D4B9847034610E044461C
S214401C100026DFF828A0424609EB06013846D047A2
S214401C20034628B92D1B26442744A542F3D8E6E7A9
S214401C301846BDE8F08700BF0C004020CD25400088
S214401C4030B583B0044602A9002341F8043D23483A
S214401C50234B98470546019A224B9A4205D101A943
S214401C6041F248001E4B98470546019B1A0C11123C
S214401C70E171C2F30311217202F00F0262721A126E
S214401C802271C3F30312627103F00F03A371164B64
S214401C90984720602279A37903F00F0343EA022293
S214401CA063791B01DBB21343E179627A02F00F02DB
S214401CB042EA0121227A1201D2B20A4341F230317D
S214401CC08A4288BF6FF00C0541F22F3293428CBF98
S214401CD028466FF00C0003B030BD00BFAC070200D2
S214401CE0691B4000C3C15DD77118400038B530B19C
S214401CF00478631EDBB2042B28BF012400E00124D5
S214401D0000201D4B9847054650B14FF492721B4930
S214401D101B481C4CA0471C48A0471C48A04729E02D
S214401D201B48184DA8471B4B984701461A48A847DA
S214401D301648A847194B98472046194B98470546DA
S214401D40B0B92046174B9847054688B9023CE4B2DE
S214401D50012C0FD9144B9847054658B14FF4AE7234
S214401D6006490748074CA0471048A0470748A047E1
S214401D700F4B9847284638BD451B4000A4BB400043
S214401D80B0B3400045454000F8BA4000DCB34000E0
S214401D9074B640007118400014BB4000F523400064
S214401DA021194000FD1940000918400024BB40009E
S214401DB0511B400038B5194B984758B104464FF46C
S214401DC0BA7217491748184DA8471848A8471848E0
S214401DD0A84720E00020174B9847044650B140F2F1
S214401DE07B120F490F48104DA8471348A847104884
S214401DF0A84710E0114B9847044650B140F2811274
S214401E0007490848084DA8470D48A8470848A84726
S214401E1001E00C4B9847204638BD00BF7D1A400075
S214401E20B0BB4000B0B340004545400044BB400016
S214401E30DCB340005D2E400064BB4000511B4000B8
S214401E4088BB4000A123400000B585B00023019325
S214401E500290ADF80C1001A90320024B984705B03C
S214401E605DF804FB3D074000F0B583B0054600F141
S214401E703B03DBB2012B01D9CF2806D101210DF15E
S214401E800700224B984700283AD10B2401271F4EC3
S214401E9039460DF10700B04758B140F227121C49A9
S214401EA01C481D4CA0471D48A0471D48A047002081
S214401EB029E09DF80730AB4205D0631E13F0FF04BF
S214401EC0E6D10B2400E00B240126104D31460DF1DF
S214401ED00700A84758B140F235120D490D480E4C40
S214401EE0A0470E48A0470E48A04700200BE09DF8AC
S214401EF007303BB1631E13F0FF04E7D1012002E038
S214401F00002000E0012003B0F0BD00BF491E4000A5
S214401F10D4C14000B0B3400045454000F8BC400046
S214401F20DCB340002DE9F04F83B0824689469346A5
S214401F304FF00008354DB9F5005F94BF0FFA89F7AA
S214401F404FF400570A24012631460DF10300A847F6
S214401F5058B140F257122E492E482F4CA0472F48D2
S214401F60A0472F48A04700204DE09DF803301B09AE
S214401F700F2B05D0013C24B2B4F1FF3FE4D101E081
S214401F80002C0DDC40F2631221492248224CA04727
S214401F909DF803102348A0472148A047002032E080
S214401FA0BFB239460AEB0800A84758B14FF4B6729C
S214401FB017491848184CA0471B48A0471848A04740
S214401FC0002020E0BBF1000F12D1184B1B787BB9E4
S214401FD0022101A8A84758B140F277120C490D4893
S214401FE00D4CA0471248A0470D48A04700200AE0E5
S214401FF0B8440FFA88F8C7EB09071FFA87F9B9F112
S214402000000F98D1012003B0BDE8F08F491E400074
S214402010C0BB4000B0B34000454540002CBD40002A
S214402020DCB3400060BD400090BD40001409402035
S214402030C4BD400000B585B0019000230293ADF8C2
S2144020400C1001A90320024B984705B05DF804FB2D
S2144020503D07400070B584B09DF820408DF80400E0
S214402060C1380E2800F2AE80DFE800F03E3E5F1238
S214402070232C4D4D7808ACACACAC35000B0C8DF831
S21440208005300B0A8DF806308DF807100521A4E0C0
S214402090C1F3072314B98DF8053003E063F07F03DE
S2144020A08DF805308DF8061000238DF80730052191
S2144020B093E000238DF805308DF806308DF8073014
S2144020C005218AE000238DF805308DF806308DF81E
S2144020D00730052181E0FF238DF805308DF8063066
S2144020E08DF80730052178E00A0C8DF805200A0A9D
S2144020F08DF806208DF807101A0A8DF808208DF8FE
S2144021000930072169E00A0C8DF805200A0A8DF887
S21440211006208DF807101A0C8DF808201A0A8DF83C
S21440212009208DF80A30082157E0C1F3072314B977
S2144021308DF8053003E063F07F038DF805308DF8A9
S2144021400610130E8DF80730130C8DF80830130A5E
S2144021508DF809308DF80A2008213EE00B0C8DF8EA
S21440216005300B0A8DF806308DF80710130E8DF8E3
S2144021700830130C8DF80930130A8DF80A308DF8A4
S2144021800B20092129E012F8013B83EA4003E05C7A
S2144021909542F8D104AB1E44430006F80C3C01E0DF
S2144021A00139C9B201A8104B984768B14FF4847200
S2144021B00E490F480F4CA0470F48A0470F48A0476E
S2144021C000200FE000200DE001200BE04E1E01AB8A
S2144021D09D197F201A460A4CD5E70A4B1B78002BE0
S2144021E0DED1F3E704B070BD35204000BCC14000EE
S2144021F0B0B3400045454000FCBD4000DCB3400065
S214402200D0BB40001409402070B582B00446312847
S21440221035BF01230023C325C925009304230A465E
S21440222001462846164EB04701280CD040F2EB1225
S21440223014491548154DA84721461548A84715483E
S214402240A84700201AE02846134B9847012814D088
S21440225040F2F1120B490C480C4DA84721460F4856
S214402260A8470C48A8470024009423462246214607
S214402270CF20034DA847204600E0012002B070BDA5
S21440228055204000ACC14000B0B34000454540003A
S21440229028BE4000DCB34000691E400054BE4000EB
S2144022A02DE9F04184B004468846B0F5807F35BFBE
S2144022B001260026C425CA2500960423002201468E
S2144022C028462D4FB84701280CD040F245222B49CE
S2144022D02B482C4DA84721462B48A8472B48A847B3
S2144022E0002045E028462A4B9847012814D040F263
S2144022F04B2222492248234DA84721462548A84735
S2144023002248A84700240094234622462146CF2050
S214402310194DA84720462BE03246042103A81E4B01
S2144023209847012813D040F2532214491448154CBC
S214402330A0471A48A0471548A047002400942346C3
S21440234022462146CF200C4DA847204610E09DF857
S2144023500D109DF80E20130443EA01229DF80C3020
S21440236013439DF80F2043EA0263C8F8003001206B
S21440237004B0BDE8F08100BF55204000E0C14000F9
S214402380B0B34000454540008CBE4000DCB3400042
S214402390691E4000B8BE4000251F4000ECBE40000D
S2144023A00020014B187070471409402000B583B0D8
S2144023B001A9034B9847019803B05DF804FB00BFA2
S2144023C0A122400008B5044B984701280CBF0020C6
S2144023D06FF0050008BD00BFA122400008B5044BC1
S2144023E0984701280CBF00206FF0050008BD00BFCD
S2144023F00922400030B583B0002302A941F8083DC9
S214402400324A13704EF62400314B9847F0B90122F9
S2144024102E4B1A7040F2C5222E492F482F4CA0470B
S2144024202F48A0472F48A04769464EF62400284B21
S2144024309847044650B94FF4327226492648274DED
S214402440A8472948A8472748A8473CE01F4B1B7881
S214402450CBB9009921F07C0141F0500100914EF635
S2144024602400224B9847044650B940F2D2221949DC
S21440247019481A4DA8471E48A8471A48A84722E0B8
S2144024800122124B1A7001A94FF48050104B984706
S21440249060B94FF437720F490F48104CA0471548A3
S2144024A0A0471048A0476FF005040CE04EF6240005
S2144024B0114B984720F0700141F050014EF6240031
S2144024C00E4B98470024204603B030BD14094020E8
S2144024D0A1224000D0BC4000B0B34000454540007B
S2144024E00CBF4000DCB340005CBF40000922400007
S2144024F08CBF4000C0BF4000AD234000DD234000FD
S214402500F0B583B004460F461546002200922B468F
S2144025100146C820234EB04701280BD04FF41D7209
S21440252021492248224DA84721462248A84722480A
S214402530A84732E0C820214B9847012812D040F2E5
S2144025407A22194919481A4DA84721461C48A847D7
S2144025501948A847002100910B460A46CF20114C47
S214402560A0471AE0002229463846164B98470128CD
S21440257011D04FF421720C490C480D4CA04712481C
S214402580A0470D48A047002100910B460A46CF20A1
S214402590044CA04701E0002001E06FF0050003B0C6
S2144025A0F0BD00BF55204000ECBC4000B0B340003A
S2144025B045454000E8BF4000DCB34000691E40008F
S2144025C018C04000251F400050C040002DE9F04391
S2144025D085B0044688461546002200922B460146A2
S2144025E0C7204C4EB04701280BD040F20F224A4934
S2144025F04A484B4DA84721464A48A8474A48A84714
S21440260082E0C720494B9847012812D040F2152255
S21440261041494248424DA84721464548A847424876
S214402620A847002100910B460A46CF20394CA047C8
S2144026306AE00024ADF80C403E4FDFF810912E467D
S214402640B5F5005F28BF4FF400562CB9B5F5005FCE
S21440265094BF0323012304E0B5F5005F94BF032332
S214402660022363F00F038DF80B3001210DF10B00B0
S214402670B84750B14FF4D4722F492848284CA04749
S2144026802E48A0472848A04728E0314608EB0400DB
S214402690B84750B140F2B11227492048204CA047D5
S2144026A02748A0472048A04718E099F8003073B95B
S2144026B0022103A8B84750B140F2BB121E49174842
S2144026C0174CA0471F48A0471748A04706E0344489
S2144026D024B2AD1BADB2002DB1D113E040F226229C
S2144026E00D490E480E4CA0471748A0470E48A04735
S2144026F000240094234622462146CF20054DA84775
S214402700204603E0002001E06FF0050005B0BDE87C
S214402710F08300BF55204000C4C14000B0B3400025
S2144027204545400078C04000DCB34000691E40008C
S214402730A8C0400035204000DCBC4000E0C040005F
S21440274018C140004CC1400084C1400014094020DC
S2144027502DE9F84FBDF82840002C47D081460E465C
S2144027609246984603012249CB58002B3ED001EBB7
S21440277000139B889BB2002B38D001EB00139B7A4A
S214402780DBB2012B32D1F48001EB0017DFF878B0D2
S214402790BB88E31A1BB2002B03DDBD88ADB2002315
S2144027A001E02546012339682A464046D847A8B95D
S2144027B03B683360B580F3885B1BF3800D4B1B682A
S2144027C02BB10C4B1B683246514648469847641B13
S2144027D0A4B2A844002CDBD1BDE8F88F0648074DCC
S2144027E0A84721460648A8470648A847BDE8F88FA8
S2144027F0E00F40209010402074B640004545400011
S214402800F0C14000DCB34000BD0E4000F0B599B0CA
S2144028101446412819D10023042207A92046A44C77
S214402820A047002840F041819DF81D308DF80C30BF
S214402830A04B1B68002B00F038819E4B1B6803AAF8
S21440284001219DF91C0098472FE10D46422819D1D9
S2144028500023042207A92046954CA047002840F0B4
S21440286024819DF81D308DF80C30924B1B68002B50
S21440287000F01B818F4B1B6803AA02219DF91C00A8
S214402880984712E143283FD100230C220DEB02016A
S2144028902046874CA047002840F007819DF9153018
S2144028A0002B19DB844A02EB03120021D17201216E
S2144028B0917282490A88013292B20A800A8892B29C
S2144028C01AB90A88013292B20A807C4A118889B2C3
S2144028D0794A02EB0312D1808DF81C300223ADF802
S2144028E02030BDF80E30ADF82230049B0993714B72
S2144028F01B68002B00F0D9806E4B1B6807AA04218A
S2144029009DF914009847D0E0442801D04B2824D1A4
S2144029100023042207A92046654CA047002840F023
S214402920C4809DF91C008DF80C009DF91D308DF873
S2144029300D303BB9BDF81E30083B9BB25E4A02EBF9
S214402940001213815B4B1B68002B00F0AE80594B86
S2144029501B6803AA05219847A7E04A2813D10023FD
S214402960442207A92046524CA047002840F09D80AC
S214402970534B1B68002B00F09880514B1B681799EF
S21440298007A8984791E0A0F14603DBB2072B4DD845
S214402990852222FA03F313F0010F47D0482814BFCC
S2144029A0062709270023102203A92046404EB04799
S2144029B000287AD19DF91800BDF81A103E4A02EB5D
S2144029C0001200231373BDF914E0BDF81630BDF8AD
S2144029D00E60ADF82660049E0A96D28892B2914266
S2144029E01BD1BEF1000F0ADDAE4508DA1FFA8EF2A3
S2144029F0009223443A4607A9324CA04755E0ADF82A
S214402A0020E0002307932B4B1B68002B4DD0294B0F
S214402A101B6807AA3946984747E0102D45D9012339
S214402A20002211461046224CA0473EE000F0FD032F
S214402A30452B01D04C2823D1472814BF072508250D
S214402A400023082207A92046194CA04700282CD16D
S214402A509DF91C00BDF82020BDF81E30ADF80C30A6
S214402A60154B03EB0013DB889BB29A421DD1114BEA
S214402A701B68D3B10F4B1B6803AA2946984714E03E
S214402A80522812D10123142207A92046084CA047F9
S214402A9058B90D4B089A1A601B6833B10A4B1B682D
S214402AA09DF82C2009990798984719B0F0BD00BFAB
S214402AB0BD0E400090104020E00F402016094020F8
S214402AC098104020512740009410402008B50A4BEB
S214402AD01B7813F0FF0F0ED1B02200210748084B99
S214402AE0984708490220084B98470122024B1A7023
S214402AF00022064B1A8008BD15094020E00F4020F2
S214402B00610840000D284000CD0F400016094020C7
S214402B10024B1860024B1960704700BF901040206F
S214402B209810402070B586B002284BD101294CD071
S214402B3002294DD04FF0FF3458E0254600EB0413F1
S214402B409B7A13F0FF0F36D12A4800EB0410164646
S214402B5010220021284B9847264B03EB05130122F1
S214402B609A72264A138801339BB2138013889BB20D
S214402B701BB9138801339BB21380204B1A8892B23C
S214402B801C4B03EB0513DA8064B216F0010F2DD010
S214402B9006AA02F8044D174B03EB05152123EB72EA
S214402BA00023029301930093042350210220144DE6
S214402BB0A8471BE00F480134E4B28C42BDD34FF027
S214402BC0FF3413E04FF0FF3410E00721002401E00B
S214402BD00B2107242546074B03EB04139B7A13F07F
S214402BE0FF0FE7D1034800EB0410B0E7204606B0DD
S214402BF070BD00BFE00F402061084000160940202D
S214402C00C5094000002838DB002936D01F4B03EBAF
S214402C1000139B7ADBB2002A32D0012B30D130B57C
S214402C2089B01A4B03EB0013DB7A13F0010F07D081
S214402C30164B03EB0013DB7A8DF81D304B2500E076
S214402C40442504468DF81C00082205A8104B9847DA
S214402C500E4800EB0410C388ADF81E3000230293E4
S214402C60019300930C2305AA29460220094CA0474D
S214402C70002818BF6FF0080005E06FF005007047A9
S214402C806FF00500704709B030BD00BFE00F402030
S214402C904D084000C509400030B589B00C460031AB
S214402CA018BF0121B2F5AF6F88BF0021002936D08A
S214402CB0002834DB1D4B03EB00139B7ADBB2012B61
S214402CC030D18DF81000ADF81220184B03EB0013EE
S214402CD0DB88ADF81C300728B4BF50254425134B7D
S214402CE003EB0013DB7A13F0010F06D00F4B03EB18
S214402CF000100589ADB24C2100E0452102950192B5
S214402D00009410230DEB030241F080010220084C92
S214402D10A04700280CBF00206FF00D0004E06FF0C5
S214402D20050001E06FF0050009B030BDE00F40201F
S214402D30C5094000002918BF002A45D070B586B0A6
S214402D400E461546002836DB214A02EB0012927AE0
S214402D50D2B2012A32D11E4C0101621866509580CB
S214402D60127B12F0FF0F2CD104EB001201211173DD
S214402D70D27A0A40002A0CBF46214D211BB94FF09B
S214402D80FF33049300E004938DF81400104B03EBDC
S214402D900010C388ADF816300023029301930093C9
S214402DA0082304AA02200B4CA04700280CBF002092
S214402DB06FF00D0006E06FF0050003E06FF00500D1
S214402DC000E0002006B070BD6FF00500704700BF01
S214402DD0E00F4020C509400030B587B000282EDB04
S214402DE01B4B03EB00139B7ADBB2012B2AD1044624
S214402DF08DF81400164B03EB0013DA88ADF8162056
S214402E0000229A72DA80DB7A03F001039342029240
S214402E10019200924FF0040305AA0CBF49214E21AF
S214402E2002200C4DA847051E18BF6FF0080510225B
S214402E300021074800EB0410074B984704E06FF06A
S214402E40050501E06FF00505284607B030BD00BF18
S214402E50E00F4020C50940006108400070B582B0D0
S214402E6005462B4B9847C0F30B00B0F5687F4AD316
S214402E7001A941F21040274B98470446002843D109
S214402E80254B019A134025491943019141F21040C0
S214402E90234B9847B5B100212248214DA847AB2186
S214402EA02148A84701212148A84700212048A84793
S214402EB081212048A847204E204D3046A84701286B
S214402EC0FBD115E000211748154DA847B9211648F3
S214402ED0A84701211548A84700211548A847812141
S214402EE01448A847144E154D3046A8470128FBD134
S214402EF00949019B194041F48031019141F210404B
S214402F00074B984700E00024204602B070BD00BF43
S214402F1071184000691B4000FF8F88F800101101AF
S214402F20751B4000080201000C020100140201005B
S214402F301C02010004020100180201005D1B400053
S214402F4010B51048104B98473E2100200F4B98472D
S214402F500F4CA0470028FCD00E4B98470E4A0F4B0C
S214402F609A620F4CA0470028FCD002200D4B984791
S214402F7000200D4B98470D4B98470248024B984708
S214402F8010BD00BF00A3E111FD3B4000813640006C
S214402F90D5364000E5364000013F182000060E407A
S214402FA0F5364000DD35400019364000ED3A400029
S214402FB090B92DE9F0410C469046002A0FDD8F1857
S214402FC0084E094D306821462B6898470134A74281
S214402FD0F8D14046BDE8F0814FF0FF307047002002
S214402FE0BDE8F081A41040209C1040200138022803
S214402FF015D82DE9F0410E4614469AB10D46DFF835
S21440300038800C4FD8F8000015F8011B3B689847ED
S21440301000280ADBA81B013CF4D1BDE8F0814FF044
S214403020FF3070470020BDE8F0814FF0FF30BDE82C
S214403030F08100BFA0104020A4104020F8B54FF407
S2144030400042574B5A60BFF34F8FBFF36F8F554BBD
S2144030500022C3F850225A6942F400325A61BFF344
S2144030604F8FBFF36F8FD3F88060C6F34E3506F0B0
S21440307007070437C6F3C906B6FA86F000F01F0005
S214403080BFF34F8F1C46334605FA07F103FA00F2AA
S2144030900A43C4F86022013BB3F1FF3FF6D1013D3D
S2144030A0B5F1FF3FEFD1BFF34F8F3E4B5A6942F425
S2144030B080325A61BFF34F8FBFF36F8F3A4A3B4916
S2144030C05160A1F580715160BFF34F8FBFF36F8F92
S2144030D0D3F8902222F00102C3F89022D3F894222B
S2144030E022F00102C3F89422BFF34F8FBFF36F8FD5
S2144030F00A202F4CA0470B20A0470C20A0471020AA
S214403100A0471120A0472B4B4FF480721A61C3F89A
S214403110A0201A63A3F580634FF400625A61C3F897
S214403120A0205A66C3F890205A651A62C3F88420D5
S214403130196F21F400611967596F21F400615967CE
S214403140C3F8C020C3F8D420C3F8B0204FF4001210
S2144031501A66C3F890205A655A62C3F88020196FE1
S21440316021F400111967596F21F4001159675A600C
S214403170114AD2F8143143F01003C2F814310F4B01
S21440318010221A66C3F890205A655A62C3F8802007
S214403190196F11431967596F114359675A60F8BD43
S2144031A050180E4000ED00E0000C0E400C08005A8F
S2144031B00537400000120E400080084000100E40C8
S2144031C00AB1416670470166704700BF4264B1F17C
S2144031D0C05F2FD007D8B1F1006F14D0B1F1805F37
S2144031E01ED039B97047B1F1205F37D004D8B1F15D
S2144031F0005F29D042607047B1F1405F2ED0B1F1F8
S214403200605F2BD0F6E710B4046F016FD3432140C4
S21440321019400167446F416F21400B4043671AE0F5
S214403220036F13430367416F436F0B4023EA020368
S2144032304367DFE7016F036F0B4023EA0203036730
S214403240436F13434367D5E7036F13430367436FE7
S21440325013434367CEE742605DF8044B704700BFB8
S214403260416412F0010F01D0416600E0016612F0A1
S2144032700A0F01D0016200E0416212F0020F02D054
S214403280C0F8801004E012F0080F01D0C0F8841097
S21440329041610160704700BF10B44164019C0CB1AD
S2144032A0416600E001660BB1016500E041650AB188
S2144032B0016300E04163016101605DF8044B7047C3
S2144032C012F0100F12D0C0F8B01012F0200F02D03B
S2144032D0C0F8D41001E0C0F8D01012F0400F02D071
S2144032E0C0F8C0107047C0F8C4107047C0F8B4109B
S2144032F0704700BF0164704741647047C06C7047B8
S214403300806C704770B582B00D46474C04EB501445
S214403310640201F0F043B3F1005F4DD009D8B3F139
S214403320805F23D0B3F1C05F33D0B3F1006F77D165
S21440333009E0B3F1405F5DD0B3F1605F5AD0B3F1BE
S214403340205F4CD06CE000F01F00012686403246DD
S2144033504FF000612046354B984715F0010F02D0DC
S214403360666601205DE0266601205AE000F01F00F8
S2144033700126864032464FF0805120462B4B9847D8
S21440338015F0010F02D0666601204AE0266601204D
S21440339047E000F01F000126864032464FF0C051FD
S2144033A02046224B984715F0010F02D06666012052
S2144033B037E02666012034E000F01F0001268640F4
S2144033C032464FF000512046184B984715F0010FF3
S2144033D002D06666012024E02666012021E000F047
S2144033E01F0101262A4606FA01F12046104B98474F
S2144033F0304616E005F0605200F01F01012605EA4F
S21440340006030093C5F38003B2F1605F14BF002249
S214403410012206FA01F12046064CA047304600E05D
S214403420002002B070BD00BF07072000CD3140002D
S21440343061324000993240002DE9F041044688460A
S2144034400E4B9847054620460D4B9847054013D0EF
S2144034500C4C04F160062368434508D16168294254
S21440346005D0E36840469847636825EA0305B442BA
S21440347002D01034002DEED1BDE8F081FD32400080
S214403480013340001C094020F8B5174C2668062E2C
S21440349028D84FF0000C6446144FA64625017D59A7
S2144034A08D4204D107EB04156D68954204D0013473
S2144034B0E4B2A446A642F0D20C4D4FEA0E1E05EBEF
S2144034C00E0445F80E106260A3600699E16001366E
S2144034D0664501D104490E6011461A46044B98478A
S2144034E00020F8BD0120F8BD180940201C094020E6
S2144034F0C132400008B50A210148024B984708BD32
S214403500000E0E403934400008B50B210148024BEE
S214403510984708BD00100E403934400008B50C21CD
S2144035200148024B984708BD00120E40393440000F
S21440353008B510210148024B984708BD00140E40BC
S2144035403934400008B511210148024B984708BD60
S21440355000160E4039344000F8B506460D4614466F
S214403560174B984707464FF0FF313046154B984764
S2144035703046154B98475FFA85FE0EF01F03012232
S21440358002FA03F36809114901EB8002C2F8803061
S214403590C2F88031002D07DA0EF00F0E6401E4B257
S2144035A00B4A02F80E4003E06401E4B2094A54555F
S2144035B041F8203039463046074B9847F8BD00BFA3
S2144035C001334000F9324000FD32400000E100E0A7
S2144035D014ED00E000E400E0F5324000032807D098
S2144035E0042808D002280CBF4FF48072002204E062
S2144035F04FF4407201E04FF4007206490B6B23F41F
S214403600407313430B630A46936E13F0080FFBD0C8
S214403610704700BF00060E40184A136B23F0700335
S21440362018431063936E13F0080F03D009E0013B74
S21440363003D11EE04FF4805310498A6E12F0080FF3
S214403640F5D00E4A136B23F0030343F002031363D3
S214403650906E10F0080004D000207047013B03D164
S21440366009E04FF4805305498A6E12F0080FF5D0F2
S2144036707047012070470120704700BF00060E408B
S21440368038B10E490B6A0E4A1A400E4B13430B6272
S21440369070470A48036A090289B20B4A1A400B4B24
S2144036A01343194301620246936E13F0010FFBD099
S2144036B0024A116A064B0B431362704700060E40DF
S2144036C0FCFFC8FE02003701FCFFC8FF01003700C0
S2144036D000003701024B986E00F48030704700BF00
S2144036E000060E404FF00052014B9A62704700BFF2
S2144036F000060E40024B986E00F00200704700BF76
S21440370000060E403F281ED81F280CD8114B9A6939
S21440371001238340934318D0012303FA00F00D4B56
S21440372018610020704720380A4BD3F8082101233F
S214403730834093430BD0012303FA00F0054BC3F8B4
S214403740000100207047012070470020704700208D
S214403750704700BF00060E4008B5074B984203D19D
S2144037601520064B984708BD054B984202D12A20A3
S214403770024B984708BD00BF008000400537400018
S21440378000800540436823F470234360436809047F
S21440379001F470210B434360704700BF10B443F6FA
S2144037A0992301E0013B0ED0046914F0010FF9D0D3
S2144037B08368406810F0020F02D0C3F303401070D5
S2144037C00B80002000E001205DF8044B704700BFEE
S2144037D030B443F6992401E0013C11D0056915F058
S2144037E0020FF9D0446814F0020F06D0120402F417
S2144037F0702211430BB141F08071C160002000E09F
S214403800012030BC704700BF32B100EB8100036B33
S21440381043F001030363704700EB8100036B23F022
S21440382001030363704700BF32B100EB8100036BB6
S21440383043F002030363704700EB8100036B23F001
S21440384002030363704700BF00EB81010B6B23F05C
S214403850F0030B630B6B1A430A637047431E19440D
S214403860B1FBF0F0431EFE2B94BF00B24FF0FF308A
S214403870704700BF6AB110B4144600EB81010B6B71
S21440388023F47F430B630A6B42EA04220A63002058
S21440389002E04FF0FF3070475DF8044B704700BFC2
S2144038A010B400EB8101086B80B208630C6B44EAED
S2144038B0036343EA02420A635DF8044B704700BF65
S2144038C000EB8111086A7047436913F0020F02D07B
S2144038D0C161002070470120704700BF436913F064
S2144038E0010F03D083690B7000207047012070479A
S2144038F010B40C0194420FD91AE0416841F40021FB
S2144039004160120402F4E0221A43026200201CE0E6
S21440391001201AE0012018E0630803EBC202B2FB64
S214403920F4F2D3085C1E4FF6FE718C42E9D9EFE7FD
S214403930C9004B0803EBC202B2FBF1F2D3085C1E8F
S2144039404FF6FE718C42E5D8D7E75DF8044B7047DA
S214403950084BC0F8E4300023436043628362882308
S2144039600360242303604FF4807303604FF4002306
S214403970036070470041535570B505460C461646E1
S2144039800F4B984700220F4B1A609CB13246216875
S21440399028460D4B9847024670B96168A36819439C
S2144039A023691943E3680B4306490B6069680B4378
S2144039B06B6002E0012200E00122104670BD00BFAD
S2144039C0513940008C094020F138400040230360C4
S2144039D0704700BF10230360704700BF436913F071
S2144039E0020F04D0C1F30801C161002070470120D6
S2144039F0704700BF436913F0010F05D08369C3F3D6
S214403A0008030B600020704701207047FEE700BFA8
S214403A1000B583B0274B284A9A4203D0274B254A05
S214403A209A4204D3264B274A9A420FD31AE021499A
S214403A30254B5B1A23F0030304331F4A134452F802
S214403A40040B41F8040B9A42F9D1EBE71F4B204A8E
S214403A50D21A22F003021A44043B002143F8041B06
S214403A609342FBD11B4A1C4B23F07F039360EFF33A
S214403A701083B3FA83F35B09019372B6BFF35F8F8B
S214403A800022164B1A700199154A136843F47003C6
S214403A901360BFF34F8FBFF36F8F29B101220F4BD7
S214403AA01A70BFF35F8F62B60E4B98470E4B98471F
S214403AB0FEE700BF00004020C8C74000C0084020C6
S214403AC0AC104020C0084020BF084020C40840201A
S214403AD0AF10402000ED00E0000040001400402001
S214403AE088ED00E0F5444000794240003C4B1B6BBB
S214403AF003F00303012B0FD013B1022B29D057E05C
S214403B00384B5B6913F0800F14BF4FF400424FF4FC
S214403B10FA42354B1A604BE0314B1B6A13F0807FFC
S214403B2003D0324A304B1A6042E0314A2E4B1A607C
S214403B302B4B1B6A03F07003102B02D0202B04D0B3
S214403B4036E02C4A284B1A6032E0284A264B1A6048
S214403B502EE0234B1B6A13F0807F03D0234A224B70
S214403B601A6012E0224A204B1A601D4B1B6A03F073
S214403B707003102B02D0202B04D006E01D4A1A4BAF
S214403B801A6002E0194A184B1A60154B1B6B03F07B
S214403B900303022B0CD1124A936A926A1248C3F36B
S214403BA00A41036801FB0333D2B2B3FBF2F303606E
S214403BB00B4B1B6B03F07003702B07D10A4A13683C
S214403BC00D49A1FB03135B0813607047044B1B6B46
S214403BD00549C3F302120B68D3400B60704700BF21
S214403BE000060E4010180E4018004020001BB7007C
S214403BF000093D0000127A00ABAAAAAA124B9842CE
S214403C0004D84FF08062114B1A607047104B9842B0
S214403C1003D8104A0D4B1A6070470F4B984203D892
S214403C200E4A0A4B1A6070470D4B984203D80D4A0D
S214403C30064B1A6070470C4B984294BF4FF00422D4
S214403C400A4A024B1A607047FF2C3101000C0E40A6
S214403C50FF59620200010004FF869303000200043D
S214403C60FFB3C40400030004FFE0F50500050004AC
S214403C70094B1B6813B9094A074B1A60064B1B6869
S214403C801A180749914204DB1046034A106018464A
S214403C9070474FF0FF30704790094020B0324020C8
S214403CA0FCFF45204FF0FF30704700BF4FF40053F5
S214403CB04B600020704700BF0120704700207047CF
S214403CC0044B0B225A669A6E034B1A600122034B32
S214403CD01A70704700C003401C0F4020180F402049
S214403CE010B582B0074B19600B0E0193C1F3074322
S214403CF00093C1F30723CAB201460348034CA047CA
S214403D0002B010BD140F40204CC240004545400054
S214403D102DE9F04188B0434B93F9004084427ED170
S214403D201546052902D0062920D078E03E483F4B6C
S214403D3098473F4B1B78002B71D03DB195F9013029
S214403D40002B03DB01223B4B1A7068E03A48374BA6
S214403D5098470024364B1C70324D95F90000374B7F
S214403D609847FF232B70334B1C7058E0002A4CD0EA
S214403D70B2F90430002B48DD314B1B784BB94FF479
S214403D80AF6230492046304CA04701222C4B1A7077
S214403D9034E02E48254EB0472D4928682D4B98478D
S214403DA004466846B047DFF8D880637A227A4146B0
S214403DB06846294FB8476846284DA847284B18708C
S214403DC0C1B22848B047237BE27A41466846B847A6
S214403DD06846A847244B1870C1B22448B047E37BD6
S214403DE0A27B41466846B8476846A847204B1870AD
S214403DF0C1B22048B0470022114B1A704FF4AF6250
S214403E00002110481C4B984709E01C48074B984730
S214403E10044C94F90000094B9847FF23237008B0E0
S214403E20BDE8F0811C0040207CC240004545400073
S214403E30100F4020120F402090C24000D92D400065
S214403E409509402098094020352D4000ACC24000DE
S214403E50C0C24000554B400069474000ED4440001A
S214403E601D004020D4C240001E004020E4C2400056
S214403E701F004020F4C240006D45400004C340008F
S214403E80CCC2400010B582B02C2802D0322811D0C7
S214403E901CE00B78012B05D10D480E4B98470E4B76
S214403EA0984713E093B90D480A4B984700220C4BAD
S214403EB01A700BE08B784A780878C97800910146EA
S214403EC00848044CA0470122054B1A7002B010BDAA
S214403ED020C34000454540009916400040C340007E
S214403EE0110F402064C34000F0B583B005460C4631
S214403EF000230193294B984207D11F46284E21465E
S214403F003846B0470028FAD115E0264B984207D1EC
S214403F101F46234E21463846B0470028FAD115E0C2
S214403F20214B984207D11F461D4E21463846B04782
S214403F300028FAD117E01D4B9D4207D11F46184E68
S214403F4021463846B0470028FAD119E0184B9D4222
S214403F5009D11E46174D01A93046A8470028FAD178
S214403F60019B237018E0144B9D4209D11E46114D0B
S214403F7001A93046A8470028FAD1019B23700BE0E0
S214403F800E4B9D4208D11E460A4D01A93046A84711
S214403F900028FAD1019B237003B0F0BD00080E4004
S214403FA0DD384000000A0E40001A0E40001C0E404D
S214403FB000400240F53940000080024000C0024008
S214403FC070B50C462A4B984208D11E46294D2146CC
S214403FD03046A8470028FAD1012070BD264B9842AB
S214403FE008D11E46234D21463046A8470028FAD120
S214403FF0012070BD214B984208D11E461D4D2146DA
S2144040003046A8470028FAD1012070BD1C4B984284
S21440401008D11E46174D21463046A8470028FAD1FB
S214404020012070BD174B984208D11E46164D2146BA
S2144040303046A8470028FAD1012070BD134B98425D
S21440404008D11E46104D21463046A8470028FAD1D2
S214404050012070BD0E4B984208D11E460A4D21469F
S2144040603046A8470028FAD1012070BD002070BD18
S21440407000080E40C9384000000A0E40001A0E40A4
S214404080001C0E4000400240DD39400000800240E7
S21440409000C00240F0B40138002422462546264699
S2144040A010F8013F2E2B0BD001D863B127E0A3F1C7
S2144040B03007092F23D802EB820207EB420207E0C3
S2144040C00135032D1DDCFF2A1DD842EA0424324662
S2144040D0002BE5D1022D03DCC5F10303DB009C4039
S2144040E099B1220E42EA0462230203F47F031A4384
S2144040F0230A03F47F4313430B60012006E00020AD
S21440410004E0002002E0002000E00120F0BC704700
S2144041104FF48052074B1A6103F540634FF48072A8
S2144041201A601A6108B95A6370474FF48072024B9E
S2144041301A63704700060E4000120E404FF480622D
S214404140074B1A6103F500634FF080721A601A61DC
S21440415008B95A6370474FF08072024B1A63704733
S21440416000060E40000E0E404FF48062064B1A6169
S21440417003F5006340221A601A6108B95A63704713
S2144041804022024B1A63704700060E40000E0E4057
S2144041904FF48032074B1A6103F560634FF40062B8
S2144041A01A601A6108B95A6370474FF40062024BAE
S2144041B01A63704700060E4000140E4070B582B079
S2144041C001211F481F4B98470190019B02221E4B1E
S2144041D01A601E4C4FF4AF62002120461C4B984795
S2144041E01C4D0FCD0FC40FCD0FC495E80F0007C46C
S2144041F02370194B1B7803B32C3C21461748184BA9
S21440420098472046174B9847174D002382B22146C1
S21440421095F90000154EB0474FF4AF663246002180
S21440422020460B4B984700233246214695F900001E
S2144042300F4CA04700220F4B1A7002B070BD00BF53
S21440424000C00040C138400000C0034098094020EC
S2144042506D4540008CC34000120F4020BCC3400058
S21440426045454000C14740001C004020992C400076
S214404270352D40009409402070B59CB0664B984759
S214404280664B98470E20664EB047664D664B1D609F
S214404290664A674B1A60674A674B1A604FF4E133C9
S2144042A00393C02304934FF40063059300240694BD
S2144042B007940E20B047614A03A92846604B9847AA
S2144042C02846604B984728465F4B98475F4E336872
S2144042D0214698685E4DA847336821465868A847E7
S2144042E05C485D4B98475D4B984720465C4B9847EB
S2144042F001205C4B984701205B4B984701205B4B65
S21440430098471794189419941A941B94584B1693DC
S21440431016A8584B984720B1014657484E4B9847E9
S214404320FEE7564B984756495648574B9847FF2303
S2144043300093564B022214215548564CA047564CE3
S2144043402046564B98470CA8554B98470CA92046F4
S214404350544B9847636823F08F0363600123524AA7
S2144043600B212046514DA8470BA8514B9847002398
S2144043708DF82D300BAA0B2120464E4B98470B2329
S21440438063664FF40073E36609A84B4B984709A948
S21440439020464A4B98474FF40063636102232360EC
S2144043A0474D484C484E0020A8472378002BFAD06B
S2144043B03378002BF7D1454B93F90030002B0CDABD
S2144043C0002201210220424B9847404B187000289B
S2144043D003DA4048204B9847E5E713A93E483F4B51
S2144043E0984713993E481C4B98470223ADF84830EF
S2144043F048F61303ADF84A30102212A9334B93F90E
S2144044000000384B984718B13748134B9847CAE7CF
S21440441001233370C7E700BF412F40003D304000C6
S2144044200537400000800240A4104020C13F4000B5
S214404430A0104020E93E40009C10402080D1F0086B
S21440444079394000CD394000D539400048044020F5
S21440445009464000C8C340004545400009054000A5
S214404460114140003D4140006941400091414000BB
S214404470853E4000311340002CC44000CD2A400009
S214404480E13C4000113D4000112B400054C4400028
S21440449060C440007D16400000C003403104400028
S2144044A061024000B1024000C13C4000B103400000
S2144044B0910240001D0240009D0240004D02400017
S2144044C02D144000110F4020100F40201C004020AB
S2144044D0252B400074C44000A8C4400095404000CE
S2144044E0B4C44000052C4000C8C440000A22002145
S2144044F000F0D4BC70B50F4E0F4D761BB61018BFEB
S214404500002405D0013455F8043B9847A642F9D11B
S2144045100A4E0B4D761B08F041F9B61018BF002422
S21440452006D0013455F8043B9847A642F9D170BDF1
S21440453070BD00BFA8C74000A8C74000B0C7400035
S214404540A8C740000FB400B5074983B004AB08685D
S21440455053F8042B8168019302F036F803B05DF8F7
S21440456004EB04B0704700BF4804402070B4840792
S21440457046D0541E002A41D0CDB2034602E0621E09
S214404580E4B3144603F8015B9A07F8D1032C2ED9FE
S214404590CDB245EA05250F2C45EA054519D903F164
S2144045A010022646103E0F2E42F8105C42F80C5C75
S2144045B042F8085C42F8045C02F11002F2D8A4F11A
S2144045C0100222F00F0204F00F041032032C1344A2
S2144045D00DD91E462246043A032A46F8045BFAD80A
S2144045E0221F22F003020432134404F003042CB1C9
S2144045F0C9B21C4403F8011BA342FBD170BC7047F0
S21440460014460346C2E700BF00290CBF0222002220
S2144046104FF4806300F000B82DE9F043514C256814
S21440462083B004460F4690461E4615B1AB6B002B32
S21440463079D0B8F1020F04D0B8F1010F7FD8002E20
S2144046407DDB2146284603F0CBFF216B41B104F1C8
S2144046504003994202D0284604F020F90023236301
S214404660B4F90C300022A26162601A0654D423F4D6
S2144046704A6323F00303B8F1020FA38139D001AB9C
S2144046806A462146284604F0ABFBA3891843A0811E
S21440469026B327B3AB6B002B4DD0009BB4F90C0070
S2144046A027609E421CBF40F40060A081B8F1010F15
S2144046B008BF40F0010083B208BFA08103F00800A5
S2144046C080B22761666118B313F001002FD0002036
S2144046D07642A661A06003B0BDE8F083009E3046F7
S2144046E004F0F2FB074668B3A38943F08003A38136
S2144046F0D0E7002004F1430243F0020300250121E5
S214404700A381A56022602261616103B0BDE8F083A9
S214404710A06003B0BDE8F0832169284604F0BEF8E7
S214404720B4F90C30A3E7284603F0EEFF81E7A66015
S21440473003B0BDE8F083284603F0E6FFADE74FF050
S214404740FF30E2E7DDF80090B14506D0484604F079
S214404750BBFB074608B14E46C6E7B4F90C304FF0EF
S214404760FF30C7E7480440200EB4F0B59CB021ABFC
S2144047700F4953F8042B019305466FF00044086830
S21440478002954FF402774FF6FF7602A90695ADF8EC
S214404790147004940794ADF8166000F08BFB029BEF
S2144047A000221A701CB0BDE8F04003B0704700BF4E
S2144047B04804402000000000000000000000000008
S2144047C090F800F06DE9024520F007016FF0000C0C
S2144047D010F0070491F820F040F049804FF00004B4
S2144047E06FF00700D1E9002391F840F000F108008F
S2144047F082FA4CF2A4FA8CF283FA4CF3A2FA8CF3C7
S2144048004BBBD1E9022382FA4CF200F10800A4FA2D
S2144048108CF283FA4CF3A2FA8CF3E3B9D1E9042381
S21440482082FA4CF200F10800A4FA8CF283FA4CF3B8
S214404830A2FA8CF37BB9D1E9062301F1200182FA72
S2144048404CF200F10800A4FA8CF283FA4CF3A2FA78
S2144048508CF3002BC6D0002A04BF04301A4612BA86
S214404860B2FA82F2FDE8024500EBD2007047D1E989
S214404870002304F00305C4F100004FEAC50514F018
S214404880040F91F840F00CFA05F562EA05021CBFE9
S21440489063EA050362464FF00004A9E72DE9F041BC
S2144048A04FF0010E744600254FF0FF362B198B4211
S2144048B000EB06070DD23F5D10F803C0BC452DD275
S2144048C01D460124C6EB030E2B198B4200EB060750
S2144048D0F1D34FF00108C2F800E0444600254FF0FF
S2144048E0FF372B19994200EB070E0ED91EF804E04D
S2144048F010F803C0F44518D91D460124C7EB030839
S2144049002B19994200EB070EF0D80137701C8742EE
S21440491024BFC2F800803846BDE8F0810CD04FF086
S214404920010E2E4674467544C0E70CD04FF0010881
S2144049302F4644464544D4E7744509BFA64601344D
S2144049401D460124B2E7444509BFA04601341D4632
S2144049500124C6E72DE9F04FADF2144D1646054644
S2144049608B461046194603AA1C46FFF797FF03AB33
S21440497081460DF20C4243F8044F9342FBD14CB1B2
S214404980631E324604A812F8011B40F8213013F18A
S214404990FF33F8D203994A463144304604F0A8FD26
S2144049A0002871D109F1FF330093F3188246019332
S2144049B023468046544658469A4608EB0A073A1A13
S2144049C00021284404F044FD002858D1002F56D03A
S2144049D0EB1904AA13F8013C52F823304BB124B12A
S2144049E0039A934201D2C2EB0A0398440024384605
S2144049F0E3E74C4523460AF1FF3E38BF4B46734536
S214404A0013D208EB030216F803C0A85C84452A4478
S214404A1006EB030106D02EE011F801CF12F8010F85
S214404A20844528D101337345F6D34C45009980F030
S214404A308B80009B019808EB03020378A85C8342B6
S214404A402A4440F08180019B06EB040B06E013F8F5
S214404A5001ED12F8010D864504D161469B4501F1F2
S214404A60FF3CF4D101348C4270D8039C3846A044B5
S214404A70C4EB0A04A1E7C9F101029044B5E700205F
S214404A800DF2144DBDE8F08FC9EB04034B4538BF1B
S214404A904B46013309F1FF38039306EB08035846AB
S214404AA04FF0000ACB4699460AEB04073A1A002113
S214404AB0284404F0CDFC0028E1D1002FDFD0EB19CC
S214404AC004AA13F8013C52F82330A3BB611E8B4561
S214404AD015D20AEB0B0216F80B3015F802E09E458D
S214404AE02A4406EB0B005B4606D027E010F801CFC1
S214404AF012F801EFF44521D101338B42F6D3B8F1D9
S214404B00FF3F11D00AEB080299F80010AB5C9942BF
S214404B102A440FD14B4605E013F8010D12F8011D4B
S214404B20884207D1B342F7D105EB0A000DF2144D87
S214404B30BDE8F08F039B9A443846B5E7CBF10102B7
S214404B4092449A443846AFE749468BE705EB08005F
S214404B5096E700BF0378002B00F004812DE9F04F64
S214404B6091F8008085B04446B8F1000F16D08646CE
S214404B7001F1010C012703E012F8014B6CB1944699
S214404B809C4214BF002707F001071EF8013F62460B
S214404B90002BF1D19CF800300BBB17B105B0BDE837
S214404BA0F08F0E46054641460130C6EB0C0405F034
S214404BB027FB074698B1012CF0D02819874294BFAE
S214404BC0C7EB000B4FF0010B1F2C0CD92346324687
S214404BD059463846FFF7BEFE05B0BDE8F08F0020C8
S214404BE005B0BDE8F08F03AA21463046FFF756FED3
S214404BF00399804602463144304604F079FC00284A
S214404C0058D108F1FF330193F318814605460093C7
S214404C105846B2466619321A0021384404F018FC49
S214404C200028DCD1002EDAD0C845434638BF4B4674
S214404C309C4212D95A191AF80310B85C88423A4472
S214404C400AEB030E06D02DE01EF8010F12F8011FE6
S214404C50884227D101339C42F6D8019BC845194665
S214404C6040F28380EA1800980378B85C83423A445E
S214404C707BD1009B0AEB090B06E013F801CD12F836
S214404C8001EDF44504D101465B4501F1FF30F4D116
S214404C9009F10109894557D8039B30461D44C3EBAB
S214404CA00409B7E7C8F1010215441D444FF0000956
S214404CB03046AFE7C8EB0403434538BF43460133AD
S214404CC008F1FF39039306EB090358460025BB4617
S214404CD09A4667193A1A0021584404F0B9FB00284E
S214404CE07FF47DAF002F3FF47AAF444515D908EBEB
S214404CF0050216F808301BF8020098425A4406EBA4
S214404D000801434606D023E011F801EF12F8010FE0
S214404D1086451DD101339C42F6D8B9F1FF3F12D0EB
S214404D2005EB09029AF800101BF8023099425A44E3
S214404D3014D1534605E013F8010D12F8011D8842C0
S214404D400CD1B342F7D15F46781905B0BDE8F08F75
S214404D50C8F1010215441D443846BAE7039B38465D
S214404D601D44B6E70B7813B97047414690E70020DC
S214404D70704700BF2DE9F04F474C83460E46D4F8A7
S214404D8000E000E02646344614F8015B0EEB0500D2
S214404D90407800F0080000F0FF080028F2D12D2DE2
S214404DA05CD02B2D04BF7578B41C002B3ED0102B46
S214404DB060D09A46B8F1000F0CBF6FF000404FF03D
S214404DC000400027B0FBFAF9BC460AFB19000CE08D
S214404DD0303DAB4219DD7E1C05D0CC4523D820D0D3
S214404DE00AFB0C5C012714F8015B0EEB050676788F
S214404DF016F0040FECD116F0030606D0012E14BFB1
S214404E0057263726AD1BAB42E5DC7B1C16D0B8F1E7
S214404E10000F10D16046002A39D0DFB91160BDE8D6
S214404E20F08F8542DCDD4FF0FF37DCE7302D1AD0BF
S214404E300A239A46BEE7CCF1000CEBE7B8F1000F28
S214404E404FF022030CBF6FF000404FF00040CBF80D
S214404E500030F2B1611E1160BDE8F08FB41C757869
S214404E604FF00108A1E7237803F0DF03582B08D062
S214404E7008239EE7302D9CD1207800F0DF0058288C
S214404E8097D14FF0100A65785346023492E7BDE852
S214404E90F08FBDE8F08F00BF4C04402010B4044CA7
S214404EA013460A460146206810BCFFF763BF00BFA2
S214404EB0480440202DE9F04FC1B00C4609911546F4
S214404EC00E930A9003F088FF036817931846FFF77F
S214404ED077FCA38916901E0603D52369002B01F0A4
S214404EE0198100231A4612932593249319930B9302
S214404EF0DFF864A4149230AB239399461592A846E3
S214404F0098F800304446EBB1252B02D11AE0252B09
S214404F1003D014F8013F002BF9D1C8EB04058DB13E
S214404F20249B259AC9F8008001332A44072BC9F8E8
S214404F3004502592249300F3A68009F108090B9BA0
S214404F402B440B932378002B00F0A68000231A46B0
S214404F508DF86F3019460C9307934FF0FF3B6378FC
S214404F6004F101085D4608F10108A3F12000582825
S214404F7000F22584DFE810F088032304230490031E
S214404F802304230423042304230423049703A503B0
S214404F9023045D00E2002304FE000501050105012F
S214404FA0050105010501050105010501230423044A
S214404FB02304230423042304230423042304230474
S214404FC015018102230481022304230423042304BD
S214404FD0C60223042304CD0223042304230423040B
S214404FE02304F70223042304250323042304230471
S214404FF023042304230423042304230423046603F2
S2144050007903810281028102810379032304230408
S214405010D1032304DB03A3006400EE032304F5035B
S2144050202304AA0323042304BC030C980E93404293
S2144050300C90079B43F00403079398F8003092E7E0
S2144050400E98AB46002104688DF86F10071D079830
S214405050302378228B458DF870304FF000058DF860
S214405060712040F00203C0F2C78320F0800343F073
S2144050700203079354EA05030E9700F093830F4606
S2144050801192B348CEE223AA09990A9805F020F96E
S21440509048B90DF1C00952E7259B23B10A980999F2
S2144050A023AA05F015F9099B9B8913F0400F0B9B2B
S2144050B018BF4FF0FF33184641B0BDE8F08F11934C
S2144050C0AB46002A41F02382079A12F0200300F0F4
S2144050D02E820E9F073727F00703002703F10801AB
S2144050E0BB450E91D3E900458DF86F70C0F25287EC
S2144050F022F08003079354EA050300F0758330AE30
S214405100E20842EA4572E90804F007030D461446F1
S214405110303354EA050206F8013DF1D1079AD1072B
S21440512040F18480302B00F081803022731E06F8D8
S214405130012C30AAD21A0D921E467AE098F800301A
S2144051402A2B08F1010401F0B181A3F130000928AF
S21440515098BF002501F2648114F8013B05EB8505F4
S21440516000EB4505A3F130000928F5D945EAE57579
S214405170A046FAE6079B43F08003079398F8003072
S214405180F1E6A3F1300000231C4618F8013B04EB7F
S214405190840400EB4404A3F130000928F5D90C94AC
S2144051A0E3E61193AB46002A41F0C981079B43F0E2
S2144051B010030793079B980640F130850E9F0737EC
S2144051C027F00707D7E9002307F108010E91144698
S2144051D01D46002A73F10003C0F25B85BBF1000F49
S2144051E09DF86F70C0F23885079B23F080030793C5
S2144051F054EA050300F0DB81002D08BF0A2CC0F0FE
S214405200DB8130AE204629460A22002305F03CFFCB
S214405210303206F8012D2046294600230A2205F0A2
S21440522033FF04460D4654EA0503EBD130AB9B1BD7
S2144052300D930D9B5B45B8BF5B46089300231393C5
S21440524017B1089B01330893079B13F002030F9393
S21440525002D0089B02330893079B13F084031093F5
S21440526040F0D7820C9B089A9D1A002D40F3D182BD
S214405270102D2599249A374F27DD18964846102436
S214405280B946099E2F460A9D04E0103F102F00F1B4
S214405290080016DD01322F4B24921031072A259143
S2144052A080E81800F1DD23AA3146284605F010F8BC
S2144052B000287FF4F8AE103F102F2599249A30A886
S2144052C0E8DC189E3D464F46814601326C18072A58
S2144052D025942492C9F80070C9F8045000F3288435
S2144052E09DF86F7009F1080977B1249B01330134AA
S2144052F00DF16F010122072B2594249389E80600BF
S21440530000F3A08309F108090F9B6BB1249B01337E
S21440531002341CA90222072B2594249389E8060010
S21440532000F39C8309F10809109B802B00F0D5827E
S2144053300D9BC3EB0B07002F39DD074A249B0F92CA
S214405340102F28DD22464FF0100B0A9D099C0AE0DC
S2144053502CC540004CC54000F8C44000103F102FFC
S21440536009F1080916DD01331032072B25922493E4
S21440537089E8000CF2DD23AA2146284604F0A8FF5F
S21440538000287FF490AE103F102F259A249B0DF1F5
S214405390C009E8DC144601330F9A24933C44072B9B
S2144053A0259489E8840000F3418309F10809079BA6
S2144053B0DA0500F13082249B0D99C9F8006001336C
S2144053C00C44072B2594C9F80410249300F3188343
S2144053D009F10809079B59073FD50C9B089A9D1A67
S2144053E0002D3ADD102D249BBC4F23DD224610268F
S2144053F0DDF828B0099C04E0103D102D09F108099D
S21440540017DD0133B54924931032072B259289E8DE
S2144054104200F1DD23AA2146584604F059FF0028F1
S2144054207FF441AE103D102D259A249B0DF1C00906
S214405430E7DC144601332C44072B25942493C9F803
S2144054400070C9F8045008DD23AA09990A9804F0A8
S2144054503FFF00287FF427AE259C0B9B0C9A0899AB
S2144054608A42ACBF9B185B180B93002C40F0D4824A
S214405470002324930DF1C00942E51193AB46002A60
S21440548041F059800E9F073727F0070303F10802C3
S2144054900E921A6814925B681593159B149D23F020
S2144054A00044284621464FF0FF328D4B05F0AEFDB6
S2144054B0002840F0C184284621464FF0FF32884BF2
S2144054C005F086FD002840F0B78414981599002210
S2144054D0002305F073FD002840F04B879DF86F7061
S2144054E0804E814B079921F0800107911199032244
S2144054F04FF0000B08924729D8BF1E460D92CDF8B4
S2144055004CB09DE6079B43F00803079398F800309D
S21440551029E51193AB46002A41F00980079B43F0EA
S21440552010030793079A12F020037FF4D2AD079931
S21440553011F0100200F007850E988DF86F30BBF121
S214405540000F046800F104074FF00005C0F2218503
S2144055500A4622F08002079254EA05020E9700F0AF
S21440556043811F46CBE51193AB46002A40F0D787D0
S214405570079B43F010030793079A12F0200300F0AE
S21440558032830E9F073727F00703002703F10801F1
S214405590BB450E91D3E900458DF86F70C0F25C8331
S2144055A022F08003079354EA05037FF425AEBBF14F
S2144055B0000F00F0FE80002440AE303406F8414D27
S2144055C034E61193AB46002A40F0A587079B474830
S2144055D09D0640F197800E9F073727F00703D3E9D3
S2144055E0004503F108020E92079A12F0010700F0F8
S2144055F0418254EA050300F0F5849DF844208DF876
S21440560071200027079A8DF86F703023BB458DF8C0
S214405610703042F00203C0F2A98622F0800343F0C5
S2144056200203079330AE230904F00F0143EA0573E3
S2144056302A091C461546435C06F8013D54EA050314
S214405640F1D1F3E50E9911930A688DF8982000235E
S2144056500A461F468DF86F30043201230893BB4636
S21440566013970E920D9326AEEEE51193AB46002AA5
S2144056703FF4A0AD8DF86F109CE5079B43F04003C8
S214405680079398F800306EE498F8003000297FF4CD
S2144056906AAC0122202166E4079B43F0010307938E
S2144056A098F800305FE40E9C23680C931846002858
S2144056B0234603F10403FFF6B8AC0E9398F8003087
S2144056C051E498F8003001222B214CE41193AB466C
S2144056D0002A3FF451AF8DF86F104DE74CC540009F
S2144056E0FFFFEF7F0CC5400008C5400018C54000CE
S2144056F01193AB46002A40F00387079B99489D06C6
S2144057003FF569AF079BDC0640F15E840E9A134670
S214405710043314680E93002566E798F800306C2B27
S21440572000F0E184079840F0100007901BE4002A40
S21440573040F0DB86079B9B0640F12F840E9A0B9920
S2144057401368CD170846043229460E92C3E9000175
S214405750FFF7D6BB079B43F02003079398F800302B
S21440576001E40E9A1193166800248DF86F40171DB9
S214405770002E00F0BD85002DC0F20F852A4621463A
S214405780304603F065FE002800F00486831B0D9328
S214405790A34623EAE3730E970893CDF84CB09DF8E2
S2144057A06F704DE56F481192BBF1000F40F073816A
S2144057B05F464FF0000BCDF834B030AE39E511936C
S2144057C0002A40F0B086119A002A3FF465AC0023C8
S2144057D001211F4608918DF898208DF86F309B4622
S2144057E013930D9126AE2FE5BBF1000F00F0DD853B
S2144057F000270024002582E45A480793119254EA71
S21440580005030E974FF000077FF40CAF00240025E9
S21440581008E7259C68E5119B652B40F3A980149802
S21440582015990022002305F0BFFB002800F03581C3
S214405830249B4D4AC9F80020013301340122072B2E
S21440584025942493C9F8042000F3E68309F1080957
S2144058501D9B129A934203DB079BDB077FF5BAAD8D
S214405860249B1699179AC9F8002001330C44072B3D
S2144058702594C9F80410249300F33F8409F10809DD
S214405880129B5D1E002D7FF7A5AD384A249B0F92D4
S214405890102D40F3E68110260A9FDDF824B005E07F
S2144058A009F10809103D102D40F3DB810133103417
S2144058B0072B25942493C9F800A0C9F80460EFDDAF
