S026000050726F6A65746F322D4F74696D697A6163616F2D456E65726765746963612E7372656388
S21440000090254020811140003112400031124000BE
S2144000103112400031124000311240000000000012
S2144000200000000000000000000000003112400008
S21440003031124000000000003112400031124000F2
S2144000403112400031124000A117400031124000EA
S214400050311240003112400031124000311240004F
S21440006031124000000000001908400031084000EE
S2144000704908400031124000311240003112400021
S21440008061084000790840003112400031124000BB
S214400090311240003112400031124000311240000F
S2144000A05D174000311240003112400031124000CE
S2144000B031124000311240003112400031124000EF
S2144000C031124000311240003112400031124000DF
S2144000D000000000311240000000000031124000D5
S2144000E031124000311240003112400031124000BF
S2144000F031124000311240003112400031124000AF
S214400100311240003112400031124000311240009E
S2144001103112400000000000000000000000000017
S214400120311240003112400031124000311240007E
S21440013031124000000000003112400031124000F1
S21440014010B5054C237833B9044B13B10448AFF3CC
S21440015000800123237010BD3004402000000000C2
S214400160E81C4000084B10B51BB108490848AFF3DF
S21440017000800848036803B910BD074B002BFBD02E
S214400180BDE81040184700BF00000000340440207F
S214400190E81C4000E81C40000000000080B582B02B
S2144001A000AF78607B68072B31D801A252F823F065
S2144001B00D024000D1014000D9014000E10140005D
S2144001C0E9014000F1014000F9014000030240000F
S2144001D00020114B98471AE001200F4B984716E035
S2144001E000200E4B984712E010200C4B98470EE02C
S2144001F020200A4B98470AE03E210020084B9847AB
S21440020005E03E210120064B984700E000BF00BFB6
S2144002100837BD4680BD00BF91094000FD0940003B
S2144002206D0A400080B582B000AF78607B68072BCF
S21440023026D801A252F823F0590240005D02400041
S2144002405D0240006F0240006F0240006F024000B7
S2144002506F0240006F024000012312E00B4B9847AC
S2144002600346002B14BF01230023DBB209E0084BF2
S21440027098470346002B14BF01230023DBB200E05F
S214400280002318460837BD4680BD00BFC909400058
S214400290E50A400080B483B000AF78607B68072BE7
S2144002A025D801A252F823F0C9024000CF024000F0
S2144002B0D5024000DB024000DF024000E30240007F
S2144002C0E7024000EB0240004FF4FA4310E04FF4E0
S2144002D000430DE04FF400430AE0084B08E0084BAB
S2144002E006E0084B04E0074B02E0064B00E0002324
S2144002F018460C37BD465DF8047B704700093D0044
S21440030000127A00001BB70080B582B000AF0346EB
S214400310FB7100BFFB791846054B9847034683F0B0
S2144003200103DBB2002BF5D100BF0837BD4680BDC8
S2144003302502400080B586B000AFF8607A603B602A
S2144003400B46FB727B68002B07D13B68002B04D121
S214400350FB684FF470021A6019E0FB7A18460E4BA1
S214400360984702467B68B2FBF3F37B617B693A6849
S21440037002FB03F37B613B68013B1A04074B1340C7
S2144003807A68D2B2134343F47C52FB681A6000BFCB
S2144003901837BD4680BD00BF950240000000FF07ED
S2144003A080B582B000AF786039603B68002B08D1DA
S2144003B0094B9847094A7B681B6843F00053936291
S2144003C005E0064A7B681B6843F48033D36100BF70
S2144003D00837BD4680BD00BF010B400000060E40FA
S2144003E080B582B000AF78607B68002B03D1054BA8
S2144003F09847034602E0044B98470346184608379A
S214400400BD4680BD1D0B4000390B400080B582B014
S21440041000AF0346FB71FB79033B042B08D8FB79FE
S2144004201846064B9847FB791846054B984700E018
S21440043000BF00BF0837BD4680BD00BF9D014000DD
S2144004400903400080B582B000AF786000BF78688E
S214400450044B98470346002BF9D00023184608372C
S214400460BD4680BDE103400080B500AF0620054B89
S2144004709847024613469B0013449A001344184676
S21440048080BD00BF9502400080B500AF024B984744
S21440049003469B09184680BD6904400090B583B06A
S2144004A000AF1348134B98470620134B9847381D08
S2144004B0192301220621114CA0473B1D0021184656
S2144004C00F4B984700200F4B984702200E4B9847FB
S2144004D060200E4B98470E4B98470E4B9847034666
S2144004E01846044B984700BF0C37BD4690BD00BF2A
S2144004F000A3E111A51340000D0440003503400061
S214400500A103400045044000910840000D0940000A
S214400510391240008904400080B485B000AFF860CE
S214400520B9607A607B68002B03D0FB68BA685A666D
S21440053002E0FB68BA681A6600BF1437BD465DF82D
S214400540047B704780B483B000AF786039607B68C6
S2144005503A681A6300BF0C37BD465DF8047B7047A7
S21440056080B483B000AF786039607B683A685A637D
S21440057000BF0C37BD465DF8047B704780B487B03B
S21440058000AFF860B9607A60FB687A685A64BB6806
S214400590B3F1C05F4AD0B3F1C05F08D8B3F1006F83
S2144005A016D0B3F1805F2CD0002B69D064E0B3F155
S2144005B0205F65D0B3F1205F03D8B3F1005F4AD027
S2144005C05AE0B3F1405F5BD0B3F1605F58D053E080
S2144005D0FB681B6F7B61FB681A6F7B68D9437B693E
S2144005E00B401A40FB681A67FB685B6F7B61FB68D1
S2144005F05A6F7B68D9437B690B401A40FB685A6741
S2144006003AE0FB681B6F7B617A687B691A43FB683C
S2144006101A67FB685B6F7B61FB685A6F7B68D943E0
S2144006207B690B401A40FB685A6725E0FB681B6FE6
S2144006307B61FB681A6F7B68D9437B690B401A4025
S214400640FB681A67FB685B6F7B617A687B691A4355
S214400650FB685A6710E0FB681B6F7B617A687B69B2
S2144006601A43FB681A67FB685B6F7B617A687B6935
S2144006701A43FB685A6700BFFB687A685A6000E016
S21440068000BF1C37BD465DF8047B704780B584B01C
S21440069000AFF860B9607A603B60B968F868124BA2
S2144006A09847BA69B968F868104B98473B68002B7A
S2144006B003D0FB68BA681A6502E0FB68BA685A65F8
S2144006C07B68002B03D0FB68BA681A6302E0FB68BD
S2144006D0BA685A63FB68BA681A61FB68BA681A60F7
S2144006E000BF1037BD4680BD1907400019054000C1
S2144006F080B483B000AF786039607B689A6B3B68A3
S2144007001340002B01D1002300E0012318460C378C
S214400710BD465DF8047B704780B483B000AF786018
S21440072039607B683A685A6400BF0C37BD465DF84E
S214400730047B704780B483B000AF78607B68DB6C26
S21440074018460C37BD465DF8047B704780B483B0CE
S21440075000AF78607B689B6C18460C37BD465DF8EA
S214400760047B704780B584B000AF786039607868A5
S214400770264B9847F8607868254B98470246FB68B2
S2144007801340FB60FB68002B3CD00023BB6034E08A
S214400790204ABB681B0113441A683B689A4226D11C
S2144007A01C4ABB681B01134404331A68FB68134099
S2144007B0002B1CD0174ABB681B0113440C331B6824
S2144007C01449BA6812010A4410681249BA681201FC
S2144007D00A4404321268114698470E4ABB681B0109
S2144007E0134404331B68DB43FA681340FB60BB6862
S2144007F00133BB60BB68062B03D8FB68002BC7D110
S21440080000E000BF00BF1037BD4680BD3507400042
S2144008104D0740004C04402080B500AF0A210248F6
S214400820024B984700BF80BD000E0E406507400053
S21440083080B500AF0B210248024B984700BF80BDF1
S21440084000100E406507400080B500AF0C210248FE
S214400850024B984700BF80BD00120E40650740001F
S21440086080B500AF10210248024B984700BF80BDBC
S21440087000140E406507400080B500AF11210248C5
S214400880024B984700BF80BD00160E4065074000EB
S21440089080B483B000AF78607B68013B032B1AD8E6
S2144008A001A252F823F000BFB9084000BF0840003C
S2144008B0C7084000CF08400000237B600EE04FF49E
S2144008C080737B600AE04FF440737B6006E04FF431
S2144008D000737B6002E000237B6000BF0A490A4B3E
S2144008E01B6B23F440727B6813430B6300BF064BBD
S2144008F09B6E03F00803002BF9D000BF0C37BD46B3
S2144009005DF8047B704700BF00060E4080B485B09B
S21440091000AF78601D491D4B1B6B23F070027B684F
S21440092013430B634FF48053FB6007E0FB68002BD8
S21440093001D1012323E0FB68013BFB60134B9B6E18
S21440094003F00803002BF1D0104A104B1B6B23F02A
S214400950030343F0020313634FF48053FB6007E046
S214400960FB68002B01D1012309E0FB68013BFB60DB
S214400970064B9B6E03F00803002BF1D0002318466D
S2144009801437BD465DF8047B704700BF00060E4036
S21440099080B483B000AF78607B68012B05D10749EF
S2144009A0064B9A68064B13438B60044B054A1A6005
S2144009B000BF0C37BD465DF8047B704710180E40EC
S2144009C0000010A5080000A580B400AF094B5B6985
S2144009D003F08003002B07D0074B9B6E03F0800389
S2144009E0002B01D0012300E000231846BD465DF8E9
S2144009F0047B704710180E4000060E4080B483B04B
S214400A0000AF78601549154B1A6A154B13430B62B5
S214400A1000BF124B9B6E03F40033002BF9D00F49F6
S214400A200E4B1A6A0F4B13407A68134343F45C1319
S214400A300B6200BF094B9B6E03F40033002BF9D0CA
S214400A400649064B1A6A084B134043F45C130B6284
S214400A5000BF0C37BD465DF8047B704700060E406D
S214400A60080037008FFFC8FFFFFFC8FE80B483B082
S214400A7000AF786039607B68002B08D01349134B71
S214400A801B6A134A1A40134B13430B6218E00F4974
S214400A900E4B1A6A104B13403A68120292B21A432F
S214400AA00E4B13430B6200BF084B9B6E03F00103D3
S214400AB0002BF9D00549054B1A6A094B13430B62C4
S214400AC000BF0C37BD465DF8047B704700060E40FD
S214400AD0FCFFC8FE02003701FCFFC8FF01003700DC
S214400AE00000370180B400AF044B9B6E03F48033A4
S214400AF01846BD465DF8047B704700BF00060E40B2
S214400B0080B400AF044B4FF000529A6200BFBD461F
S214400B105DF8047B704700BF00060E4080B400AF0F
S214400B20044B9B6E03F002031846BD465DF8047BFB
S214400B30704700BF00060E4080B400AF044B9B6E6B
S214400B4003F040031846BD465DF8047B704700BF7F
S214400B5000060E4080B483B000AF78607B683F2BC1
S214400B6001D901232FE07B681F2B13D8194B9A69B4
S214400B7001217B6801FA03F31A4001217B6801FAE0
S214400B8003F39A421ED0134A01217B6801FA03F30D
S214400B90136117E07B68203B7B600E4BD3F808213F
S214400BA001217B6801FA03F31A4001217B6801FAB0
S214400BB003F39A4206D0074A01217B6801FA03F301
S214400BC0C2F80031002318460C37BD465DF8047B5A
S214400BD0704700BF00060E4080B483B000AF0346A7
S214400BE0FB71064A054B1B6923F00403136130BFB3
S214400BF000BF0C37BD465DF8047B704700ED00E053
S214400C0080B483B000AF78607B689B6918460C3729
S214400C10BD465DF8047B704780B483B000AF786013
S214400C2039607B683A68DA6100BF0C37BD465DF8CC
S214400C30047B704780B487B000AFF860B9607A60D4
S214400C40FA68BB689B0113447B617B6902221A6089
S214400C507B694FF0FF329A627B691B6A7B697A68D0
S214400C605A6000BF1C37BD465DF8047B704700BF26
S214400C7080B483B000AF786039607A683B689B0187
S214400C80134405221A6000BF0C37BD465DF8047B4E
S214400C90704700BF80B485B000AFF860B9607A6036
S214400CA0FA68BB689B01134414337A681A6000BF25
S214400CB01437BD465DF8047B704700BF80B485B0EE
S214400CC000AFF860B9607A60FA68BB689B0113446D
S214400CD01C337A681A6000BF1437BD465DF8047B43
S214400CE0704700BF80B487B000AFF860B9607A60E4
S214400CF0FA68BB689B0113447B617B697A685A62D9
S214400D0000BF1C37BD465DF8047B704780B485B095
S214400D1000AF786039607A683B689B011344FB609B
S214400D20FB681B6A18461437BD465DF8047B70475F
S214400D3080B48DB000AFF860B9607A603B60022343
S214400D403B6108237B612023BB618023FB61BB6B37
S214400D50DB0B3B620023FB621AE0FB6A9B0007F159
S214400D603002134453F8203CBA68B2FBF3F3BB623C
S214400D70BB6A1B0C7B62FA68BB6A9A4201D90023A5
S214400D8023E0FA687B6A9A4206D2FB6A0133FB622A
S214400D90FB6A042BE1D900E000BFFB6A042B01D9B3
S214400DA0002312E07B68002B08D0FB6A9B0007F10B
S214400DB03002134453F8202C7B681A603B68002BA3
S214400DC002D03B68FA6A1A60012318463437BD469B
S214400DD05DF8047B704700BF80B483B000AF786096
S214400DE07B685B6903F40073002B14BF0123002368
S214400DF0DBB218460C37BD465DF8047B704700BF33
S214400E0080B483B000AF78600B46FB707B685B694C
S214400E1003F00203002B01D1012303E0FA787B683C
S214400E20DA61002318460C37BD465DF8047B7047F0
S214400E3080B483B000AF786039607B685B6903F04C
S214400E400103002B01D1012305E07B689B69DAB2E0
S214400E503B681A70002318460C37BD465DF8047B85
S214400E60704700BF80B489B000AFF860B9607A6060
S214400E70BB681A017B689A4202D81023FB6101E0E6
S214400E800823FB617B68DA00FB69B96801FB03F362
S214400E905B081A44FB69B96801FB03F3B2FBF3F342
S214400EA0BB61BB69DB087B61BB6903F007033B6141
S214400EB07B69002B03D07B69B3F5803F01D30123C8
S214400EC00FE0FB69082B05D1FB685B6843F4002202
S214400ED0FB685A603B691A047B691A43FB681A62CE
S214400EE0002318462437BD465DF8047B704700BF94
S214400EF080B582B000AF786078680D4B98477B68C5
S214400F0000225A607B6800225A627B6800229A62FE
S214400F107868084B98477868074B98477868074B37
S214400F2098477868064B984700BF0837BD4680BD4F
S214400F30D9104000E50F40001D1040003910400019
S214400F405510400080B584B000AFF860B9607A6054
S214400F50F8681A4B98471A4B00221A60BB68002B59
S214400F6009D0BB681B687A681946F868154B9847DD
S214400F700346002B01D001231BE0BB685A68BB68C0
S214400F809B681A43BB681B691A43BB68DB681A43F5
S214400F900B4B1B6813430A4A1360094B1B68084AED
S214400FA01360FB685A68064B1B681A43FB685A6016
S214400FB0002318461037BD4680BD00BFF10E4000E6
S214400FC0BC044020650E400080B483B000AF78601B
S214400FD07B6840221A6000BF0C37BD465DF8047B34
S214400FE0704700BF80B483B000AF78607B688822CB
S214400FF01A6000BF0C37BD465DF8047B704700BFE3
S21440100080B483B000AF78607B6810221A6000BF5F
S2144010100C37BD465DF8047B704700BF80B483B094
S21440102000AF78607B6824221A6000BF0C37BD464C
S2144010305DF8047B704700BF80B483B000AF786033
S2144010407B684FF480721A6000BF0C37BD465DF86F
S214401050047B704780B483B000AF78607B684FF401
S21440106000221A6000BF0C37BD465DF8047B70470F
S21440107080B483B000AF786039607B685B6903F00A
S2144010800203002B01D1012305E03B68C3F30802AD
S2144010907B68DA61002318460C37BD465DF8047B52
S2144010A0704700BF80B483B000AF786039607B681B
S2144010B05B6903F00103002B01D1012306E07B6846
S2144010C09B69C3F308023B681A60002318460C3736
S2144010D0BD465DF8047B704780B483B000AF78604F
S2144010E07B68044AC3F8E42000BF0C37BD465DF871
S2144010F0047B70470041535580B483B000AFEFF394
S21440110010837B607B68002B0CBF01230023DBB27F
S2144011103B6072B6BFF35F8F044B00221A703B6889
S21440112018460C37BD465DF8047B704700004020EB
S21440113080B483B000AF78607B68002B14BF012377
S2144011400023DBB218460C37BD465DF8047B70477B
S21440115080B582B000AF78607868074B9847034602
S214401160002B05D0054B01221A70BFF35F8F62B685
S21440117000BF0837BD4680BD31114000000040200A
S21440118080B584B000AF1E4BFB601E4BBB60FA6858
S214401190BB689A420CD007E0BB681A1DBA60FA6872
S2144011A0111DF96012681A60BB68174A9342F3D360
S2144011B0164BBB6004E0BB681A1DBA6000221A607A
S2144011C0BB68134A9342F6D3124BFB60124AFB6845
S2144011D023F07F039360114B98477860104A104B7A
S2144011E01B6843F470031360BFF34F8FBFF36F8FDA
S2144011F078680C4B98470C4B98470C4B9847FEE743
S214401200E81C4000000040203004402030044020CD
S214401210900540200000400000ED00E0F91040003E
S21440122088ED00E051114000191B4000791A40003B
S21440123080B400AFFEE700BF80B400AF524B1B6BDC
S21440124003F00303012B14D0012B02D3022B38D01A
S2144012507AE04E4B5B6903F08003002B04D04C4B86
S2144012604FF400421A606FE0494B4FF4FA421A605E
S2144012706AE0454B1B6A03F08073002B03D0444B57
S214401280444A1A6060E0424B434A1A603E4B1B6A2F
S21440129003F07003102B04D0202B08D0002B0ED068
S2144012A00EE03B4B1B685B00394A136008E0384B46
S2144012B01A6813465B001344354A136000E000BFCB
S2144012C042E0314B1B6A03F08073002B03D0304B57
S2144012D0304A1A601CE02E4B2F4A1A602A4B1B6A73
S2144012E003F07003102B04D0202B08D0002B0ED018
S2144012F00EE0274B1B685B00254A136008E0244B32
S2144013001A6813465B001344214A136000E000BF8E
S2144013101D4B1B6B03F00303022B14D11A4B9A6A26
S2144013201E4B13401B0C0133194A126802FB03F391
S214401330174A1360144B9B6ADBB2154A1268B2FB1D
S214401340F3F3134A136000BF0F4B1B6B03F070039D
S214401350702B08D10E4B1B68114AA2FB03235B0877
S2144013600B4A13600AE0084B1B6B03F070031B0923
S214401370074A126822FA03F3054A136000BFBD46C7
S2144013805DF8047B704700BF00060E4010180E4004
S21440139004004020001BB70000093D000000FF0786
S2144013A0ABAAAAAA80B483B000AF78607B68194A1B
S2144013B0934204D8184B4FF080621A6023E07B6853
S2144013C0164A934203D8144B154A1A601BE07B68B2
S2144013D0144A934203D8104B134A1A6013E07B68B2
S2144013E0124A934203D80C4B114A1A600BE07B68B2
S2144013F0104A934204D8084B4FF004221A6002E089
S214401400054B0D4A1A6000BF0C37BD465DF8047B9D
S214401410704700BFFF2C3101000C0E40FF5962029E
S21440142000010004FF86930300020004FFB3C404D7
S21440143000030004FFE0F5050005000480B483B017
S21440144000AF0346FB71094997F907305B09FA7903
S21440145002F01F02012000FA02F241F8232000BFEA
S2144014600C37BD465DF8047B704700BF00E100E0E6
S21440147080B483B000AF78607B68072B25D801A284
S21440148052F823F0A5144000AB144000B1144000BD
S214401490B7144000BB144000BF144000C3144000C3
S2144014A0C71440004FF4FA4310E04FF400430DE0F9
S2144014B04FF400430AE0084B08E0084B06E0084BB0
S2144014C004E0074B02E0064B00E0002318460C37CA
S2144014D0BD465DF8047B704700093D0000127A0067
S2144014E0001BB70080B500AF0620054B9847024664
S2144014F013469B0013449A001344184680BD00BF11
S2144015007114400080B500AF024B984703469B09D4
S214401510184680BDE514400080B500AF024B9847A2
S2144015200346DB09184680BDE514400080B582B00E
S21440153000AF78607868034B984700BF0837BD46D1
S21440154080BD00BF550B400080B582B000AF7860CC
S2144015500B46FB707B68364A93420AD100BFFB7845
S21440156019467868334B98470346002BF7D101233A
S2144015705AE07B68304A93420AD100BFFB7819464E
S21440158078682C4B98470346002BF7D101234BE055
S2144015907B682A4A93420AD100BFFB78194678688E
S2144015A0244B98470346002BF7D101233CE07B6849
S2144015B0234A93420AD100BFFB78194678681D4BF0
S2144015C098470346002BF7D101232DE07B681D4A40
S2144015D093420AD100BFFB78194678681A4B984761
S2144015E00346002BF7D101231EE07B68174A93423F
S2144015F00AD100BFFB7819467868134B98470346D4
S214401600002BF7D101230FE07B68114A93420AD1A1
S21440161000BFFB78194678680B4B98470346002B6B
S214401620F7D1012300E0002318460837BD4680BDA9
S21440163000080E40010E4000000A0E40001A0E4000
S214401640001C0E40004002407110400000800240E6
S21440165000C0024080B584B000AF78603960002397
S214401660FB607B68344A934207D100BF396878688C
S214401670324B98470346002BF8D17B68304A93425A
S21440168007D100BF396878682C4B98470346002B33
S214401690F8D17B682B4A934207D100BF39687868F7
S2144016A0264B98470346002BF8D17B68264A934240
S2144016B007D100BF39687868204B98470346002B0F
S2144016C0F8D17B68214A93420DD100BF07F10C0345
S2144016D0194678681E4B98470346002BF6D1FB68A0
S2144016E0DAB23B681A707B681A4A93420DD100BF43
S2144016F007F10C0319467868154B98470346002BAC
S214401700F6D1FB68DAB23B681A707B68124A93429D
S2144017100DD100BF07F10C03194678680C4B98476B
S2144017200346002BF6D1FB68DAB23B681A7000BF5E
S2144017301037BD4680BD00BF00080E40310E400049
S214401740000A0E40001A0E40001C0E4000400240A8
S214401750A51040000080024000C0024080B582B024
S21440176000AF012109480A4B984703467B607B68D7
S214401770084B1B78DBB2002B04D04FF400510648D0
S214401780064B984700BF0837BD4680BD00C00040A6
S2144017900D0D4000C004402000120E40E9174000E6
S2144017A080B582B000AF0D480D4B984778607B6897
S2144017B003F00403002B04D004210848094B984743
S2144017C008E07B6803F00203002B03D002210348A5
S2144017D0044B984700BF0837BD4680BD60180E4092
S2144017E0010C4000190C400080B582B000AF786014
S2144017F0396039687868094B98470346002B04D00F
S21440180039687868064B984703E039687868054B2E
S214401810984700BF0837BD4680BD00BFF106400070
S214401820610540004505400090B585B002AF786040
S2144018300C20074B98477A680023009300234FF408
S21440184000510448044CA04700BF0C37BD4690BD2D
S214401850550B400000120E408D06400090B587B0F4
S21440186002AF214B9847F8600123BB6018201F4BFE
S214401870984739463A1DFB6800930B46F9680220A4
S2144018801B4CA0473B6843F400431A46B9681948C6
S214401890194B98477B68FA68B2FBF3F3174AA2FBEA
S2144018A003239B091A46B9681248154B98477B682C
S2144018B0FA68B2FBF3F3134AA2FB03239B091A46CA
S2144018C0B9680C48104B98471820104B984714227C
S2144018D0B96808480E4B9847B96806480D4B984774
S2144018E000BF1437BD4690BD05154000550B40005F
S2144018F0310D400000C00040350C4000030B2CB0BA
S214401900BD0C40005D414CAE950C40003D1440007F
S214401910E50C4000710C400080B586B000AF0B204F
S2144019201F4B98470A201E4B984710224FF00051F5
S2144019301C481D4B98474FF400124FF000611B485F
S214401940194B98471A4A1A4BD3F8143143F01003F0
S214401950C2F814313B4600221A605A609A60DA6038
S2144019601A615A614FF4E1333B60C0237B604FF409
S2144019700063BB600E200A4B98470E4B98470246C2
S2144019803B4619460C480D4B98470B480C4B98471E
S21440199009480C4B984700BF1837BD4680BD00BF6E
S2144019A02D15400000100E407D054000000E0E40F4
S2144019B0008008401915400000800240450F400056
S2144019C0C90F40000110400080B584B000AF786079
S2144019D00023FB6010E0FB685A1CFA607A681344E8
S2144019E01B7819460A480B4B984700BF08480A4BD5
S2144019F098470346002BF9D07A68FB6813441B7857
S214401A00002BE8D1FB6818461037BD4680BD00BFA6
S214401A100080024049154000D90D400080B584B092
S214401A2000AF78600023FB607A68FB681344194671
S214401A300F48104B984709E0FB680133FB607A6813
S214401A40FB68134419460A480A4B98477A68FB686D
S214401A5013441B780A2BEFD1FB6801337A68134492
S214401A6000221A70FB6818461037BD4680BD00BF7E
S214401A70008002405516400080B584B000AF194B38
S214401A809847194B4FF400425A600020174B98472E
S214401A90174B9847174B98470020174B98473B1DC6
S214401AA01846164B98473B796D2B06D11448154B74
S214401AB098471548134B9847EEE73B796C2B06D171
S214401AC01248104B9847124B01221A70E4E73B79B4
S214401AD06F2BE1D10F480B4B98470D4B00221A70E5
S214401AE0DAE700BF9D04400050180E402918400019
S214401AF05D18400019194000D90B40001D1A4000DF
S214401B00541C4000C9194000C8044020901C4000A6
S214401B10C0044020A81C400070B50F4E0F4D761BE9
S214401B20B61018BF002405D0013455F8043B98473A
S214401B30A642F9D10A4E0B4D761B00F0C3F8B610FC
S214401B4018BF002406D0013455F8043B9847A642F7
S214401B50F9D170BD70BD00BFD01C4000D01C400005
S214401B60D81C4000D01C4000024B13B1024800F085
S214401B7005B8704700000000891B4000002301465E
S214401B801A46184600F014B838B5074D074C2C1BBB
S214401B90A41005D0013C55F8043D9847002CF9D1D7
S214401BA0BDE8384000F098B8E81C4000E41C40000F
S214401BB02DE9F047254C2568D5F848410646884625
S214401BC092469946C4B360681F2817DC431C76B11A
S214401BD004EB80050122C5F888A0D4F8881182401D
S214401BE01143022EC4F88811C5F808911ED0023061
S214401BF0636044F820800020BDE8F087144B03B3B0
S214401C004FF4C870AFF300800446D0B1D5F84831E1
S214401C10002780E88800C5F8484138460123C4F8C4
S214401C208871C4F88C71002EE1D0D1E7D4F88C11BD
S214401C300A43C4F88C21DAE705F5A674C5F848418E
S214401C40C1E74FF0FF30BDE8F08700BFC01C400042
S214401C50000000004D656E753A200A206D2D20610B
S214401C60706172656365206D656E75200A206C2D07
S214401C707069736361206C6564200A206F2D206450
S214401C8065736C696761206C6564200A000000001B
S214401C904F6C686521204F204C4544207069736323
S214401CA061212121200A00005061726F7520646511
S214401CB020506973636172200A21000043000000CF
S214401CC008004020F8B500BFF8BC08BC9E467047E8
S214401CD0691B400065014000F8B500BFF8BC08BC71
S20C401CE09E467047410140009A
S214401CE80100000000093D0000000000F40240200A
S214401CF85C034020C40340200000000000000000B1
S214401D080000000000000000000000000000000086
S214401D18000000000000000000000000BC1C40005E
S214401D280000000000000000000000000000000066
S214401D380000000000000000000000000000000056
S214401D480000000000000000000000000000000046
S214401D580000000000000000000000000000000036
S214401D680000000000000000000000000000000026
S214401D780000000000000000000000000000000016
S214401D880000000000000000000000000000000006
S214401D9801000000000000000E33CDAB34126DE6A3
S214401DA8ECDE05000B00000000000000000000000C
S214401DB800000000000000000000000000000000D6
S214401DC800000000000000000000000000000000C6
S214401DD800000000000000000000000000000000B6
S214401DE800000000000000000000000000000000A6
S80440118129
